{
  "_format": "hh-sol-artifact-1",
  "contractName": "ECOx",
  "sourceName": "contracts/currency/ECOx.sol",
  "abi": [
    {
      "inputs": [
        {
          "internalType": "contract Policy",
          "name": "_policy",
          "type": "address"
        },
        {
          "internalType": "address",
          "name": "_distributor",
          "type": "address"
        },
        {
          "internalType": "uint256",
          "name": "_initialSupply",
          "type": "uint256"
        },
        {
          "internalType": "contract IECO",
          "name": "_ecoAddr",
          "type": "address"
        },
        {
          "internalType": "address",
          "name": "_initialPauser",
          "type": "address"
        }
      ],
      "stateMutability": "nonpayable",
      "type": "constructor"
    },
    {
      "anonymous": false,
      "inputs": [
        {
          "indexed": true,
          "internalType": "address",
          "name": "owner",
          "type": "address"
        },
        {
          "indexed": true,
          "internalType": "address",
          "name": "spender",
          "type": "address"
        },
        {
          "indexed": false,
          "internalType": "uint256",
          "name": "value",
          "type": "uint256"
        }
      ],
      "name": "Approval",
      "type": "event"
    },
    {
      "anonymous": false,
      "inputs": [
        {
          "indexed": false,
          "internalType": "address",
          "name": "account",
          "type": "address"
        }
      ],
      "name": "Paused",
      "type": "event"
    },
    {
      "anonymous": false,
      "inputs": [
        {
          "indexed": true,
          "internalType": "address",
          "name": "pauser",
          "type": "address"
        }
      ],
      "name": "PauserAssignment",
      "type": "event"
    },
    {
      "anonymous": false,
      "inputs": [
        {
          "indexed": true,
          "internalType": "address",
          "name": "from",
          "type": "address"
        },
        {
          "indexed": true,
          "internalType": "address",
          "name": "to",
          "type": "address"
        },
        {
          "indexed": false,
          "internalType": "uint256",
          "name": "value",
          "type": "uint256"
        }
      ],
      "name": "Transfer",
      "type": "event"
    },
    {
      "anonymous": false,
      "inputs": [
        {
          "indexed": false,
          "internalType": "address",
          "name": "account",
          "type": "address"
        }
      ],
      "name": "Unpaused",
      "type": "event"
    },
    {
      "inputs": [],
      "name": "DOMAIN_SEPARATOR",
      "outputs": [
        {
          "internalType": "bytes32",
          "name": "",
          "type": "bytes32"
        }
      ],
      "stateMutability": "view",
      "type": "function"
    },
    {
      "inputs": [],
      "name": "GENERATION_START",
      "outputs": [
        {
          "internalType": "uint256",
          "name": "",
          "type": "uint256"
        }
      ],
      "stateMutability": "view",
      "type": "function"
    },
    {
      "inputs": [],
      "name": "MIN_GENERATION_DURATION",
      "outputs": [
        {
          "internalType": "uint256",
          "name": "",
          "type": "uint256"
        }
      ],
      "stateMutability": "view",
      "type": "function"
    },
    {
      "inputs": [],
      "name": "PRECISION_BITS",
      "outputs": [
        {
          "internalType": "uint8",
          "name": "",
          "type": "uint8"
        }
      ],
      "stateMutability": "view",
      "type": "function"
    },
    {
      "inputs": [
        {
          "internalType": "address",
          "name": "owner",
          "type": "address"
        },
        {
          "internalType": "address",
          "name": "spender",
          "type": "address"
        }
      ],
      "name": "allowance",
      "outputs": [
        {
          "internalType": "uint256",
          "name": "",
          "type": "uint256"
        }
      ],
      "stateMutability": "view",
      "type": "function"
    },
    {
      "inputs": [
        {
          "internalType": "address",
          "name": "spender",
          "type": "address"
        },
        {
          "internalType": "uint256",
          "name": "amount",
          "type": "uint256"
        }
      ],
      "name": "approve",
      "outputs": [
        {
          "internalType": "bool",
          "name": "",
          "type": "bool"
        }
      ],
      "stateMutability": "nonpayable",
      "type": "function"
    },
    {
      "inputs": [
        {
          "internalType": "address",
          "name": "account",
          "type": "address"
        }
      ],
      "name": "balanceOf",
      "outputs": [
        {
          "internalType": "uint256",
          "name": "",
          "type": "uint256"
        }
      ],
      "stateMutability": "view",
      "type": "function"
    },
    {
      "inputs": [
        {
          "internalType": "bytes32",
          "name": "",
          "type": "bytes32"
        },
        {
          "internalType": "address",
          "name": "_addr",
          "type": "address"
        }
      ],
      "name": "canImplementInterfaceForAddress",
      "outputs": [
        {
          "internalType": "bytes32",
          "name": "",
          "type": "bytes32"
        }
      ],
      "stateMutability": "view",
      "type": "function"
    },
    {
      "inputs": [],
      "name": "clone",
      "outputs": [
        {
          "internalType": "address",
          "name": "",
          "type": "address"
        }
      ],
      "stateMutability": "nonpayable",
      "type": "function"
    },
    {
      "inputs": [],
      "name": "decimals",
      "outputs": [
        {
          "internalType": "uint8",
          "name": "",
          "type": "uint8"
        }
      ],
      "stateMutability": "view",
      "type": "function"
    },
    {
      "inputs": [
        {
          "internalType": "address",
          "name": "spender",
          "type": "address"
        },
        {
          "internalType": "uint256",
          "name": "subtractedValue",
          "type": "uint256"
        }
      ],
      "name": "decreaseAllowance",
      "outputs": [
        {
          "internalType": "bool",
          "name": "",
          "type": "bool"
        }
      ],
      "stateMutability": "nonpayable",
      "type": "function"
    },
    {
      "inputs": [],
      "name": "distributor",
      "outputs": [
        {
          "internalType": "address",
          "name": "",
          "type": "address"
        }
      ],
      "stateMutability": "view",
      "type": "function"
    },
    {
      "inputs": [],
      "name": "ecoToken",
      "outputs": [
        {
          "internalType": "contract IECO",
          "name": "",
          "type": "address"
        }
      ],
      "stateMutability": "view",
      "type": "function"
    },
    {
      "inputs": [
        {
          "internalType": "uint256",
          "name": "_ecoXValue",
          "type": "uint256"
        }
      ],
      "name": "ecoValueOf",
      "outputs": [
        {
          "internalType": "uint256",
          "name": "",
          "type": "uint256"
        }
      ],
      "stateMutability": "view",
      "type": "function"
    },
    {
      "inputs": [
        {
          "internalType": "uint256",
          "name": "_ecoXValue",
          "type": "uint256"
        }
      ],
      "name": "exchange",
      "outputs": [],
      "stateMutability": "nonpayable",
      "type": "function"
    },
    {
      "inputs": [],
      "name": "implementation",
      "outputs": [
        {
          "internalType": "address",
          "name": "_impl",
          "type": "address"
        }
      ],
      "stateMutability": "view",
      "type": "function"
    },
    {
      "inputs": [
        {
          "internalType": "address",
          "name": "spender",
          "type": "address"
        },
        {
          "internalType": "uint256",
          "name": "addedValue",
          "type": "uint256"
        }
      ],
      "name": "increaseAllowance",
      "outputs": [
        {
          "internalType": "bool",
          "name": "",
          "type": "bool"
        }
      ],
      "stateMutability": "nonpayable",
      "type": "function"
    },
    {
      "inputs": [],
      "name": "initialSupply",
      "outputs": [
        {
          "internalType": "uint256",
          "name": "",
          "type": "uint256"
        }
      ],
      "stateMutability": "view",
      "type": "function"
    },
    {
      "inputs": [
        {
          "internalType": "address",
          "name": "_self",
          "type": "address"
        }
      ],
      "name": "initialize",
      "outputs": [],
      "stateMutability": "nonpayable",
      "type": "function"
    },
    {
      "inputs": [
        {
          "internalType": "address",
          "name": "_to",
          "type": "address"
        },
        {
          "internalType": "uint256",
          "name": "_value",
          "type": "uint256"
        }
      ],
      "name": "mint",
      "outputs": [],
      "stateMutability": "nonpayable",
      "type": "function"
    },
    {
      "inputs": [],
      "name": "name",
      "outputs": [
        {
          "internalType": "string",
          "name": "",
          "type": "string"
        }
      ],
      "stateMutability": "view",
      "type": "function"
    },
    {
      "inputs": [
        {
          "internalType": "address",
          "name": "owner",
          "type": "address"
        }
      ],
      "name": "nonces",
      "outputs": [
        {
          "internalType": "uint256",
          "name": "",
          "type": "uint256"
        }
      ],
      "stateMutability": "view",
      "type": "function"
    },
    {
      "inputs": [],
      "name": "pause",
      "outputs": [],
      "stateMutability": "nonpayable",
      "type": "function"
    },
    {
      "inputs": [],
      "name": "paused",
      "outputs": [
        {
          "internalType": "bool",
          "name": "",
          "type": "bool"
        }
      ],
      "stateMutability": "view",
      "type": "function"
    },
    {
      "inputs": [],
      "name": "pauser",
      "outputs": [
        {
          "internalType": "address",
          "name": "",
          "type": "address"
        }
      ],
      "stateMutability": "view",
      "type": "function"
    },
    {
      "inputs": [
        {
          "internalType": "address",
          "name": "owner",
          "type": "address"
        },
        {
          "internalType": "address",
          "name": "spender",
          "type": "address"
        },
        {
          "internalType": "uint256",
          "name": "value",
          "type": "uint256"
        },
        {
          "internalType": "uint256",
          "name": "deadline",
          "type": "uint256"
        },
        {
          "internalType": "uint8",
          "name": "v",
          "type": "uint8"
        },
        {
          "internalType": "bytes32",
          "name": "r",
          "type": "bytes32"
        },
        {
          "internalType": "bytes32",
          "name": "s",
          "type": "bytes32"
        }
      ],
      "name": "permit",
      "outputs": [],
      "stateMutability": "nonpayable",
      "type": "function"
    },
    {
      "inputs": [],
      "name": "policy",
      "outputs": [
        {
          "internalType": "contract Policy",
          "name": "",
          "type": "address"
        }
      ],
      "stateMutability": "view",
      "type": "function"
    },
    {
      "inputs": [
        {
          "internalType": "address",
          "name": "_delegate",
          "type": "address"
        },
        {
          "internalType": "bytes",
          "name": "_data",
          "type": "bytes"
        }
      ],
      "name": "policyCommand",
      "outputs": [],
      "stateMutability": "nonpayable",
      "type": "function"
    },
    {
      "inputs": [],
      "name": "roleAdmin",
      "outputs": [
        {
          "internalType": "address",
          "name": "",
          "type": "address"
        }
      ],
      "stateMutability": "view",
      "type": "function"
    },
    {
      "inputs": [
        {
          "internalType": "address",
          "name": "_addr",
          "type": "address"
        }
      ],
      "name": "setExpectedInterfaceSet",
      "outputs": [],
      "stateMutability": "nonpayable",
      "type": "function"
    },
    {
      "inputs": [
        {
          "internalType": "address",
          "name": "_pauser",
          "type": "address"
        }
      ],
      "name": "setPauser",
      "outputs": [],
      "stateMutability": "nonpayable",
      "type": "function"
    },
    {
      "inputs": [],
      "name": "symbol",
      "outputs": [
        {
          "internalType": "string",
          "name": "",
          "type": "string"
        }
      ],
      "stateMutability": "view",
      "type": "function"
    },
    {
      "inputs": [],
      "name": "totalSupply",
      "outputs": [
        {
          "internalType": "uint256",
          "name": "",
          "type": "uint256"
        }
      ],
      "stateMutability": "view",
      "type": "function"
    },
    {
      "inputs": [
        {
          "internalType": "address",
          "name": "recipient",
          "type": "address"
        },
        {
          "internalType": "uint256",
          "name": "amount",
          "type": "uint256"
        }
      ],
      "name": "transfer",
      "outputs": [
        {
          "internalType": "bool",
          "name": "",
          "type": "bool"
        }
      ],
      "stateMutability": "nonpayable",
      "type": "function"
    },
    {
      "inputs": [
        {
          "internalType": "address",
          "name": "sender",
          "type": "address"
        },
        {
          "internalType": "address",
          "name": "recipient",
          "type": "address"
        },
        {
          "internalType": "uint256",
          "name": "amount",
          "type": "uint256"
        }
      ],
      "name": "transferFrom",
      "outputs": [
        {
          "internalType": "bool",
          "name": "",
          "type": "bool"
        }
      ],
      "stateMutability": "nonpayable",
      "type": "function"
    },
    {
      "inputs": [],
      "name": "unpause",
      "outputs": [],
      "stateMutability": "nonpayable",
      "type": "function"
    },
    {
      "inputs": [
        {
          "internalType": "uint256",
          "name": "_ecoXValue",
          "type": "uint256"
        },
        {
          "internalType": "uint256",
          "name": "_blockNumber",
          "type": "uint256"
        }
      ],
      "name": "valueAt",
      "outputs": [
        {
          "internalType": "uint256",
          "name": "",
          "type": "uint256"
        }
      ],
      "stateMutability": "view",
      "type": "function"
    }
  ],
  "bytecode": "0x6102406040527f6e71edae12b1b97f4d1f60370fef10105fa2faae0126114a169c64845d6126c9610140523480156200003757600080fd5b5060405162003c9d38038062003c9d8339810160408190526200005a916200051f565b60408051808201825260048082526308a869ef60e31b602080840182815285518087018752938452838201929092528451808601865260018152603160f81b90820152835190912060e08190527fc89efdaa54c0f20c7adf612882df0950f5a951637e0307cdcb4c672f298b8bc66101008190524660a081815287517f8b73c3c69bb8fe3d512ecc4cf759cc79239f7b179b0ffacaa9a75d522b39400f818701819052818a01959095526060810193909352608080840192909252308382018190528851808503909201825260c093840190985280519085012090529490945261012093909352879283929190839086908490849062000165908390620017316200045f821b17901c565b610160818152505062000183816200045f60201b620017311760201c565b6101805250506004805460ff191690556001600160a01b038216620002155760405162461bcd60e51b815260206004820152603c60248201527f556e7265636f76657261626c653a20646f206e6f742073657420746865205f7260448201527f6f6c6541646d696e20617320746865207a65726f20616464726573730000000060648201526084015b60405180910390fd5b6001600160a01b038281166101a05260048054610100600160a81b0319166101009284169283021790556040517fc1c43aa8035756476ab2ca6cfd05434a7fd574b0f3b39c7174828b1fb82acd3e90600090a2505050506200027d306200047860201b60201c565b6001600160a01b038116620002fb5760405162461bcd60e51b815260206004820152603860248201527f556e7265636f76657261626c653a20646f206e6f74207365742074686520706f60448201527f6c69637920617320746865207a65726f2061646472657373000000000000000060648201526084016200020c565b6001600160a01b0381166101c0819052604051635df8122f60e01b81523060048201526024810191909152731820a4b7618bde71dce8cdc73aab6c95905fad2490635df8122f90604401600060405180830381600087803b1580156200036057600080fd5b505af115801562000375573d6000803e3d6000fd5b50505050505060008311620003cd5760405162461bcd60e51b815260206004820152601f60248201527f696e697469616c20737570706c79206e6f742070726f7065726c79207365740060448201526064016200020c565b6001600160a01b0382166200043c5760405162461bcd60e51b815260206004820152602e60248201527f446f206e6f7420736574207468652045434f206164647265737320617320746860448201526d65207a65726f206164647265737360901b60648201526084016200020c565b506101e0919091526001600160a01b039182166102005216610220525062000593565b600060208251106200047057600080fd5b50601f015190565b6001600160a01b0381166200049a60008051602062003c7d8339815191525490565b6001600160a01b03161415620004f35760405162461bcd60e51b815260206004820152601f60248201527f496d706c656d656e746174696f6e20616c7265616479206d61746368696e670060448201526064016200020c565b60008051602062003c7d83398151915255565b6001600160a01b03811681146200051c57600080fd5b50565b600080600080600060a086880312156200053857600080fd5b8551620005458162000506565b6020870151909550620005588162000506565b604087015160608801519195509350620005728162000506565b6080870151909250620005858162000506565b809150509295509295909350565b60805160a05160c05160e05161010051610120516101405161016051610180516101a0516101c0516101e05161020051610220516135ee6200068f6000396000818161046001528181610cb60152818161107101526110eb01526000818161056f01526114fe0152600081816103a20152818161151f0152611b4e0152600081816102810152818161065b0152818161098201528181610daf01528181611d9301526122390152600081816104f50152610ac00152600061125c01526000610604015260006115b501526000611c3c01526000611c8b01526000611c6601526000611bbf01526000611be901526000611c1301526135ee6000f3fe608060405234801561001057600080fd5b50600436106102775760003560e01c806353556559116101605780638cb17056116100d8578063a9059cbb1161008c578063c4d66de811610071578063c4d66de814610591578063d505accf146105a4578063dd62ed3e146105b757600080fd5b8063a9059cbb14610557578063bfe109281461056a57600080fd5b806395d89b41116100bd57806395d89b41146105175780639fd0506d1461051f578063a457c2d71461054457600080fd5b80638cb17056146104e657806393867fb5146104f057600080fd5b8063705d53041161012f57806373b46d5c1161011457806373b46d5c146104b85780637ecebe00146104cb5780638456cb59146104de57600080fd5b8063705d53041461045b57806370a082311461048257600080fd5b8063535565591461040d57806353729937146104205780635c60da1b146104295780635c975abb1461045057600080fd5b8063313ce567116101f357806339509351116101c25780633f4ba83a116101a75780633f4ba83a146103ea57806340b4ff87146103f257806340c10f19146103fa57600080fd5b806339509351146103c457806339634e0c146103d757600080fd5b8063313ce5671461036d578063329c53f7146103825780633644e51514610395578063378dc3dc1461039d57600080fd5b806309ed46071161024a57806323b872dd1161022f57806323b872dd14610334578063249cb3fa146103475780632d88af4a1461035a57600080fd5b806309ed46071461031a57806318160ddd1461032257600080fd5b80630505c8c91461027c57806306fdde03146102cd578063095ea7b3146102e257806309d7f23b14610305575b600080fd5b6102a37f000000000000000000000000000000000000000000000000000000000000000081565b60405173ffffffffffffffffffffffffffffffffffffffff90911681526020015b60405180910390f35b6102d56105fd565b6040516102c49190613166565b6102f56102f03660046131fb565b61062d565b60405190151581526020016102c4565b610318610313366004613256565b610643565b005b6102a3610737565b6003545b6040519081526020016102c4565b6102f5610342366004613338565b610898565b610326610355366004613379565b61097e565b6103186103683660046133a9565b610aa8565b60125b60405160ff90911681526020016102c4565b6103266103903660046133c6565b610c6d565b610326610d44565b6103267f000000000000000000000000000000000000000000000000000000000000000081565b6102f56103d23660046131fb565b610d4e565b6103186103e53660046133a9565b610d97565b610318610ea3565b610370606481565b6103186104083660046131fb565b610f33565b61031861041b3660046133e8565b611024565b6103266103e881565b7ff86c915dad5894faca0dfa067c58fdf4307406d255ed0a65db394f82b77f53d4546102a3565b60045460ff166102f5565b6102a37f000000000000000000000000000000000000000000000000000000000000000081565b6103266104903660046133a9565b73ffffffffffffffffffffffffffffffffffffffff1660009081526001602052604090205490565b6103266104c63660046133e8565b6110e6565b6103266104d93660046133a9565b61119a565b6103186111c7565b6103266212750081565b6102a37f000000000000000000000000000000000000000000000000000000000000000081565b6102d5611255565b6004546102a390610100900473ffffffffffffffffffffffffffffffffffffffff1681565b6102f56105523660046131fb565b611280565b6102f56105653660046131fb565b611358565b6102a37f000000000000000000000000000000000000000000000000000000000000000081565b61031861059f3660046133a9565b611365565b6103186105b2366004613401565b611547565b6103266105c5366004613478565b73ffffffffffffffffffffffffffffffffffffffff918216600090815260026020908152604080832093909416825291909152205490565b60606106287f0000000000000000000000000000000000000000000000000000000000000000611749565b905090565b600061063a3384846117af565b50600192915050565b3373ffffffffffffffffffffffffffffffffffffffff7f0000000000000000000000000000000000000000000000000000000000000000161461070d576040517f08c379a000000000000000000000000000000000000000000000000000000000815260206004820152602d60248201527f4f6e6c792074686520706f6c69637920636f6e7472616374206d61792063616c60448201527f6c2074686973206d6574686f640000000000000000000000000000000000000060648201526084015b60405180910390fd5b600080825160208401855af43d806000803e81801561072b57816000f35b816000fd5b5050505050565b6000306107627ff86c915dad5894faca0dfa067c58fdf4307406d255ed0a65db394f82b77f53d45490565b73ffffffffffffffffffffffffffffffffffffffff1614610805576040517f08c379a000000000000000000000000000000000000000000000000000000000815260206004820152602660248201527f54686973206d6574686f642063616e6e6f742062652063616c6c6564206f6e2060448201527f636c6f6e657300000000000000000000000000000000000000000000000000006064820152608401610704565b6000610810306118c0565b6040517fc4d66de800000000000000000000000000000000000000000000000000000000815230600482015290915073ffffffffffffffffffffffffffffffffffffffff82169063c4d66de890602401600060405180830381600087803b15801561087a57600080fd5b505af115801561088e573d6000803e3d6000fd5b5092949350505050565b60006108a5848484611929565b73ffffffffffffffffffffffffffffffffffffffff8416600090815260026020908152604080832033845290915290205482811015610966576040517f08c379a000000000000000000000000000000000000000000000000000000000815260206004820152602860248201527f45524332303a207472616e7366657220616d6f756e742065786365656473206160448201527f6c6c6f77616e63650000000000000000000000000000000000000000000000006064820152608401610704565b61097385338584036117af565b506001949350505050565b60007f000000000000000000000000000000000000000000000000000000000000000073ffffffffffffffffffffffffffffffffffffffff168273ffffffffffffffffffffffffffffffffffffffff1614806109f4575060055473ffffffffffffffffffffffffffffffffffffffff8381169116145b610a80576040517f08c379a000000000000000000000000000000000000000000000000000000000815260206004820152603b60248201527f4f6e6c792074686520706f6c696379206f7220696e7465726661636520636f6e60448201527f74726163742063616e207365742074686520696e7465726661636500000000006064820152608401610704565b507fa2ef4600d742022d532d4747cb3547474667d6f13804902513b2ec01c848f4b492915050565b3373ffffffffffffffffffffffffffffffffffffffff7f00000000000000000000000000000000000000000000000000000000000000001614610b47576040517f08c379a000000000000000000000000000000000000000000000000000000000815260206004820152601860248201527f45524332305061757361626c653a206e6f742061646d696e00000000000000006044820152606401610704565b60045473ffffffffffffffffffffffffffffffffffffffff828116610100909204161415610bf7576040517f08c379a000000000000000000000000000000000000000000000000000000000815260206004820152602160248201527f45524332305061757361626c653a206d757374206368616e676520706175736560448201527f72000000000000000000000000000000000000000000000000000000000000006064820152608401610704565b600480547fffffffffffffffffffffff0000000000000000000000000000000000000000ff1661010073ffffffffffffffffffffffffffffffffffffffff8416908102919091179091556040517fc1c43aa8035756476ab2ca6cfd05434a7fd574b0f3b39c7174828b1fb82acd3e90600090a250565b6040517f981b24d000000000000000000000000000000000000000000000000000000000815260048101829052600090819073ffffffffffffffffffffffffffffffffffffffff7f0000000000000000000000000000000000000000000000000000000000000000169063981b24d09060240160206040518083038186803b158015610cf857600080fd5b505afa158015610d0c573d6000803e3d6000fd5b505050506040513d601f19601f82011682018060405250810190610d3091906134a6565b9050610d3c8482611b49565b949350505050565b6000610628611ba5565b33600081815260026020908152604080832073ffffffffffffffffffffffffffffffffffffffff87168452909152812054909161063a918590610d929086906134ee565b6117af565b3373ffffffffffffffffffffffffffffffffffffffff7f00000000000000000000000000000000000000000000000000000000000000001614610e5c576040517f08c379a000000000000000000000000000000000000000000000000000000000815260206004820152602d60248201527f4f6e6c792074686520706f6c69637920636f6e7472616374206d61792063616c60448201527f6c2074686973206d6574686f64000000000000000000000000000000000000006064820152608401610704565b600580547fffffffffffffffffffffffff00000000000000000000000000000000000000001673ffffffffffffffffffffffffffffffffffffffff92909216919091179055565b600454610100900473ffffffffffffffffffffffffffffffffffffffff163314610f29576040517f08c379a000000000000000000000000000000000000000000000000000000000815260206004820152601960248201527f45524332305061757361626c653a206e6f7420706175736572000000000000006044820152606401610704565b610f31611cd9565b565b610f5c7f93824b3fb91a9a455e79c6bb5ad7a2acaedbf7fea80464761d7d892aa7853d5e611d56565b73ffffffffffffffffffffffffffffffffffffffff163373ffffffffffffffffffffffffffffffffffffffff1614611015576040517f08c379a0000000000000000000000000000000000000000000000000000000008152602060048201526024808201527f43616c6c6572206e6f7420617574686f72697a656420746f206d696e7420746f60448201527f6b656e73000000000000000000000000000000000000000000000000000000006064820152608401610704565b61101f8282611e31565b505050565b600061102f826110e6565b905061103b3383611f66565b506040517f40c10f19000000000000000000000000000000000000000000000000000000008152336004820152602481018290527f000000000000000000000000000000000000000000000000000000000000000073ffffffffffffffffffffffffffffffffffffffff16906340c10f1990604401600060405180830381600087803b1580156110ca57600080fd5b505af11580156110de573d6000803e3d6000fd5b505050505050565b6000807f000000000000000000000000000000000000000000000000000000000000000073ffffffffffffffffffffffffffffffffffffffff166318160ddd6040518163ffffffff1660e01b815260040160206040518083038186803b15801561114f57600080fd5b505afa158015611163573d6000803e3d6000fd5b505050506040513d601f19601f8201168201806040525081019061118791906134a6565b90506111938382611b49565b9392505050565b73ffffffffffffffffffffffffffffffffffffffff81166000908152602081905260408120545b92915050565b600454610100900473ffffffffffffffffffffffffffffffffffffffff16331461124d576040517f08c379a000000000000000000000000000000000000000000000000000000000815260206004820152601960248201527f45524332305061757361626c653a206e6f7420706175736572000000000000006044820152606401610704565b610f316120c5565b60606106287f0000000000000000000000000000000000000000000000000000000000000000611749565b33600090815260026020908152604080832073ffffffffffffffffffffffffffffffffffffffff8616845290915281205482811015611341576040517f08c379a000000000000000000000000000000000000000000000000000000000815260206004820152602560248201527f45524332303a2064656372656173656420616c6c6f77616e63652062656c6f7760448201527f207a65726f0000000000000000000000000000000000000000000000000000006064820152608401610704565b61134e33858584036117af565b5060019392505050565b600061063a338484611929565b600061138f7ff86c915dad5894faca0dfa067c58fdf4307406d255ed0a65db394f82b77f53d45490565b73ffffffffffffffffffffffffffffffffffffffff1614611432576040517f08c379a000000000000000000000000000000000000000000000000000000000815260206004820152602860248201527f43616e206f6e6c792062652063616c6c656420647572696e6720696e6974696160448201527f6c697a6174696f6e0000000000000000000000000000000000000000000000006064820152608401610704565b61143b81612120565b8073ffffffffffffffffffffffffffffffffffffffff16639fd0506d6040518163ffffffff1660e01b815260040160206040518083038186803b15801561148157600080fd5b505afa158015611495573d6000803e3d6000fd5b505050506040513d601f19601f820116820180604052508101906114b99190613506565b600460016101000a81548173ffffffffffffffffffffffffffffffffffffffff021916908373ffffffffffffffffffffffffffffffffffffffff1602179055506115437f00000000000000000000000000000000000000000000000000000000000000007f0000000000000000000000000000000000000000000000000000000000000000611e31565b5050565b834211156115b1576040517f08c379a000000000000000000000000000000000000000000000000000000000815260206004820152601d60248201527f45524332305065726d69743a206578706972656420646561646c696e650000006044820152606401610704565b60007f000000000000000000000000000000000000000000000000000000000000000088888861160b8c73ffffffffffffffffffffffffffffffffffffffff16600090815260208190526040902080546001810190915590565b60408051602081019690965273ffffffffffffffffffffffffffffffffffffffff94851690860152929091166060840152608083015260a082015260c0810186905260e0016040516020818303038152906040528051906020012090506000611673826122ab565b9050600061168382878787612314565b90508973ffffffffffffffffffffffffffffffffffffffff168173ffffffffffffffffffffffffffffffffffffffff161461171a576040517f08c379a000000000000000000000000000000000000000000000000000000000815260206004820152601e60248201527f45524332305065726d69743a20696e76616c6964207369676e617475726500006044820152606401610704565b6117258a8a8a6117af565b50505050505050505050565b6000602082511061174157600080fd5b50601f015190565b606060f882901c6020811061175d57600080fd5b8067ffffffffffffffff81111561177657611776613227565b6040519080825280601f01601f1916602001820160405280156117a0576020820181803683370190505b50915082601f83015250919050565b73ffffffffffffffffffffffffffffffffffffffff8216611852576040517f08c379a000000000000000000000000000000000000000000000000000000000815260206004820152602260248201527f45524332303a20617070726f766520746f20746865207a65726f20616464726560448201527f73730000000000000000000000000000000000000000000000000000000000006064820152608401610704565b73ffffffffffffffffffffffffffffffffffffffff83811660008181526002602090815260408083209487168084529482529182902085905590518481527f8c5be1e5ebec7d5bd14f71427d1e84f3dd0314c0f7b2291e5b200ac8c7c3b925910160405180910390a3505050565b6000808260601b90506040517f3d602d80600a3d3981f3363d3d373d3d3d363d7300000000000000000000000081528160148201527f5af43d82803e903d91602b57fd5bf3000000000000000000000000000000000060288201526037816000f0949350505050565b73ffffffffffffffffffffffffffffffffffffffff82166119cc576040517f08c379a000000000000000000000000000000000000000000000000000000000815260206004820152602360248201527f45524332303a207472616e7366657220746f20746865207a65726f206164647260448201527f65737300000000000000000000000000000000000000000000000000000000006064820152608401610704565b60006119d984848461233c565b73ffffffffffffffffffffffffffffffffffffffff851660009081526001602052604090205490915081811015611a92576040517f08c379a000000000000000000000000000000000000000000000000000000000815260206004820152602660248201527f45524332303a207472616e7366657220616d6f756e742065786365656473206260448201527f616c616e636500000000000000000000000000000000000000000000000000006064820152608401610704565b73ffffffffffffffffffffffffffffffffffffffff808616600090815260016020526040808220858503905591861681529081208054849290611ad69084906134ee565b925050819055508373ffffffffffffffffffffffffffffffffffffffff168573ffffffffffffffffffffffffffffffffffffffff167fddf252ad1be2c89b69c2b068fc378daa952ba7f163c4a11628f55a4df523b3ef85604051611b3c91815260200190565b60405180910390a3610730565b6000807f0000000000000000000000000000000000000000000000000000000000000000611b7885606461234d565b611b829190613523565b9050606483611b9183836123e7565b611b9b919061355e565b901c949350505050565b60003073ffffffffffffffffffffffffffffffffffffffff7f000000000000000000000000000000000000000000000000000000000000000016148015611c0b57507f000000000000000000000000000000000000000000000000000000000000000046145b15611c3557507f000000000000000000000000000000000000000000000000000000000000000090565b50604080517f00000000000000000000000000000000000000000000000000000000000000006020808301919091527f0000000000000000000000000000000000000000000000000000000000000000828401527f000000000000000000000000000000000000000000000000000000000000000060608301524660808301523060a0808401919091528351808403909101815260c0909201909252805191012090565b611ce1612a3d565b600480547fffffffffffffffffffffffffffffffffffffffffffffffffffffffffffffff001690557f5db9ee0a495bf2e6ff9c91a7834c1ba4fdd244a5e8aa4e537bd38aeae4b073aa335b60405173ffffffffffffffffffffffffffffffffffffffff909116815260200160405180910390a1565b6040517faabbb8ca00000000000000000000000000000000000000000000000000000000815273ffffffffffffffffffffffffffffffffffffffff7f000000000000000000000000000000000000000000000000000000000000000016600482015260248101829052600090731820a4b7618bde71dce8cdc73aab6c95905fad249063aabbb8ca9060440160206040518083038186803b158015611df957600080fd5b505afa158015611e0d573d6000803e3d6000fd5b505050506040513d601f19601f820116820180604052508101906111c19190613506565b600073ffffffffffffffffffffffffffffffffffffffff8316611eb0576040517f08c379a000000000000000000000000000000000000000000000000000000000815260206004820152601f60248201527f45524332303a206d696e7420746f20746865207a65726f2061646472657373006044820152606401610704565b6000611ebe6000858561233c565b90508060036000828254611ed291906134ee565b909155505073ffffffffffffffffffffffffffffffffffffffff841660009081526001602052604081208054839290611f0c9084906134ee565b909155505060405183815273ffffffffffffffffffffffffffffffffffffffff8516906000907fddf252ad1be2c89b69c2b068fc378daa952ba7f163c4a11628f55a4df523b3ef9060200160405180910390a39392505050565b600080611f758460008561233c565b73ffffffffffffffffffffffffffffffffffffffff85166000908152600160205260409020549091508181101561202e576040517f08c379a000000000000000000000000000000000000000000000000000000000815260206004820152602260248201527f45524332303a206275726e20616d6f756e7420657863656564732062616c616e60448201527f63650000000000000000000000000000000000000000000000000000000000006064820152608401610704565b73ffffffffffffffffffffffffffffffffffffffff8516600090815260016020526040812083830390556003805484929061206a90849061359b565b909155505060405184815260009073ffffffffffffffffffffffffffffffffffffffff8716907fddf252ad1be2c89b69c2b068fc378daa952ba7f163c4a11628f55a4df523b3ef9060200160405180910390a3509392505050565b6120cd612aa9565b600480547fffffffffffffffffffffffffffffffffffffffffffffffffffffffffffffff001660011790557f62e78cea01bee320cd4e420270b5ea74000d11b0c9f74754ebdbfc544b05a258611d2c3390565b600061214a7ff86c915dad5894faca0dfa067c58fdf4307406d255ed0a65db394f82b77f53d45490565b73ffffffffffffffffffffffffffffffffffffffff16146121ed576040517f08c379a000000000000000000000000000000000000000000000000000000000815260206004820152602860248201527f43616e206f6e6c792062652063616c6c656420647572696e6720696e6974696160448201527f6c697a6174696f6e0000000000000000000000000000000000000000000000006064820152608401610704565b6121f681612b16565b6040517f5df8122f00000000000000000000000000000000000000000000000000000000815230600482015273ffffffffffffffffffffffffffffffffffffffff7f0000000000000000000000000000000000000000000000000000000000000000166024820152731820a4b7618bde71dce8cdc73aab6c95905fad2490635df8122f90604401600060405180830381600087803b15801561229757600080fd5b505af1158015610730573d6000803e3d6000fd5b60006111c16122b8611ba5565b836040517f19010000000000000000000000000000000000000000000000000000000000006020820152602281018390526042810182905260009060620160405160208183030381529060405280519060200120905092915050565b600080600061232587878787612d11565b9150915061233281612e29565b5095945050505050565b6000612346612aa9565b5092915050565b600060ff821683811b9081901c8414611193576040517f08c379a0000000000000000000000000000000000000000000000000000000008152602060048201526024808201527f76616c756520746f6f206c617267652c207368696674206f7574206f6620626f60448201527f756e6473000000000000000000000000000000000000000000000000000000006064820152608401610704565b6000828160ff84166123f9838061355e565b901c9150612417826f03442c4e6074a82f1797f72ac000000061355e565b61242190826134ee565b905060ff8416612431868461355e565b901c915061244f826f0116b96f757c380fb287fd0e4000000061355e565b61245990826134ee565b905060ff8416612469868461355e565b901c9150612486826e45ae5bdd5f0e03eca1ff439000000061355e565b61249090826134ee565b905060ff84166124a0868461355e565b901c91506124bd826e0defabf91302cd95b9ffda5000000061355e565b6124c790826134ee565b905060ff84166124d7868461355e565b901c91506124f4826e02529ca9832b22439efff9b800000061355e565b6124fe90826134ee565b905060ff841661250e868461355e565b901c915061252a826d54f1cf12bd04e516b6da8800000061355e565b61253490826134ee565b905060ff8416612544868461355e565b901c9150612560826d0a9e39e257a09ca2d6db5100000061355e565b61256a90826134ee565b905060ff841661257a868461355e565b901c9150612596826d012e066e7b839fa050c30900000061355e565b6125a090826134ee565b905060ff84166125b0868461355e565b901c91506125cb826c1e33d7d926c329a1ad1a80000061355e565b6125d590826134ee565b905060ff84166125e5868461355e565b901c9150612600826c02bee513bdb4a6b19b5f80000061355e565b61260a90826134ee565b905060ff841661261a868461355e565b901c9150612634826b3a9316fa79b88eccf2a0000061355e565b61263e90826134ee565b905060ff841661264e868461355e565b901c9150612668826b048177ebe1fa81237520000061355e565b61267290826134ee565b905060ff8416612682868461355e565b901c915061269b826a5263fe90242dcbacf0000061355e565b6126a590826134ee565b905060ff84166126b5868461355e565b901c91506126ce826a057e22099c030d9410000061355e565b6126d890826134ee565b905060ff84166126e8868461355e565b901c9150612700826957e22099c030d941000061355e565b61270a90826134ee565b905060ff841661271a868461355e565b901c91506127328269052b6b5456997631000061355e565b61273c90826134ee565b905060ff841661274c868461355e565b901c915061276382684985f67696bf74800061355e565b61276d90826134ee565b905060ff841661277d868461355e565b901c9150612794826803dea12ea99e49800061355e565b61279e90826134ee565b905060ff84166127ae868461355e565b901c91506127c4826731880f2214b6e00061355e565b6127ce90826134ee565b905060ff84166127de868461355e565b901c91506127f48267025bcff56eb3600061355e565b6127fe90826134ee565b905060ff841661280e868461355e565b901c915061282382661b722e10ab100061355e565b61282d90826134ee565b905060ff841661283d868461355e565b901c9150612852826601317c7007700061355e565b61285c90826134ee565b905060ff841661286c868461355e565b901c915061288082650cba84aafa0061355e565b61288a90826134ee565b905060ff841661289a868461355e565b901c91506128ad826482573a0a0061355e565b6128b790826134ee565b905060ff84166128c7868461355e565b901c91506128da826405035ad90061355e565b6128e490826134ee565b905060ff84166128f4868461355e565b901c915061290682632f881b0061355e565b61291090826134ee565b905060ff8416612920868461355e565b901c9150612932826301b2934061355e565b61293c90826134ee565b905060ff841661294c868461355e565b901c915061295d82620efc4061355e565b61296790826134ee565b905060ff8416612977868461355e565b901c915061298782617fe061355e565b61299190826134ee565b905060ff84166129a1868461355e565b901c91506129b18261042061355e565b6129bb90826134ee565b905060ff84166129cb868461355e565b901c91506129da82602161355e565b6129e490826134ee565b905060ff84166129f4868461355e565b901c9150612a0382600161355e565b612a0d90826134ee565b905084612a2a6f0688589cc0e9505e2f2fee558000000083613523565b612a3491906134ee565b95945050505050565b60045460ff16610f31576040517f08c379a000000000000000000000000000000000000000000000000000000000815260206004820152601460248201527f5061757361626c653a206e6f74207061757365640000000000000000000000006044820152606401610704565b60045460ff1615610f31576040517f08c379a000000000000000000000000000000000000000000000000000000000815260206004820152601060248201527f5061757361626c653a20706175736564000000000000000000000000000000006044820152606401610704565b6000612b407ff86c915dad5894faca0dfa067c58fdf4307406d255ed0a65db394f82b77f53d45490565b73ffffffffffffffffffffffffffffffffffffffff1614612be3576040517f08c379a000000000000000000000000000000000000000000000000000000000815260206004820152602860248201527f43616e206f6e6c792062652063616c6c656420647572696e6720696e6974696160448201527f6c697a6174696f6e0000000000000000000000000000000000000000000000006064820152608401610704565b60008173ffffffffffffffffffffffffffffffffffffffff16635c60da1b6040518163ffffffff1660e01b815260040160206040518083038186803b158015612c2b57600080fd5b505afa158015612c3f573d6000803e3d6000fd5b505050506040513d601f19601f82011682018060405250810190612c639190613506565b905073ffffffffffffffffffffffffffffffffffffffff8116612d08576040517f08c379a000000000000000000000000000000000000000000000000000000000815260206004820152602c60248201527f696e697469616c697a6174696f6e206661696c7572653a206e6f7468696e672060448201527f746f20696d706c656d656e7400000000000000000000000000000000000000006064820152608401610704565b61154381613085565b6000807f7fffffffffffffffffffffffffffffff5d576e7357a4501ddfe92f46681b20a0831115612d485750600090506003612e20565b8460ff16601b14158015612d6057508460ff16601c14155b15612d715750600090506004612e20565b6040805160008082526020820180845289905260ff881692820192909252606081018690526080810185905260019060a0016020604051602081039080840390855afa158015612dc5573d6000803e3d6000fd5b50506040517fffffffffffffffffffffffffffffffffffffffffffffffffffffffffffffffe0015191505073ffffffffffffffffffffffffffffffffffffffff8116612e1957600060019250925050612e20565b9150600090505b94509492505050565b6000816004811115612e3d57612e3d6135b2565b1415612e465750565b6001816004811115612e5a57612e5a6135b2565b1415612ec2576040517f08c379a000000000000000000000000000000000000000000000000000000000815260206004820152601860248201527f45434453413a20696e76616c6964207369676e617475726500000000000000006044820152606401610704565b6002816004811115612ed657612ed66135b2565b1415612f3e576040517f08c379a000000000000000000000000000000000000000000000000000000000815260206004820152601f60248201527f45434453413a20696e76616c6964207369676e6174757265206c656e677468006044820152606401610704565b6003816004811115612f5257612f526135b2565b1415612fe0576040517f08c379a000000000000000000000000000000000000000000000000000000000815260206004820152602260248201527f45434453413a20696e76616c6964207369676e6174757265202773272076616c60448201527f75650000000000000000000000000000000000000000000000000000000000006064820152608401610704565b6004816004811115612ff457612ff46135b2565b1415613082576040517f08c379a000000000000000000000000000000000000000000000000000000000815260206004820152602260248201527f45434453413a20696e76616c6964207369676e6174757265202776272076616c60448201527f75650000000000000000000000000000000000000000000000000000000000006064820152608401610704565b50565b8073ffffffffffffffffffffffffffffffffffffffff166130c47ff86c915dad5894faca0dfa067c58fdf4307406d255ed0a65db394f82b77f53d45490565b73ffffffffffffffffffffffffffffffffffffffff161415613142576040517f08c379a000000000000000000000000000000000000000000000000000000000815260206004820152601f60248201527f496d706c656d656e746174696f6e20616c7265616479206d61746368696e67006044820152606401610704565b7ff86c915dad5894faca0dfa067c58fdf4307406d255ed0a65db394f82b77f53d455565b600060208083528351808285015260005b8181101561319357858101830151858201604001528201613177565b818111156131a5576000604083870101525b50601f017fffffffffffffffffffffffffffffffffffffffffffffffffffffffffffffffe016929092016040019392505050565b73ffffffffffffffffffffffffffffffffffffffff8116811461308257600080fd5b6000806040838503121561320e57600080fd5b8235613219816131d9565b946020939093013593505050565b7f4e487b7100000000000000000000000000000000000000000000000000000000600052604160045260246000fd5b6000806040838503121561326957600080fd5b8235613274816131d9565b9150602083013567ffffffffffffffff8082111561329157600080fd5b818501915085601f8301126132a557600080fd5b8135818111156132b7576132b7613227565b604051601f82017fffffffffffffffffffffffffffffffffffffffffffffffffffffffffffffffe0908116603f011681019083821181831017156132fd576132fd613227565b8160405282815288602084870101111561331657600080fd5b8260208601602083013760006020848301015280955050505050509250929050565b60008060006060848603121561334d57600080fd5b8335613358816131d9565b92506020840135613368816131d9565b929592945050506040919091013590565b6000806040838503121561338c57600080fd5b82359150602083013561339e816131d9565b809150509250929050565b6000602082840312156133bb57600080fd5b8135611193816131d9565b600080604083850312156133d957600080fd5b50508035926020909101359150565b6000602082840312156133fa57600080fd5b5035919050565b600080600080600080600060e0888a03121561341c57600080fd5b8735613427816131d9565b96506020880135613437816131d9565b95506040880135945060608801359350608088013560ff8116811461345b57600080fd5b9699959850939692959460a0840135945060c09093013592915050565b6000806040838503121561348b57600080fd5b8235613496816131d9565b9150602083013561339e816131d9565b6000602082840312156134b857600080fd5b5051919050565b7f4e487b7100000000000000000000000000000000000000000000000000000000600052601160045260246000fd5b60008219821115613501576135016134bf565b500190565b60006020828403121561351857600080fd5b8151611193816131d9565b600082613559577f4e487b7100000000000000000000000000000000000000000000000000000000600052601260045260246000fd5b500490565b6000817fffffffffffffffffffffffffffffffffffffffffffffffffffffffffffffffff0483118215151615613596576135966134bf565b500290565b6000828210156135ad576135ad6134bf565b500390565b7f4e487b7100000000000000000000000000000000000000000000000000000000600052602160045260246000fdfea164736f6c6343000809000af86c915dad5894faca0dfa067c58fdf4307406d255ed0a65db394f82b77f53d4",
  "linkReferences": {},
  "deployedLinkReferences": {}
}