{
  "_format": "hh-sol-artifact-1",
  "contractName": "ECOxStaking",
  "sourceName": "contracts/governance/community/ECOxStaking.sol",
  "abi": [
    {
      "inputs": [
        {
          "internalType": "contract Policy",
          "name": "_policy",
          "type": "address"
        },
        {
          "internalType": "contract IERC20",
          "name": "_ecoXAddr",
          "type": "address"
        }
      ],
      "stateMutability": "nonpayable",
      "type": "constructor"
    },
    {
      "anonymous": false,
      "inputs": [
        {
          "indexed": true,
          "internalType": "address",
          "name": "owner",
          "type": "address"
        },
        {
          "indexed": true,
          "internalType": "address",
          "name": "spender",
          "type": "address"
        },
        {
          "indexed": false,
          "internalType": "uint256",
          "name": "value",
          "type": "uint256"
        }
      ],
      "name": "Approval",
      "type": "event"
    },
    {
      "anonymous": false,
      "inputs": [
        {
          "indexed": true,
          "internalType": "address",
          "name": "delegator",
          "type": "address"
        },
        {
          "indexed": true,
          "internalType": "address",
          "name": "delegatee",
          "type": "address"
        },
        {
          "indexed": false,
          "internalType": "uint256",
          "name": "amount",
          "type": "uint256"
        }
      ],
      "name": "DelegatedVotes",
      "type": "event"
    },
    {
      "anonymous": false,
      "inputs": [
        {
          "indexed": true,
          "internalType": "address",
          "name": "source",
          "type": "address"
        },
        {
          "indexed": false,
          "internalType": "uint256",
          "name": "amount",
          "type": "uint256"
        }
      ],
      "name": "Deposit",
      "type": "event"
    },
    {
      "anonymous": false,
      "inputs": [
        {
          "indexed": true,
          "internalType": "address",
          "name": "delegator",
          "type": "address"
        },
        {
          "indexed": true,
          "internalType": "address",
          "name": "primaryDelegate",
          "type": "address"
        }
      ],
      "name": "NewPrimaryDelegate",
      "type": "event"
    },
    {
      "anonymous": false,
      "inputs": [
        {
          "indexed": false,
          "internalType": "address",
          "name": "account",
          "type": "address"
        }
      ],
      "name": "Paused",
      "type": "event"
    },
    {
      "anonymous": false,
      "inputs": [
        {
          "indexed": true,
          "internalType": "address",
          "name": "pauser",
          "type": "address"
        }
      ],
      "name": "PauserAssignment",
      "type": "event"
    },
    {
      "anonymous": false,
      "inputs": [
        {
          "indexed": true,
          "internalType": "address",
          "name": "from",
          "type": "address"
        },
        {
          "indexed": true,
          "internalType": "address",
          "name": "to",
          "type": "address"
        },
        {
          "indexed": false,
          "internalType": "uint256",
          "name": "value",
          "type": "uint256"
        }
      ],
      "name": "Transfer",
      "type": "event"
    },
    {
      "anonymous": false,
      "inputs": [
        {
          "indexed": false,
          "internalType": "address",
          "name": "account",
          "type": "address"
        }
      ],
      "name": "Unpaused",
      "type": "event"
    },
    {
      "anonymous": false,
      "inputs": [
        {
          "indexed": true,
          "internalType": "address",
          "name": "voter",
          "type": "address"
        },
        {
          "indexed": false,
          "internalType": "uint256",
          "name": "newVotes",
          "type": "uint256"
        }
      ],
      "name": "UpdatedVotes",
      "type": "event"
    },
    {
      "anonymous": false,
      "inputs": [
        {
          "indexed": true,
          "internalType": "address",
          "name": "destination",
          "type": "address"
        },
        {
          "indexed": false,
          "internalType": "uint256",
          "name": "amount",
          "type": "uint256"
        }
      ],
      "name": "Withdrawal",
      "type": "event"
    },
    {
      "inputs": [],
      "name": "DOMAIN_SEPARATOR",
      "outputs": [
        {
          "internalType": "bytes32",
          "name": "",
          "type": "bytes32"
        }
      ],
      "stateMutability": "view",
      "type": "function"
    },
    {
      "inputs": [],
      "name": "GENERATION_START",
      "outputs": [
        {
          "internalType": "uint256",
          "name": "",
          "type": "uint256"
        }
      ],
      "stateMutability": "view",
      "type": "function"
    },
    {
      "inputs": [],
      "name": "MIN_GENERATION_DURATION",
      "outputs": [
        {
          "internalType": "uint256",
          "name": "",
          "type": "uint256"
        }
      ],
      "stateMutability": "view",
      "type": "function"
    },
    {
      "inputs": [
        {
          "internalType": "address",
          "name": "owner",
          "type": "address"
        },
        {
          "internalType": "address",
          "name": "spender",
          "type": "address"
        }
      ],
      "name": "allowance",
      "outputs": [
        {
          "internalType": "uint256",
          "name": "",
          "type": "uint256"
        }
      ],
      "stateMutability": "view",
      "type": "function"
    },
    {
      "inputs": [
        {
          "internalType": "address",
          "name": "spender",
          "type": "address"
        },
        {
          "internalType": "uint256",
          "name": "amount",
          "type": "uint256"
        }
      ],
      "name": "approve",
      "outputs": [
        {
          "internalType": "bool",
          "name": "",
          "type": "bool"
        }
      ],
      "stateMutability": "nonpayable",
      "type": "function"
    },
    {
      "inputs": [
        {
          "internalType": "address",
          "name": "account",
          "type": "address"
        }
      ],
      "name": "balanceOf",
      "outputs": [
        {
          "internalType": "uint256",
          "name": "",
          "type": "uint256"
        }
      ],
      "stateMutability": "view",
      "type": "function"
    },
    {
      "inputs": [
        {
          "internalType": "bytes32",
          "name": "",
          "type": "bytes32"
        },
        {
          "internalType": "address",
          "name": "_addr",
          "type": "address"
        }
      ],
      "name": "canImplementInterfaceForAddress",
      "outputs": [
        {
          "internalType": "bytes32",
          "name": "",
          "type": "bytes32"
        }
      ],
      "stateMutability": "view",
      "type": "function"
    },
    {
      "inputs": [
        {
          "internalType": "address",
          "name": "",
          "type": "address"
        },
        {
          "internalType": "uint256",
          "name": "",
          "type": "uint256"
        }
      ],
      "name": "checkpoints",
      "outputs": [
        {
          "internalType": "uint32",
          "name": "fromBlock",
          "type": "uint32"
        },
        {
          "internalType": "uint224",
          "name": "value",
          "type": "uint224"
        }
      ],
      "stateMutability": "view",
      "type": "function"
    },
    {
      "inputs": [],
      "name": "clone",
      "outputs": [
        {
          "internalType": "address",
          "name": "",
          "type": "address"
        }
      ],
      "stateMutability": "nonpayable",
      "type": "function"
    },
    {
      "inputs": [],
      "name": "decimals",
      "outputs": [
        {
          "internalType": "uint8",
          "name": "",
          "type": "uint8"
        }
      ],
      "stateMutability": "view",
      "type": "function"
    },
    {
      "inputs": [
        {
          "internalType": "address",
          "name": "spender",
          "type": "address"
        },
        {
          "internalType": "uint256",
          "name": "subtractedValue",
          "type": "uint256"
        }
      ],
      "name": "decreaseAllowance",
      "outputs": [
        {
          "internalType": "bool",
          "name": "",
          "type": "bool"
        }
      ],
      "stateMutability": "nonpayable",
      "type": "function"
    },
    {
      "inputs": [
        {
          "internalType": "address",
          "name": "delegatee",
          "type": "address"
        }
      ],
      "name": "delegate",
      "outputs": [],
      "stateMutability": "nonpayable",
      "type": "function"
    },
    {
      "inputs": [
        {
          "internalType": "address",
          "name": "delegatee",
          "type": "address"
        },
        {
          "internalType": "uint256",
          "name": "amount",
          "type": "uint256"
        }
      ],
      "name": "delegateAmount",
      "outputs": [],
      "stateMutability": "nonpayable",
      "type": "function"
    },
    {
      "inputs": [
        {
          "internalType": "address",
          "name": "delegator",
          "type": "address"
        },
        {
          "internalType": "address",
          "name": "delegatee",
          "type": "address"
        },
        {
          "internalType": "uint256",
          "name": "deadline",
          "type": "uint256"
        },
        {
          "internalType": "uint8",
          "name": "v",
          "type": "uint8"
        },
        {
          "internalType": "bytes32",
          "name": "r",
          "type": "bytes32"
        },
        {
          "internalType": "bytes32",
          "name": "s",
          "type": "bytes32"
        }
      ],
      "name": "delegateBySig",
      "outputs": [],
      "stateMutability": "nonpayable",
      "type": "function"
    },
    {
      "inputs": [
        {
          "internalType": "address",
          "name": "",
          "type": "address"
        }
      ],
      "name": "delegationFromAddressDisabled",
      "outputs": [
        {
          "internalType": "bool",
          "name": "",
          "type": "bool"
        }
      ],
      "stateMutability": "view",
      "type": "function"
    },
    {
      "inputs": [
        {
          "internalType": "address",
          "name": "owner",
          "type": "address"
        }
      ],
      "name": "delegationNonce",
      "outputs": [
        {
          "internalType": "uint256",
          "name": "",
          "type": "uint256"
        }
      ],
      "stateMutability": "view",
      "type": "function"
    },
    {
      "inputs": [
        {
          "internalType": "address",
          "name": "",
          "type": "address"
        }
      ],
      "name": "delegationToAddressEnabled",
      "outputs": [
        {
          "internalType": "bool",
          "name": "",
          "type": "bool"
        }
      ],
      "stateMutability": "view",
      "type": "function"
    },
    {
      "inputs": [
        {
          "internalType": "uint256",
          "name": "_amount",
          "type": "uint256"
        }
      ],
      "name": "deposit",
      "outputs": [],
      "stateMutability": "nonpayable",
      "type": "function"
    },
    {
      "inputs": [],
      "name": "disableDelegationTo",
      "outputs": [],
      "stateMutability": "nonpayable",
      "type": "function"
    },
    {
      "inputs": [],
      "name": "ecoXToken",
      "outputs": [
        {
          "internalType": "contract IERC20",
          "name": "",
          "type": "address"
        }
      ],
      "stateMutability": "view",
      "type": "function"
    },
    {
      "inputs": [],
      "name": "enableDelegationTo",
      "outputs": [],
      "stateMutability": "nonpayable",
      "type": "function"
    },
    {
      "inputs": [
        {
          "internalType": "uint256",
          "name": "blockNumber",
          "type": "uint256"
        }
      ],
      "name": "getPastTotalSupply",
      "outputs": [
        {
          "internalType": "uint256",
          "name": "",
          "type": "uint256"
        }
      ],
      "stateMutability": "view",
      "type": "function"
    },
    {
      "inputs": [
        {
          "internalType": "address",
          "name": "_owner",
          "type": "address"
        },
        {
          "internalType": "uint256",
          "name": "_blockNumber",
          "type": "uint256"
        }
      ],
      "name": "getPastVotes",
      "outputs": [
        {
          "internalType": "uint256",
          "name": "",
          "type": "uint256"
        }
      ],
      "stateMutability": "view",
      "type": "function"
    },
    {
      "inputs": [
        {
          "internalType": "address",
          "name": "account",
          "type": "address"
        },
        {
          "internalType": "uint256",
          "name": "blockNumber",
          "type": "uint256"
        }
      ],
      "name": "getPastVotingGons",
      "outputs": [
        {
          "internalType": "uint256",
          "name": "",
          "type": "uint256"
        }
      ],
      "stateMutability": "view",
      "type": "function"
    },
    {
      "inputs": [
        {
          "internalType": "address",
          "name": "account",
          "type": "address"
        }
      ],
      "name": "getPrimaryDelegate",
      "outputs": [
        {
          "internalType": "address",
          "name": "",
          "type": "address"
        }
      ],
      "stateMutability": "view",
      "type": "function"
    },
    {
      "inputs": [
        {
          "internalType": "address",
          "name": "account",
          "type": "address"
        }
      ],
      "name": "getVotingGons",
      "outputs": [
        {
          "internalType": "uint256",
          "name": "",
          "type": "uint256"
        }
      ],
      "stateMutability": "view",
      "type": "function"
    },
    {
      "inputs": [],
      "name": "implementation",
      "outputs": [
        {
          "internalType": "address",
          "name": "_impl",
          "type": "address"
        }
      ],
      "stateMutability": "view",
      "type": "function"
    },
    {
      "inputs": [
        {
          "internalType": "address",
          "name": "spender",
          "type": "address"
        },
        {
          "internalType": "uint256",
          "name": "addedValue",
          "type": "uint256"
        }
      ],
      "name": "increaseAllowance",
      "outputs": [
        {
          "internalType": "bool",
          "name": "",
          "type": "bool"
        }
      ],
      "stateMutability": "nonpayable",
      "type": "function"
    },
    {
      "inputs": [
        {
          "internalType": "address",
          "name": "_self",
          "type": "address"
        }
      ],
      "name": "initialize",
      "outputs": [],
      "stateMutability": "nonpayable",
      "type": "function"
    },
    {
      "inputs": [
        {
          "internalType": "address",
          "name": "account",
          "type": "address"
        }
      ],
      "name": "isOwnDelegate",
      "outputs": [
        {
          "internalType": "bool",
          "name": "",
          "type": "bool"
        }
      ],
      "stateMutability": "view",
      "type": "function"
    },
    {
      "inputs": [],
      "name": "name",
      "outputs": [
        {
          "internalType": "string",
          "name": "",
          "type": "string"
        }
      ],
      "stateMutability": "view",
      "type": "function"
    },
    {
      "inputs": [
        {
          "internalType": "address",
          "name": "owner",
          "type": "address"
        }
      ],
      "name": "nonces",
      "outputs": [
        {
          "internalType": "uint256",
          "name": "",
          "type": "uint256"
        }
      ],
      "stateMutability": "view",
      "type": "function"
    },
    {
      "inputs": [
        {
          "internalType": "address",
          "name": "account",
          "type": "address"
        }
      ],
      "name": "numCheckpoints",
      "outputs": [
        {
          "internalType": "uint32",
          "name": "",
          "type": "uint32"
        }
      ],
      "stateMutability": "view",
      "type": "function"
    },
    {
      "inputs": [],
      "name": "pause",
      "outputs": [],
      "stateMutability": "nonpayable",
      "type": "function"
    },
    {
      "inputs": [],
      "name": "paused",
      "outputs": [
        {
          "internalType": "bool",
          "name": "",
          "type": "bool"
        }
      ],
      "stateMutability": "view",
      "type": "function"
    },
    {
      "inputs": [],
      "name": "pauser",
      "outputs": [
        {
          "internalType": "address",
          "name": "",
          "type": "address"
        }
      ],
      "stateMutability": "view",
      "type": "function"
    },
    {
      "inputs": [
        {
          "internalType": "address",
          "name": "owner",
          "type": "address"
        },
        {
          "internalType": "address",
          "name": "spender",
          "type": "address"
        },
        {
          "internalType": "uint256",
          "name": "value",
          "type": "uint256"
        },
        {
          "internalType": "uint256",
          "name": "deadline",
          "type": "uint256"
        },
        {
          "internalType": "uint8",
          "name": "v",
          "type": "uint8"
        },
        {
          "internalType": "bytes32",
          "name": "r",
          "type": "bytes32"
        },
        {
          "internalType": "bytes32",
          "name": "s",
          "type": "bytes32"
        }
      ],
      "name": "permit",
      "outputs": [],
      "stateMutability": "nonpayable",
      "type": "function"
    },
    {
      "inputs": [],
      "name": "policy",
      "outputs": [
        {
          "internalType": "contract Policy",
          "name": "",
          "type": "address"
        }
      ],
      "stateMutability": "view",
      "type": "function"
    },
    {
      "inputs": [
        {
          "internalType": "address",
          "name": "_delegate",
          "type": "address"
        },
        {
          "internalType": "bytes",
          "name": "_data",
          "type": "bytes"
        }
      ],
      "name": "policyCommand",
      "outputs": [],
      "stateMutability": "nonpayable",
      "type": "function"
    },
    {
      "inputs": [],
      "name": "reenableDelegating",
      "outputs": [],
      "stateMutability": "nonpayable",
      "type": "function"
    },
    {
      "inputs": [],
      "name": "roleAdmin",
      "outputs": [
        {
          "internalType": "address",
          "name": "",
          "type": "address"
        }
      ],
      "stateMutability": "view",
      "type": "function"
    },
    {
      "inputs": [
        {
          "internalType": "address",
          "name": "_addr",
          "type": "address"
        }
      ],
      "name": "setExpectedInterfaceSet",
      "outputs": [],
      "stateMutability": "nonpayable",
      "type": "function"
    },
    {
      "inputs": [
        {
          "internalType": "address",
          "name": "_pauser",
          "type": "address"
        }
      ],
      "name": "setPauser",
      "outputs": [],
      "stateMutability": "nonpayable",
      "type": "function"
    },
    {
      "inputs": [],
      "name": "symbol",
      "outputs": [
        {
          "internalType": "string",
          "name": "",
          "type": "string"
        }
      ],
      "stateMutability": "view",
      "type": "function"
    },
    {
      "inputs": [],
      "name": "totalSupply",
      "outputs": [
        {
          "internalType": "uint256",
          "name": "",
          "type": "uint256"
        }
      ],
      "stateMutability": "view",
      "type": "function"
    },
    {
      "inputs": [
        {
          "internalType": "uint256",
          "name": "_blockNumber",
          "type": "uint256"
        }
      ],
      "name": "totalSupplyAt",
      "outputs": [
        {
          "internalType": "uint256",
          "name": "",
          "type": "uint256"
        }
      ],
      "stateMutability": "view",
      "type": "function"
    },
    {
      "inputs": [
        {
          "internalType": "uint256",
          "name": "_blockNumber",
          "type": "uint256"
        }
      ],
      "name": "totalVotingECOx",
      "outputs": [
        {
          "internalType": "uint256",
          "name": "",
          "type": "uint256"
        }
      ],
      "stateMutability": "view",
      "type": "function"
    },
    {
      "inputs": [
        {
          "internalType": "address",
          "name": "",
          "type": "address"
        },
        {
          "internalType": "uint256",
          "name": "",
          "type": "uint256"
        }
      ],
      "name": "transfer",
      "outputs": [
        {
          "internalType": "bool",
          "name": "",
          "type": "bool"
        }
      ],
      "stateMutability": "pure",
      "type": "function"
    },
    {
      "inputs": [
        {
          "internalType": "address",
          "name": "",
          "type": "address"
        },
        {
          "internalType": "address",
          "name": "",
          "type": "address"
        },
        {
          "internalType": "uint256",
          "name": "",
          "type": "uint256"
        }
      ],
      "name": "transferFrom",
      "outputs": [
        {
          "internalType": "bool",
          "name": "",
          "type": "bool"
        }
      ],
      "stateMutability": "pure",
      "type": "function"
    },
    {
      "inputs": [],
      "name": "undelegate",
      "outputs": [],
      "stateMutability": "nonpayable",
      "type": "function"
    },
    {
      "inputs": [
        {
          "internalType": "address",
          "name": "delegatee",
          "type": "address"
        },
        {
          "internalType": "uint256",
          "name": "amount",
          "type": "uint256"
        }
      ],
      "name": "undelegateAmountFromAddress",
      "outputs": [],
      "stateMutability": "nonpayable",
      "type": "function"
    },
    {
      "inputs": [
        {
          "internalType": "address",
          "name": "delegatee",
          "type": "address"
        }
      ],
      "name": "undelegateFromAddress",
      "outputs": [],
      "stateMutability": "nonpayable",
      "type": "function"
    },
    {
      "inputs": [],
      "name": "unpause",
      "outputs": [],
      "stateMutability": "nonpayable",
      "type": "function"
    },
    {
      "inputs": [
        {
          "internalType": "address",
          "name": "_voter",
          "type": "address"
        },
        {
          "internalType": "uint256",
          "name": "_blockNumber",
          "type": "uint256"
        }
      ],
      "name": "votingECOx",
      "outputs": [
        {
          "internalType": "uint256",
          "name": "",
          "type": "uint256"
        }
      ],
      "stateMutability": "view",
      "type": "function"
    },
    {
      "inputs": [
        {
          "internalType": "uint256",
          "name": "_amount",
          "type": "uint256"
        }
      ],
      "name": "withdraw",
      "outputs": [],
      "stateMutability": "nonpayable",
      "type": "function"
    }
  ],
  "bytecode": "0x6102006040527f6e71edae12b1b97f4d1f60370fef10105fa2faae0126114a169c64845d6126c9610140523480156200003757600080fd5b5060405162004fbe38038062004fbe8339810160408190526200005a91620004ea565b604080518082018252600b81526a0a6e8c2d6cac8408a869ef60ab1b60208083019182528351808501855260058152640e68a869ef60db1b818301528451808601865260018152603160f81b90830152835190922060e08190527fc89efdaa54c0f20c7adf612882df0950f5a951637e0307cdcb4c672f298b8bc66101008190524660a081815287517f8b73c3c69bb8fe3d512ecc4cf759cc79239f7b179b0ffacaa9a75d522b39400f818701819052818a01959095526060810193909352608080840192909252308382018190528851808503909201825260c09384019098528051908501209052949094526101209390935284928392919083906000908490849084908490849084906200017b908390620025306200042a821b17901c565b610160818152505062000199816200042a60201b620025301760201c565b6101805250506004805460ff191690556001600160a01b0382166200022b5760405162461bcd60e51b815260206004820152603c60248201527f556e7265636f76657261626c653a20646f206e6f742073657420746865205f7260448201527f6f6c6541646d696e20617320746865207a65726f20616464726573730000000060648201526084015b60405180910390fd5b6001600160a01b038281166101a05260048054610100600160a81b0319166101009284169283021790556040517fc1c43aa8035756476ab2ca6cfd05434a7fd574b0f3b39c7174828b1fb82acd3e90600090a2505050505050505062000297306200044360201b60201c565b6001600160a01b038116620003155760405162461bcd60e51b815260206004820152603860248201527f556e7265636f76657261626c653a20646f206e6f74207365742074686520706f60448201527f6c69637920617320746865207a65726f20616464726573730000000000000000606482015260840162000222565b6001600160a01b0381166101c0819052604051635df8122f60e01b81523060048201526024810191909152731820a4b7618bde71dce8cdc73aab6c95905fad2490635df8122f90604401600060405180830381600087803b1580156200037a57600080fd5b505af11580156200038f573d6000803e3d6000fd5b50505050506001600160a01b03821615159050620004165760405162461bcd60e51b815260206004820152603660248201527f437269746963616c3a20646f206e6f742073657420746865205f65636f58416460448201527f647220617320746865207a65726f206164647265737300000000000000000000606482015260840162000222565b6001600160a01b03166101e0525062000529565b600060208251106200043b57600080fd5b50601f015190565b6001600160a01b0381166200046560008051602062004f9e8339815191525490565b6001600160a01b03161415620004be5760405162461bcd60e51b815260206004820152601f60248201527f496d706c656d656e746174696f6e20616c7265616479206d61746368696e6700604482015260640162000222565b60008051602062004f9e83398151915255565b6001600160a01b0381168114620004e757600080fd5b50565b60008060408385031215620004fe57600080fd5b82516200050b81620004d1565b60208401519092506200051e81620004d1565b809150509250929050565b60805160a05160c05160e05161010051610120516101405161016051610180516101a0516101c0516101e0516149b2620005ec6000396000818161050d01528181610f370152611e9b015260008181610377015281816108f201528181610bf4015281816110d801526121ed0152600081816106f30152610d3201526000611b870152600061089a015260006122cd015260006127e3015260006128320152600061280d0152600061276601526000612790015260006127ba01526149b26000f3fe608060405234801561001057600080fd5b506004361061036d5760003560e01c80636e684b9a116101d35780639fd0506d11610104578063cd3fd384116100a2578063d505accf1161007c578063d505accf14610814578063dd62ed3e14610827578063e189cba61461086d578063fc08456a1461088057600080fd5b8063cd3fd38414610580578063d088d354146107b7578063d44e2b33146107f157600080fd5b8063b20d7fa9116100de578063b20d7fa914610776578063b6b55f2514610789578063bb55ae661461079c578063c4d66de8146107a457600080fd5b80639fd0506d14610730578063a457c2d714610755578063a9059cbb1461076857600080fd5b80638d57d7481161017157806393867fb51161014b57806393867fb5146106ee57806394b7175c1461071557806395d89b4114610728578063981b24d0146105ca57600080fd5b80638d57d748146106c05780638e539e8c146106d357806392ab89bb146106e657600080fd5b80637ecebe00116101ad5780637ecebe00146106935780638456cb59146106a65780638cb17056146106ae5780638ccfc17f146106b857600080fd5b80636e684b9a146106225780636fcfff451461063557806370a082311461065d57600080fd5b806333800bac116102ad5780633f4ba83a1161024b5780635bb748ad116102255780635bb748ad146105ca5780635c19a95c146105dd5780635c60da1b146105f05780635c975abb1461061757600080fd5b80633f4ba83a146105a657806347b039bd146105ae57806353729937146105c157600080fd5b806339634e0c1161028757806339634e0c1461054a5780633a1a52421461055d5780633a46b1a8146105805780633edb7f831461059357600080fd5b806333800bac146105085780633644e5151461052f578063395093511461053757600080fd5b80630cdfebfa1161031a578063249cb3fa116102f4578063249cb3fa146104c05780632d88af4a146104d35780632e1a7d4d146104e6578063313ce567146104f957600080fd5b80630cdfebfa1461044f57806318160ddd1461049b57806323b872dd146104ad57600080fd5b8063095ea7b31161034b578063095ea7b31461041f57806309d7f23b1461043257806309ed46071461044757600080fd5b80630505c8c91461037257806306fdde03146103c3578063094bc063146103d8575b600080fd5b6103997f000000000000000000000000000000000000000000000000000000000000000081565b60405173ffffffffffffffffffffffffffffffffffffffff90911681526020015b60405180910390f35b6103cb610893565b6040516103ba919061451c565b61040f6103e63660046145b1565b73ffffffffffffffffffffffffffffffffffffffff166000908152600760205260409020541590565b60405190151581526020016103ba565b61040f61042d3660046145ce565b6108c3565b610445610440366004614629565b6108da565b005b6103996109ce565b61046261045d3660046145ce565b610b2f565b6040805163ffffffff90931683527bffffffffffffffffffffffffffffffffffffffffffffffffffffffff9091166020830152016103ba565b6003545b6040519081526020016103ba565b61040f6104bb36600461470b565b610b8b565b61049f6104ce36600461474c565b610bf0565b6104456104e13660046145b1565b610d1a565b6104456104f436600461477c565b610edf565b604051601281526020016103ba565b6103997f000000000000000000000000000000000000000000000000000000000000000081565b61049f61106d565b61040f6105453660046145ce565b611077565b6104456105583660046145b1565b6110c0565b61040f61056b3660046145b1565b600a6020526000908152604090205460ff1681565b61049f61058e3660046145ce565b6111cc565b6104456105a13660046145ce565b6111df565b61044561126e565b6104456105bc3660046145ce565b6112fe565b61049f6103e881565b61049f6105d836600461477c565b61148c565b6104456105eb3660046145b1565b611497565b7ff86c915dad5894faca0dfa067c58fdf4307406d255ed0a65db394f82b77f53d454610399565b60045460ff1661040f565b61049f6106303660046145ce565b611639565b6106486106433660046145b1565b6116f9565b60405163ffffffff90911681526020016103ba565b61049f61066b3660046145b1565b73ffffffffffffffffffffffffffffffffffffffff1660009081526001602052604090205490565b61049f6106a13660046145b1565b6117b3565b6104456117de565b61049f6212750081565b61044561186c565b6103996106ce3660046145b1565b6119bd565b61049f6106e136600461477c565b6119fa565b610445611a96565b6103997f000000000000000000000000000000000000000000000000000000000000000081565b61049f6107233660046145b1565b611b55565b6103cb611b80565b60045461039990610100900473ffffffffffffffffffffffffffffffffffffffff1681565b61040f6107633660046145ce565b611bab565b61040f6104bb3660046145ce565b6104456107843660046147ab565b611c83565b61044561079736600461477c565b611e5d565b610445611fe5565b6104456107b23660046145b1565b6120d4565b61044533600090815260096020526040902080547fffffffffffffffffffffffffffffffffffffffffffffffffffffffffffffff00169055565b61040f6107ff3660046145b1565b60096020526000908152604090205460ff1681565b61044561082236600461480e565b61225f565b61049f61083536600461487c565b73ffffffffffffffffffffffffffffffffffffffff918216600090815260026020908152604080832093909416825291909152205490565b61049f61087b3660046145b1565b61241e565b61044561088e3660046145b1565b612526565b60606108be7f0000000000000000000000000000000000000000000000000000000000000000612548565b905090565b60006108d03384846125ae565b5060015b92915050565b3373ffffffffffffffffffffffffffffffffffffffff7f000000000000000000000000000000000000000000000000000000000000000016146109a4576040517f08c379a000000000000000000000000000000000000000000000000000000000815260206004820152602d60248201527f4f6e6c792074686520706f6c69637920636f6e7472616374206d61792063616c60448201527f6c2074686973206d6574686f640000000000000000000000000000000000000060648201526084015b60405180910390fd5b600080825160208401855af43d806000803e8180156109c257816000f35b816000fd5b5050505050565b6000306109f97ff86c915dad5894faca0dfa067c58fdf4307406d255ed0a65db394f82b77f53d45490565b73ffffffffffffffffffffffffffffffffffffffff1614610a9c576040517f08c379a000000000000000000000000000000000000000000000000000000000815260206004820152602660248201527f54686973206d6574686f642063616e6e6f742062652063616c6c6564206f6e2060448201527f636c6f6e65730000000000000000000000000000000000000000000000000000606482015260840161099b565b6000610aa7306126bf565b6040517fc4d66de800000000000000000000000000000000000000000000000000000000815230600482015290915073ffffffffffffffffffffffffffffffffffffffff82169063c4d66de890602401600060405180830381600087803b158015610b1157600080fd5b505af1158015610b25573d6000803e3d6000fd5b5092949350505050565b600b6020528160005260406000208181548110610b4b57600080fd5b60009182526020909120015463ffffffff8116925064010000000090047bffffffffffffffffffffffffffffffffffffffffffffffffffffffff16905082565b6040517f08c379a000000000000000000000000000000000000000000000000000000000815260206004820152601a60248201527f7345434f78206973206e6f6e2d7472616e736665727261626c65000000000000604482015260009060640161099b565b60007f000000000000000000000000000000000000000000000000000000000000000073ffffffffffffffffffffffffffffffffffffffff168273ffffffffffffffffffffffffffffffffffffffff161480610c665750600d5473ffffffffffffffffffffffffffffffffffffffff8381169116145b610cf2576040517f08c379a000000000000000000000000000000000000000000000000000000000815260206004820152603b60248201527f4f6e6c792074686520706f6c696379206f7220696e7465726661636520636f6e60448201527f74726163742063616e207365742074686520696e746572666163650000000000606482015260840161099b565b507fa2ef4600d742022d532d4747cb3547474667d6f13804902513b2ec01c848f4b492915050565b3373ffffffffffffffffffffffffffffffffffffffff7f00000000000000000000000000000000000000000000000000000000000000001614610db9576040517f08c379a000000000000000000000000000000000000000000000000000000000815260206004820152601860248201527f45524332305061757361626c653a206e6f742061646d696e0000000000000000604482015260640161099b565b60045473ffffffffffffffffffffffffffffffffffffffff828116610100909204161415610e69576040517f08c379a000000000000000000000000000000000000000000000000000000000815260206004820152602160248201527f45524332305061757361626c653a206d757374206368616e676520706175736560448201527f7200000000000000000000000000000000000000000000000000000000000000606482015260840161099b565b600480547fffffffffffffffffffffff0000000000000000000000000000000000000000ff1661010073ffffffffffffffffffffffffffffffffffffffff8416908102919091179091556040517fc1c43aa8035756476ab2ca6cfd05434a7fd574b0f3b39c7174828b1fb82acd3e90600090a250565b33610eea8183612728565b506040517fa9059cbb00000000000000000000000000000000000000000000000000000000815273ffffffffffffffffffffffffffffffffffffffff8281166004830152602482018490527f0000000000000000000000000000000000000000000000000000000000000000169063a9059cbb90604401602060405180830381600087803b158015610f7b57600080fd5b505af1158015610f8f573d6000803e3d6000fd5b505050506040513d601f19601f82011682018060405250810190610fb391906148aa565b611019576040517f08c379a000000000000000000000000000000000000000000000000000000000815260206004820152600f60248201527f5472616e73666572204661696c65640000000000000000000000000000000000604482015260640161099b565b8073ffffffffffffffffffffffffffffffffffffffff167f7fcf532c15f0a6db0bd6d0e038bea71d30d808c7d98cb3bf7268a95bf5081b658360405161106191815260200190565b60405180910390a25050565b60006108be61274c565b33600081815260026020908152604080832073ffffffffffffffffffffffffffffffffffffffff8716845290915281205490916108d09185906110bb9086906148fb565b6125ae565b3373ffffffffffffffffffffffffffffffffffffffff7f00000000000000000000000000000000000000000000000000000000000000001614611185576040517f08c379a000000000000000000000000000000000000000000000000000000000815260206004820152602d60248201527f4f6e6c792074686520706f6c69637920636f6e7472616374206d61792063616c60448201527f6c2074686973206d6574686f6400000000000000000000000000000000000000606482015260840161099b565b600d80547fffffffffffffffffffffffff00000000000000000000000000000000000000001673ffffffffffffffffffffffffffffffffffffffff92909216919091179055565b60006111d88383611639565b9392505050565b73ffffffffffffffffffffffffffffffffffffffff821633141561125f576040517f08c379a000000000000000000000000000000000000000000000000000000000815260206004820152601b60248201527f446f206e6f742064656c656761746520746f20796f757273656c660000000000604482015260640161099b565b61126a338383612880565b5050565b600454610100900473ffffffffffffffffffffffffffffffffffffffff1633146112f4576040517f08c379a000000000000000000000000000000000000000000000000000000000815260206004820152601960248201527f45524332305061757361626c653a206e6f742070617573657200000000000000604482015260640161099b565b6112fc612b49565b565b33600090815260066020908152604080832073ffffffffffffffffffffffffffffffffffffffff861684529091529020548111156113be576040517f08c379a000000000000000000000000000000000000000000000000000000000815260206004820152602260248201527f616d6f756e74206e6f7420617661696c61626c6520746f20756e64656c65676160448201527f7465000000000000000000000000000000000000000000000000000000000000606482015260840161099b565b6113c7336119bd565b73ffffffffffffffffffffffffffffffffffffffff163373ffffffffffffffffffffffffffffffffffffffff1614611481576040517f08c379a000000000000000000000000000000000000000000000000000000000815260206004820152603d60248201527f756e64656c65676174696e6720616d6f756e7473206973206f6e6c792061766160448201527f696c61626c6520666f72207061727469616c2064656c656761746f7273000000606482015260840161099b565b61126a338383612bc6565b60006108d4826119fa565b73ffffffffffffffffffffffffffffffffffffffff811633141561153d576040517f08c379a000000000000000000000000000000000000000000000000000000000815260206004820152603060248201527f55736520756e64656c656761746520696e7374656164206f662064656c65676160448201527f74696e6720746f20796f757273656c6600000000000000000000000000000000606482015260840161099b565b73ffffffffffffffffffffffffffffffffffffffff811660009081526009602052604090205460ff166115f2576040517f08c379a000000000000000000000000000000000000000000000000000000000815260206004820152602860248201527f5072696d6172792064656c656761746573206d75737420656e61626c6520646560448201527f6c65676174696f6e000000000000000000000000000000000000000000000000606482015260840161099b565b33600090815260076020526040902054156116135761161361088e336119bd565b336000818152600160205260409020549061162f908383612880565b61126a3383612c55565b6000438211156116ca576040517f08c379a0000000000000000000000000000000000000000000000000000000008152602060048201526024808201527f566f7465436865636b706f696e74733a20626c6f636b206e6f7420796574206d60448201527f696e656400000000000000000000000000000000000000000000000000000000606482015260840161099b565b73ffffffffffffffffffffffffffffffffffffffff83166000908152600b602052604090206111d89083612d11565b73ffffffffffffffffffffffffffffffffffffffff81166000908152600b602052604081205463ffffffff8111156108d4576040517f08c379a000000000000000000000000000000000000000000000000000000000815260206004820152602d60248201527f6e756d626572206f6620636865636b706f696e74732063616e6e6f742062652060448201527f63617374656420736166656c7900000000000000000000000000000000000000606482015260840161099b565b73ffffffffffffffffffffffffffffffffffffffff81166000908152602081905260408120546108d4565b600454610100900473ffffffffffffffffffffffffffffffffffffffff163314611864576040517f08c379a000000000000000000000000000000000000000000000000000000000815260206004820152601960248201527f45524332305061757361626c653a206e6f742070617573657200000000000000604482015260640161099b565b6112fc612eb9565b33600081815260096020526040902080547fffffffffffffffffffffffffffffffffffffffffffffffffffffffffffffff001690556118aa9061241e565b336000908152600160205260409020541480156118d4575033600090815260076020526040902054155b611986576040517f08c379a000000000000000000000000000000000000000000000000000000000815260206004820152604660248201527f43616e6e6f742072652d656e61626c652064656c65676174696e67206966207960448201527f6f752068617665206f75747374616e64696e672064656c65676174696f6e732060648201527f746f20796f750000000000000000000000000000000000000000000000000000608482015260a40161099b565b336000908152600a6020526040902080547fffffffffffffffffffffffffffffffffffffffffffffffffffffffffffffff00169055565b73ffffffffffffffffffffffffffffffffffffffff80821660009081526008602052604081205490911680156119f357806111d8565b5090919050565b600043821115611a8b576040517f08c379a0000000000000000000000000000000000000000000000000000000008152602060048201526024808201527f566f7465436865636b706f696e74733a20626c6f636b206e6f7420796574206d60448201527f696e656400000000000000000000000000000000000000000000000000000000606482015260840161099b565b6108d4600c83612d11565b6000611aa1336119bd565b905073ffffffffffffffffffffffffffffffffffffffff8116331415611b49576040517f08c379a000000000000000000000000000000000000000000000000000000000815260206004820152603060248201527f4d757374207370656369666979206164647265737320776974686f757420612060448201527f5072696d6172792044656c656761746500000000000000000000000000000000606482015260840161099b565b611b5281612526565b50565b73ffffffffffffffffffffffffffffffffffffffff81166000908152600560205260408120546108d4565b60606108be7f0000000000000000000000000000000000000000000000000000000000000000612548565b33600090815260026020908152604080832073ffffffffffffffffffffffffffffffffffffffff8616845290915281205482811015611c6c576040517f08c379a000000000000000000000000000000000000000000000000000000000815260206004820152602560248201527f45524332303a2064656372656173656420616c6c6f77616e63652062656c6f7760448201527f207a65726f000000000000000000000000000000000000000000000000000000606482015260840161099b565b611c7933858584036125ae565b5060019392505050565b8473ffffffffffffffffffffffffffffffffffffffff168673ffffffffffffffffffffffffffffffffffffffff161415611d19576040517f08c379a000000000000000000000000000000000000000000000000000000000815260206004820152601b60248201527f446f206e6f742064656c656761746520746f20796f757273656c660000000000604482015260640161099b565b73ffffffffffffffffffffffffffffffffffffffff851660009081526009602052604090205460ff16611dce576040517f08c379a000000000000000000000000000000000000000000000000000000000815260206004820152602860248201527f5072696d6172792064656c656761746573206d75737420656e61626c6520646560448201527f6c65676174696f6e000000000000000000000000000000000000000000000000606482015260840161099b565b73ffffffffffffffffffffffffffffffffffffffff861660009081526007602052604090205415611e0b57611e0b86611e06886119bd565b612f14565b611e19868686868686612f99565b73ffffffffffffffffffffffffffffffffffffffff8616600090815260016020526040902054611e4a878783612880565b611e548787612c55565b50505050505050565b6040517f23b872dd000000000000000000000000000000000000000000000000000000008152336004820181905230602483015260448201839052907f000000000000000000000000000000000000000000000000000000000000000073ffffffffffffffffffffffffffffffffffffffff16906323b872dd90606401602060405180830381600087803b158015611ef457600080fd5b505af1158015611f08573d6000803e3d6000fd5b505050506040513d601f19601f82011682018060405250810190611f2c91906148aa565b611f92576040517f08c379a000000000000000000000000000000000000000000000000000000000815260206004820152600f60248201527f5472616e73666572206661696c65640000000000000000000000000000000000604482015260640161099b565b611f9c81836131e7565b508073ffffffffffffffffffffffffffffffffffffffff167fe1fffcc4923d04b559f4d29a8bfc6cda04eb5b0d3c460751c2402c5c5cc9109c8360405161106191815260200190565b3360009081526007602052604090205415612082576040517f08c379a000000000000000000000000000000000000000000000000000000000815260206004820152603b60248201527f43616e6e6f7420656e61626c652064656c65676174696f6e20696620796f752060448201527f68617665206f75747374616e64696e672064656c65676174696f6e0000000000606482015260840161099b565b336000908152600960209081526040808320805460017fffffffffffffffffffffffffffffffffffffffffffffffffffffffffffffff009182168117909255600a909352922080549091169091179055565b60006120fe7ff86c915dad5894faca0dfa067c58fdf4307406d255ed0a65db394f82b77f53d45490565b73ffffffffffffffffffffffffffffffffffffffff16146121a1576040517f08c379a000000000000000000000000000000000000000000000000000000000815260206004820152602860248201527f43616e206f6e6c792062652063616c6c656420647572696e6720696e6974696160448201527f6c697a6174696f6e000000000000000000000000000000000000000000000000606482015260840161099b565b6121aa816132b2565b6040517f5df8122f00000000000000000000000000000000000000000000000000000000815230600482015273ffffffffffffffffffffffffffffffffffffffff7f0000000000000000000000000000000000000000000000000000000000000000166024820152731820a4b7618bde71dce8cdc73aab6c95905fad2490635df8122f90604401600060405180830381600087803b15801561224b57600080fd5b505af11580156109c7573d6000803e3d6000fd5b834211156122c9576040517f08c379a000000000000000000000000000000000000000000000000000000000815260206004820152601d60248201527f45524332305065726d69743a206578706972656420646561646c696e65000000604482015260640161099b565b60007f00000000000000000000000000000000000000000000000000000000000000008888886122f88c6134ad565b60408051602081019690965273ffffffffffffffffffffffffffffffffffffffff94851690860152929091166060840152608083015260a082015260c0810186905260e0016040516020818303038152906040528051906020012090506000612360826134e3565b905060006123708287878761354c565b90508973ffffffffffffffffffffffffffffffffffffffff168173ffffffffffffffffffffffffffffffffffffffff1614612407576040517f08c379a000000000000000000000000000000000000000000000000000000000815260206004820152601e60248201527f45524332305065726d69743a20696e76616c6964207369676e61747572650000604482015260640161099b565b6124128a8a8a6125ae565b50505050505050505050565b73ffffffffffffffffffffffffffffffffffffffff81166000908152600b6020908152604080832080548251818502810185019093528083528493849084015b828210156124c0576000848152602090819020604080518082019091529084015463ffffffff8116825264010000000090047bffffffffffffffffffffffffffffffffffffffffffffffffffffffff168183015282526001909201910161245e565b5050825192935050811590506124fd57816124dc600183614913565b815181106124ec576124ec61492a565b602002602001015160200151612500565b60005b7bffffffffffffffffffffffffffffffffffffffffffffffffffffffff16949350505050565b611b523382612f14565b6000602082511061254057600080fd5b50601f015190565b606060f882901c6020811061255c57600080fd5b8067ffffffffffffffff811115612575576125756145fa565b6040519080825280601f01601f19166020018201604052801561259f576020820181803683370190505b50915082601f83015250919050565b73ffffffffffffffffffffffffffffffffffffffff8216612651576040517f08c379a000000000000000000000000000000000000000000000000000000000815260206004820152602260248201527f45524332303a20617070726f766520746f20746865207a65726f20616464726560448201527f7373000000000000000000000000000000000000000000000000000000000000606482015260840161099b565b73ffffffffffffffffffffffffffffffffffffffff83811660008181526002602090815260408083209487168084529482529182902085905590518481527f8c5be1e5ebec7d5bd14f71427d1e84f3dd0314c0f7b2291e5b200ac8c7c3b925910160405180910390a3505050565b6000808260601b90506040517f3d602d80600a3d3981f3363d3d373d3d3d363d7300000000000000000000000081528160148201527f5af43d82803e903d91602b57fd5bf3000000000000000000000000000000000060288201526037816000f0949350505050565b60006127348383613574565b9150612744600c6136df846136eb565b509092915050565b60003073ffffffffffffffffffffffffffffffffffffffff7f0000000000000000000000000000000000000000000000000000000000000000161480156127b257507f000000000000000000000000000000000000000000000000000000000000000046145b156127dc57507f000000000000000000000000000000000000000000000000000000000000000090565b50604080517f00000000000000000000000000000000000000000000000000000000000000006020808301919091527f0000000000000000000000000000000000000000000000000000000000000000828401527f000000000000000000000000000000000000000000000000000000000000000060608301524660808301523060a0808401919091528351808403909101815260c0909201909252805191012090565b73ffffffffffffffffffffffffffffffffffffffff83166000908152600760209081526040808320546001909252909120546128bc9190614913565b81111561294b576040517f08c379a000000000000000000000000000000000000000000000000000000000815260206004820152603d60248201527f4d757374206861766520616e20756e64656c65676174656420616d6f756e742060448201527f617661696c61626c6520746f20636f7665722064656c65676174696f6e000000606482015260840161099b565b73ffffffffffffffffffffffffffffffffffffffff83166000908152600a602052604090205460ff1615612a4e576040517f08c379a0000000000000000000000000000000000000000000000000000000008152602060048201526064602482018190527f43616e6e6f742064656c656761746520696620796f75206861766520656e616260448301527f6c6564207072696d6172792064656c65676174696f6e20746f20796f75727365908201527f6c6620616e642f6f722068617665206f75747374616e64696e672064656c656760848201527f617465730000000000000000000000000000000000000000000000000000000060a482015260c40161099b565b8173ffffffffffffffffffffffffffffffffffffffff168373ffffffffffffffffffffffffffffffffffffffff167f98dafce09283426336da94838681d1fe723dcd8d49f67902076eebf3e2d1ddd683604051612aad91815260200190565b60405180910390a373ffffffffffffffffffffffffffffffffffffffff808416600090815260066020908152604080832093861683529290529081208054839290612af99084906148fb565b909155505073ffffffffffffffffffffffffffffffffffffffff831660009081526007602052604081208054839290612b339084906148fb565b90915550612b449050838383613a7e565b505050565b612b51613c07565b600480547fffffffffffffffffffffffffffffffffffffffffffffffffffffffffffffff001690557f5db9ee0a495bf2e6ff9c91a7834c1ba4fdd244a5e8aa4e537bd38aeae4b073aa335b60405173ffffffffffffffffffffffffffffffffffffffff909116815260200160405180910390a1565b73ffffffffffffffffffffffffffffffffffffffff831660009081526007602052604081208054839290612bfb908490614913565b909155505073ffffffffffffffffffffffffffffffffffffffff808416600090815260066020908152604080832093861683529290529081208054839290612c44908490614913565b90915550612b449050828483613a7e565b73ffffffffffffffffffffffffffffffffffffffff828116600090815260086020526040902080547fffffffffffffffffffffffff000000000000000000000000000000000000000016918316918217905515612cb25780612cb4565b815b73ffffffffffffffffffffffffffffffffffffffff168273ffffffffffffffffffffffffffffffffffffffff167f88a6f95a94556f83d3752aaa691040ea5c04d9db823566be9f2f325eb866c9ae60405160405180910390a35050565b815460009080612d255760009150506108d4565b600084612d33600184614913565b81548110612d4357612d4361492a565b60009182526020918290206040805180820190915291015463ffffffff81168083526401000000009091047bffffffffffffffffffffffffffffffffffffffffffffffffffffffff169282019290925291508410612dc657602001517bffffffffffffffffffffffffffffffffffffffffffffffffffffffff1691506108d49050565b8160005b81811015612e345760006001612de08385614913565b612deb911c836148fb565b905086888281548110612e0057612e0061492a565b60009182526020909120015463ffffffff161115612e2057809250612e2e565b612e2b8160016148fb565b91505b50612dca565b8115612e8d5786612e46600184614913565b81548110612e5657612e5661492a565b60009182526020909120015464010000000090047bffffffffffffffffffffffffffffffffffffffffffffffffffffffff16612e90565b60005b7bffffffffffffffffffffffffffffffffffffffffffffffffffffffff16979650505050505050565b612ec1613c73565b600480547fffffffffffffffffffffffffffffffffffffffffffffffffffffffffffffff001660011790557f62e78cea01bee320cd4e420270b5ea74000d11b0c9f74754ebdbfc544b05a258612b9c3390565b73ffffffffffffffffffffffffffffffffffffffff808316600090815260066020908152604080832093851683529290522054612f52838383612bc6565b612f5b836119bd565b73ffffffffffffffffffffffffffffffffffffffff168273ffffffffffffffffffffffffffffffffffffffff161415612b4457612b44836000612c55565b83421115613003576040517f08c379a000000000000000000000000000000000000000000000000000000000815260206004820181905260248201527f44656c65676174655065726d69743a206578706972656420646561646c696e65604482015260640161099b565b73ffffffffffffffffffffffffffffffffffffffff8616613080576040517f08c379a000000000000000000000000000000000000000000000000000000000815260206004820152601160248201527f696e76616c69642064656c656761746f72000000000000000000000000000000604482015260640161099b565b60007fd46e8b93b5190df6403875402a5c13897b72d2a576da5d1bfea20a63638d216e87876130ae8a613ce0565b60408051602081019590955273ffffffffffffffffffffffffffffffffffffffff9384169085015291166060830152608082015260a0810186905260c001604051602081830303815290604052805190602001209050600061310f826134e3565b9050600061311f8287878761354c565b90508873ffffffffffffffffffffffffffffffffffffffff168173ffffffffffffffffffffffffffffffffffffffff16146131dc576040517f08c379a000000000000000000000000000000000000000000000000000000000815260206004820152602160248201527f44656c65676174655065726d69743a20696e76616c6964207369676e6174757260448201527f6500000000000000000000000000000000000000000000000000000000000000606482015260840161099b565b505050505050505050565b60006131f38383613d0c565b6003549092507bffffffffffffffffffffffffffffffffffffffffffffffffffffffff10156132a4576040517f08c379a000000000000000000000000000000000000000000000000000000000815260206004820152603560248201527f566f7465436865636b706f696e74733a20746f74616c20737570706c7920726960448201527f736b73206f766572666c6f77696e6720766f7465730000000000000000000000606482015260840161099b565b612744600c613e46846136eb565b60006132dc7ff86c915dad5894faca0dfa067c58fdf4307406d255ed0a65db394f82b77f53d45490565b73ffffffffffffffffffffffffffffffffffffffff161461337f576040517f08c379a000000000000000000000000000000000000000000000000000000000815260206004820152602860248201527f43616e206f6e6c792062652063616c6c656420647572696e6720696e6974696160448201527f6c697a6174696f6e000000000000000000000000000000000000000000000000606482015260840161099b565b60008173ffffffffffffffffffffffffffffffffffffffff16635c60da1b6040518163ffffffff1660e01b815260040160206040518083038186803b1580156133c757600080fd5b505afa1580156133db573d6000803e3d6000fd5b505050506040513d601f19601f820116820180604052508101906133ff9190614959565b905073ffffffffffffffffffffffffffffffffffffffff81166134a4576040517f08c379a000000000000000000000000000000000000000000000000000000000815260206004820152602c60248201527f696e697469616c697a6174696f6e206661696c7572653a206e6f7468696e672060448201527f746f20696d706c656d656e740000000000000000000000000000000000000000606482015260840161099b565b61126a81613e52565b73ffffffffffffffffffffffffffffffffffffffff8116600090815260208190526040812080545b815460010190915592915050565b60006108d46134f061274c565b836040517f19010000000000000000000000000000000000000000000000000000000000006020820152602281018390526042810182905260009060620160405160208183030381529060405280519060200120905092915050565b600080600061355d87878787613f33565b9150915061356a8161404b565b5095945050505050565b600080613583846000856142a4565b73ffffffffffffffffffffffffffffffffffffffff85166000908152600160205260409020549091508181101561363c576040517f08c379a000000000000000000000000000000000000000000000000000000000815260206004820152602260248201527f45524332303a206275726e20616d6f756e7420657863656564732062616c616e60448201527f6365000000000000000000000000000000000000000000000000000000000000606482015260840161099b565b73ffffffffffffffffffffffffffffffffffffffff85166000908152600160205260408120838303905560038054849290613678908490614913565b909155505060405184815260009073ffffffffffffffffffffffffffffffffffffffff8716907fddf252ad1be2c89b69c2b068fc378daa952ba7f163c4a11628f55a4df523b3ef9060200160405180910390a36136d7856000846142b5565b509392505050565b60006111d88284614913565b60007bffffffffffffffffffffffffffffffffffffffffffffffffffffffff821115613799576040517f08c379a000000000000000000000000000000000000000000000000000000000815260206004820152602160248201527f6e65775765696768742063616e6e6f742062652063617374656420736166656c60448201527f7900000000000000000000000000000000000000000000000000000000000000606482015260840161099b565b63ffffffff43111561382c576040517f08c379a0000000000000000000000000000000000000000000000000000000008152602060048201526024808201527f626c6f636b206e756d6265722063616e6e6f742062652063617374656420736160448201527f66656c7900000000000000000000000000000000000000000000000000000000606482015260840161099b565b8354806138b9578460405180604001604052804363ffffffff16815260200161385a6000878963ffffffff16565b7bffffffffffffffffffffffffffffffffffffffffffffffffffffffff90811690915282546001810184556000938452602093849020835194909301519091166401000000000263ffffffff90931692909217910155508190506111d8565b6000856138c7600184614913565b815481106138d7576138d761492a565b60009182526020822001805490925064010000000090047bffffffffffffffffffffffffffffffffffffffffffffffffffffffff169061391b828763ffffffff8a16565b90507bffffffffffffffffffffffffffffffffffffffffffffffffffffffff8111156139c9576040517f08c379a000000000000000000000000000000000000000000000000000000000815260206004820152602160248201527f6e65775765696768742063616e6e6f742062652063617374656420736166656c60448201527f7900000000000000000000000000000000000000000000000000000000000000606482015260840161099b565b825463ffffffff16431415613a0e57825463ffffffff166401000000007bffffffffffffffffffffffffffffffffffffffffffffffffffffffff831602178355613a73565b6040805180820190915263ffffffff43811682527bffffffffffffffffffffffffffffffffffffffffffffffffffffffff80841660208085019182528c54600181018e5560008e81529190912094519151909216640100000000029216919091179101555b979650505050505050565b8173ffffffffffffffffffffffffffffffffffffffff168373ffffffffffffffffffffffffffffffffffffffff1614158015613aba5750600081115b15612b445773ffffffffffffffffffffffffffffffffffffffff831615613b615773ffffffffffffffffffffffffffffffffffffffff83166000908152600b60205260408120613b0d906136df846136eb565b90508373ffffffffffffffffffffffffffffffffffffffff167fd1b0c5e03e405cea97403894c17af4610d6d851ffe4baa03de1ca5e7c700cd7582604051613b5791815260200190565b60405180910390a2505b73ffffffffffffffffffffffffffffffffffffffff821615612b445773ffffffffffffffffffffffffffffffffffffffff82166000908152600b60205260408120613baf90613e46846136eb565b90508273ffffffffffffffffffffffffffffffffffffffff167fd1b0c5e03e405cea97403894c17af4610d6d851ffe4baa03de1ca5e7c700cd7582604051613bf991815260200190565b60405180910390a250505050565b60045460ff166112fc576040517f08c379a000000000000000000000000000000000000000000000000000000000815260206004820152601460248201527f5061757361626c653a206e6f7420706175736564000000000000000000000000604482015260640161099b565b60045460ff16156112fc576040517f08c379a000000000000000000000000000000000000000000000000000000000815260206004820152601060248201527f5061757361626c653a2070617573656400000000000000000000000000000000604482015260640161099b565b73ffffffffffffffffffffffffffffffffffffffff8116600090815260056020526040812080546134d5565b600073ffffffffffffffffffffffffffffffffffffffff8316613d8b576040517f08c379a000000000000000000000000000000000000000000000000000000000815260206004820152601f60248201527f45524332303a206d696e7420746f20746865207a65726f206164647265737300604482015260640161099b565b6000613d99600085856142a4565b90508060036000828254613dad91906148fb565b909155505073ffffffffffffffffffffffffffffffffffffffff841660009081526001602052604081208054839290613de79084906148fb565b909155505060405183815273ffffffffffffffffffffffffffffffffffffffff8516906000907fddf252ad1be2c89b69c2b068fc378daa952ba7f163c4a11628f55a4df523b3ef9060200160405180910390a36111d8600085836142b5565b60006111d882846148fb565b8073ffffffffffffffffffffffffffffffffffffffff16613e917ff86c915dad5894faca0dfa067c58fdf4307406d255ed0a65db394f82b77f53d45490565b73ffffffffffffffffffffffffffffffffffffffff161415613f0f576040517f08c379a000000000000000000000000000000000000000000000000000000000815260206004820152601f60248201527f496d706c656d656e746174696f6e20616c7265616479206d61746368696e6700604482015260640161099b565b7ff86c915dad5894faca0dfa067c58fdf4307406d255ed0a65db394f82b77f53d455565b6000807f7fffffffffffffffffffffffffffffff5d576e7357a4501ddfe92f46681b20a0831115613f6a5750600090506003614042565b8460ff16601b14158015613f8257508460ff16601c14155b15613f935750600090506004614042565b6040805160008082526020820180845289905260ff881692820192909252606081018690526080810185905260019060a0016020604051602081039080840390855afa158015613fe7573d6000803e3d6000fd5b50506040517fffffffffffffffffffffffffffffffffffffffffffffffffffffffffffffffe0015191505073ffffffffffffffffffffffffffffffffffffffff811661403b57600060019250925050614042565b9150600090505b94509492505050565b600081600481111561405f5761405f614976565b14156140685750565b600181600481111561407c5761407c614976565b14156140e4576040517f08c379a000000000000000000000000000000000000000000000000000000000815260206004820152601860248201527f45434453413a20696e76616c6964207369676e61747572650000000000000000604482015260640161099b565b60028160048111156140f8576140f8614976565b1415614160576040517f08c379a000000000000000000000000000000000000000000000000000000000815260206004820152601f60248201527f45434453413a20696e76616c6964207369676e6174757265206c656e67746800604482015260640161099b565b600381600481111561417457614174614976565b1415614202576040517f08c379a000000000000000000000000000000000000000000000000000000000815260206004820152602260248201527f45434453413a20696e76616c6964207369676e6174757265202773272076616c60448201527f7565000000000000000000000000000000000000000000000000000000000000606482015260840161099b565b600481600481111561421657614216614976565b1415611b52576040517f08c379a000000000000000000000000000000000000000000000000000000000815260206004820152602260248201527f45434453413a20696e76616c6964207369676e6174757265202776272076616c60448201527f7565000000000000000000000000000000000000000000000000000000000000606482015260840161099b565b60006142ae613c73565b5092915050565b73ffffffffffffffffffffffffffffffffffffffff8316600090815260076020526040902054156144495773ffffffffffffffffffffffffffffffffffffffff8316600090815260076020908152604080832054600190925282205461431c9084906148fb565b6143269190614913565b90508181101561444757600061433b856119bd565b73ffffffffffffffffffffffffffffffffffffffff80871660009081526006602090815260408083209385168352929052205490915061437b81846148fb565b841115614430576040517f08c379a000000000000000000000000000000000000000000000000000000000815260206004820152605360248201527f44656c65676174696f6e20746f6f20636f6d706c69636174656420746f20747260448201527f616e736665722e20556e64656c656761746520616e642073696d706c6966792060648201527f6265666f726520747279696e6720616761696e00000000000000000000000000608482015260a40161099b565b614444868361443f8688614913565b612bc6565b50505b505b73ffffffffffffffffffffffffffffffffffffffff80831660009081526008602052604090205416801561450b5773ffffffffffffffffffffffffffffffffffffffff8084166000908152600660209081526040808320938516835292905290812080548492906144bb9084906148fb565b909155505073ffffffffffffffffffffffffffffffffffffffff8316600090815260076020526040812080548492906144f59084906148fb565b909155506145069050848284613a7e565b614516565b614516848484613a7e565b50505050565b600060208083528351808285015260005b818110156145495785810183015185820160400152820161452d565b8181111561455b576000604083870101525b50601f017fffffffffffffffffffffffffffffffffffffffffffffffffffffffffffffffe016929092016040019392505050565b73ffffffffffffffffffffffffffffffffffffffff81168114611b5257600080fd5b6000602082840312156145c357600080fd5b81356111d88161458f565b600080604083850312156145e157600080fd5b82356145ec8161458f565b946020939093013593505050565b7f4e487b7100000000000000000000000000000000000000000000000000000000600052604160045260246000fd5b6000806040838503121561463c57600080fd5b82356146478161458f565b9150602083013567ffffffffffffffff8082111561466457600080fd5b818501915085601f83011261467857600080fd5b81358181111561468a5761468a6145fa565b604051601f82017fffffffffffffffffffffffffffffffffffffffffffffffffffffffffffffffe0908116603f011681019083821181831017156146d0576146d06145fa565b816040528281528860208487010111156146e957600080fd5b8260208601602083013760006020848301015280955050505050509250929050565b60008060006060848603121561472057600080fd5b833561472b8161458f565b9250602084013561473b8161458f565b929592945050506040919091013590565b6000806040838503121561475f57600080fd5b8235915060208301356147718161458f565b809150509250929050565b60006020828403121561478e57600080fd5b5035919050565b803560ff811681146147a657600080fd5b919050565b60008060008060008060c087890312156147c457600080fd5b86356147cf8161458f565b955060208701356147df8161458f565b9450604087013593506147f460608801614795565b92506080870135915060a087013590509295509295509295565b600080600080600080600060e0888a03121561482957600080fd5b87356148348161458f565b965060208801356148448161458f565b9550604088013594506060880135935061486060808901614795565b925060a0880135915060c0880135905092959891949750929550565b6000806040838503121561488f57600080fd5b823561489a8161458f565b915060208301356147718161458f565b6000602082840312156148bc57600080fd5b815180151581146111d857600080fd5b7f4e487b7100000000000000000000000000000000000000000000000000000000600052601160045260246000fd5b6000821982111561490e5761490e6148cc565b500190565b600082821015614925576149256148cc565b500390565b7f4e487b7100000000000000000000000000000000000000000000000000000000600052603260045260246000fd5b60006020828403121561496b57600080fd5b81516111d88161458f565b7f4e487b7100000000000000000000000000000000000000000000000000000000600052602160045260246000fdfea164736f6c6343000809000af86c915dad5894faca0dfa067c58fdf4307406d255ed0a65db394f82b77f53d4",
  "linkReferences": {},
  "deployedLinkReferences": {}
}