{
  "_format": "hh-sol-artifact-1",
  "contractName": "Lockup",
  "sourceName": "contracts/governance/monetary/Lockup.sol",
  "abi": [
    {
      "inputs": [
        {
          "internalType": "contract Policy",
          "name": "_policy",
          "type": "address"
        },
        {
          "internalType": "contract ECO",
          "name": "_ecoAddr",
          "type": "address"
        },
        {
          "internalType": "contract CurrencyTimer",
          "name": "_timerAddr",
          "type": "address"
        }
      ],
      "stateMutability": "nonpayable",
      "type": "constructor"
    },
    {
      "anonymous": false,
      "inputs": [
        {
          "indexed": true,
          "internalType": "address",
          "name": "to",
          "type": "address"
        },
        {
          "indexed": false,
          "internalType": "uint256",
          "name": "amount",
          "type": "uint256"
        }
      ],
      "name": "Deposit",
      "type": "event"
    },
    {
      "anonymous": false,
      "inputs": [
        {
          "indexed": true,
          "internalType": "address",
          "name": "to",
          "type": "address"
        },
        {
          "indexed": false,
          "internalType": "uint256",
          "name": "amount",
          "type": "uint256"
        }
      ],
      "name": "Withdrawal",
      "type": "event"
    },
    {
      "inputs": [],
      "name": "DEPOSIT_WINDOW",
      "outputs": [
        {
          "internalType": "uint256",
          "name": "",
          "type": "uint256"
        }
      ],
      "stateMutability": "view",
      "type": "function"
    },
    {
      "inputs": [],
      "name": "GENERATION_START",
      "outputs": [
        {
          "internalType": "uint256",
          "name": "",
          "type": "uint256"
        }
      ],
      "stateMutability": "view",
      "type": "function"
    },
    {
      "inputs": [],
      "name": "INTEREST_DIVISOR",
      "outputs": [
        {
          "internalType": "uint256",
          "name": "",
          "type": "uint256"
        }
      ],
      "stateMutability": "view",
      "type": "function"
    },
    {
      "inputs": [],
      "name": "MIN_GENERATION_DURATION",
      "outputs": [
        {
          "internalType": "uint256",
          "name": "",
          "type": "uint256"
        }
      ],
      "stateMutability": "view",
      "type": "function"
    },
    {
      "inputs": [
        {
          "internalType": "bytes32",
          "name": "",
          "type": "bytes32"
        },
        {
          "internalType": "address",
          "name": "_addr",
          "type": "address"
        }
      ],
      "name": "canImplementInterfaceForAddress",
      "outputs": [
        {
          "internalType": "bytes32",
          "name": "",
          "type": "bytes32"
        }
      ],
      "stateMutability": "view",
      "type": "function"
    },
    {
      "inputs": [],
      "name": "clone",
      "outputs": [
        {
          "internalType": "address",
          "name": "",
          "type": "address"
        }
      ],
      "stateMutability": "nonpayable",
      "type": "function"
    },
    {
      "inputs": [
        {
          "internalType": "uint256",
          "name": "_duration",
          "type": "uint256"
        },
        {
          "internalType": "uint256",
          "name": "_interest",
          "type": "uint256"
        }
      ],
      "name": "clone",
      "outputs": [
        {
          "internalType": "contract Lockup",
          "name": "",
          "type": "address"
        }
      ],
      "stateMutability": "nonpayable",
      "type": "function"
    },
    {
      "inputs": [],
      "name": "currencyTimer",
      "outputs": [
        {
          "internalType": "contract CurrencyTimer",
          "name": "",
          "type": "address"
        }
      ],
      "stateMutability": "view",
      "type": "function"
    },
    {
      "inputs": [
        {
          "internalType": "uint256",
          "name": "_amount",
          "type": "uint256"
        }
      ],
      "name": "deposit",
      "outputs": [],
      "stateMutability": "nonpayable",
      "type": "function"
    },
    {
      "inputs": [
        {
          "internalType": "uint256",
          "name": "_amount",
          "type": "uint256"
        },
        {
          "internalType": "address",
          "name": "_benefactor",
          "type": "address"
        }
      ],
      "name": "depositFor",
      "outputs": [],
      "stateMutability": "nonpayable",
      "type": "function"
    },
    {
      "inputs": [],
      "name": "depositWindowEnd",
      "outputs": [
        {
          "internalType": "uint256",
          "name": "",
          "type": "uint256"
        }
      ],
      "stateMutability": "view",
      "type": "function"
    },
    {
      "inputs": [
        {
          "internalType": "address",
          "name": "",
          "type": "address"
        }
      ],
      "name": "deposits",
      "outputs": [
        {
          "internalType": "uint256",
          "name": "gonsDepositAmount",
          "type": "uint256"
        },
        {
          "internalType": "uint256",
          "name": "ecoDepositReward",
          "type": "uint256"
        },
        {
          "internalType": "uint256",
          "name": "lockupEnd",
          "type": "uint256"
        },
        {
          "internalType": "address",
          "name": "delegate",
          "type": "address"
        }
      ],
      "stateMutability": "view",
      "type": "function"
    },
    {
      "inputs": [],
      "name": "duration",
      "outputs": [
        {
          "internalType": "uint256",
          "name": "",
          "type": "uint256"
        }
      ],
      "stateMutability": "view",
      "type": "function"
    },
    {
      "inputs": [],
      "name": "ecoToken",
      "outputs": [
        {
          "internalType": "contract ECO",
          "name": "",
          "type": "address"
        }
      ],
      "stateMutability": "view",
      "type": "function"
    },
    {
      "inputs": [],
      "name": "implementation",
      "outputs": [
        {
          "internalType": "address",
          "name": "_impl",
          "type": "address"
        }
      ],
      "stateMutability": "view",
      "type": "function"
    },
    {
      "inputs": [
        {
          "internalType": "address",
          "name": "_self",
          "type": "address"
        },
        {
          "internalType": "uint256",
          "name": "_duration",
          "type": "uint256"
        },
        {
          "internalType": "uint256",
          "name": "_interest",
          "type": "uint256"
        }
      ],
      "name": "initialize",
      "outputs": [],
      "stateMutability": "nonpayable",
      "type": "function"
    },
    {
      "inputs": [
        {
          "internalType": "address",
          "name": "_self",
          "type": "address"
        }
      ],
      "name": "initialize",
      "outputs": [],
      "stateMutability": "nonpayable",
      "type": "function"
    },
    {
      "inputs": [],
      "name": "interest",
      "outputs": [
        {
          "internalType": "uint256",
          "name": "",
          "type": "uint256"
        }
      ],
      "stateMutability": "view",
      "type": "function"
    },
    {
      "inputs": [],
      "name": "policy",
      "outputs": [
        {
          "internalType": "contract Policy",
          "name": "",
          "type": "address"
        }
      ],
      "stateMutability": "view",
      "type": "function"
    },
    {
      "inputs": [
        {
          "internalType": "address",
          "name": "_delegate",
          "type": "address"
        },
        {
          "internalType": "bytes",
          "name": "_data",
          "type": "bytes"
        }
      ],
      "name": "policyCommand",
      "outputs": [],
      "stateMutability": "nonpayable",
      "type": "function"
    },
    {
      "inputs": [
        {
          "internalType": "address",
          "name": "_addr",
          "type": "address"
        }
      ],
      "name": "setExpectedInterfaceSet",
      "outputs": [],
      "stateMutability": "nonpayable",
      "type": "function"
    },
    {
      "inputs": [],
      "name": "withdraw",
      "outputs": [],
      "stateMutability": "nonpayable",
      "type": "function"
    },
    {
      "inputs": [
        {
          "internalType": "address",
          "name": "_who",
          "type": "address"
        }
      ],
      "name": "withdrawFor",
      "outputs": [],
      "stateMutability": "nonpayable",
      "type": "function"
    }
  ],
  "bytecode": "0x60e06040523480156200001157600080fd5b5060405162002252380380620022528339810160408190526200003491620002df565b8280620000413062000238565b6001600160a01b038116620000c35760405162461bcd60e51b815260206004820152603860248201527f556e7265636f76657261626c653a20646f206e6f74207365742074686520706f60448201527f6c69637920617320746865207a65726f2061646472657373000000000000000060648201526084015b60405180910390fd5b6001600160a01b0381166080819052604051635df8122f60e01b81523060048201526024810191909152731820a4b7618bde71dce8cdc73aab6c95905fad2490635df8122f90604401600060405180830381600087803b1580156200012757600080fd5b505af11580156200013c573d6000803e3d6000fd5b50505050506001600160a01b03831615159050620001b15760405162461bcd60e51b815260206004820152602b60248201527f646f206e6f742073657420746865205f65636f4164647220617320746865207a60448201526a65726f206164647265737360a81b6064820152608401620000ba565b6001600160a01b0381166200021f5760405162461bcd60e51b815260206004820152602d60248201527f646f206e6f742073657420746865205f74696d6572416464722061732074686560448201526c207a65726f206164647265737360981b6064820152608401620000ba565b6001600160a01b0391821660a0521660c0525062000333565b6001600160a01b0381166200025a600080516020620022328339815191525490565b6001600160a01b03161415620002b35760405162461bcd60e51b815260206004820152601f60248201527f496d706c656d656e746174696f6e20616c7265616479206d61746368696e67006044820152606401620000ba565b6000805160206200223283398151915255565b6001600160a01b0381168114620002dc57600080fd5b50565b600080600060608486031215620002f557600080fd5b83516200030281620002c6565b60208501519093506200031581620002c6565b60408501519092506200032881620002c6565b809150509250925092565b60805160a05160c051611e7b620003b76000396000818161024201526117590152600081816102da01528181610eb801528181610ff3015281816110c60152818161118f015281816114670152818161157b0152611621015260008181610197015281816103ff015281816106400152818161078d0152610cfa0152611e7b6000f3fe608060405234801561001057600080fd5b506004361061018d5760003560e01c8063442dbdc3116100e35780639eca672c1161008c578063c4d66de811610066578063c4d66de814610348578063f04668661461035b578063fc7e286d1461036657600080fd5b80639eca672c14610319578063b6b55f251461032c578063c392f7661461033f57600080fd5b8063705d5304116100bd578063705d5304146102d55780637a1ac61e146102fc5780638cb170561461030f57600080fd5b8063442dbdc31461029257806353729937146102a55780635c60da1b146102ae57600080fd5b806312d4ddf81161014557806336efd16f1161011f57806336efd16f1461026457806339634e0c146102775780633ccfd60b1461028a57600080fd5b806312d4ddf814610221578063249cb3fa1461022a578063309848f51461023d57600080fd5b806309d7f23b1161017657806309d7f23b146101fb57806309ed4607146102105780630fb5a6b41461021857600080fd5b80630505c8c91461019257806305c0dd91146101e3575b600080fd5b6101b97f000000000000000000000000000000000000000000000000000000000000000081565b60405173ffffffffffffffffffffffffffffffffffffffff90911681526020015b60405180910390f35b6101ed6202a30081565b6040519081526020016101da565b61020e610209366004611b9a565b6103e7565b005b6101b96104db565b6101ed60015481565b6101ed60025481565b6101ed610238366004611c7c565b61063c565b6101b97f000000000000000000000000000000000000000000000000000000000000000081565b61020e610272366004611c7c565b610766565b61020e610285366004611cac565b610775565b61020e610881565b6101b96102a0366004611cd0565b61088e565b6101ed6103e881565b7ff86c915dad5894faca0dfa067c58fdf4307406d255ed0a65db394f82b77f53d4546101b9565b6101b97f000000000000000000000000000000000000000000000000000000000000000081565b61020e61030a366004611cf2565b610ad3565b6101ed6212750081565b61020e610327366004611cac565b610bc8565b61020e61033a366004611d27565b610bd6565b6101ed60035481565b61020e610356366004611cac565b610be1565b6101ed633b9aca0081565b6103b1610374366004611cac565b60046020526000908152604090208054600182015460028301546003909301549192909173ffffffffffffffffffffffffffffffffffffffff1684565b6040805194855260208501939093529183015273ffffffffffffffffffffffffffffffffffffffff1660608201526080016101da565b3373ffffffffffffffffffffffffffffffffffffffff7f000000000000000000000000000000000000000000000000000000000000000016146104b1576040517f08c379a000000000000000000000000000000000000000000000000000000000815260206004820152602d60248201527f4f6e6c792074686520706f6c69637920636f6e7472616374206d61792063616c60448201527f6c2074686973206d6574686f640000000000000000000000000000000000000060648201526084015b60405180910390fd5b600080825160208401855af43d806000803e8180156104cf57816000f35b816000fd5b5050505050565b6000306105067ff86c915dad5894faca0dfa067c58fdf4307406d255ed0a65db394f82b77f53d45490565b73ffffffffffffffffffffffffffffffffffffffff16146105a9576040517f08c379a000000000000000000000000000000000000000000000000000000000815260206004820152602660248201527f54686973206d6574686f642063616e6e6f742062652063616c6c6564206f6e2060448201527f636c6f6e6573000000000000000000000000000000000000000000000000000060648201526084016104a8565b60006105b430610d6c565b6040517fc4d66de800000000000000000000000000000000000000000000000000000000815230600482015290915073ffffffffffffffffffffffffffffffffffffffff82169063c4d66de890602401600060405180830381600087803b15801561061e57600080fd5b505af1158015610632573d6000803e3d6000fd5b5092949350505050565b60007f000000000000000000000000000000000000000000000000000000000000000073ffffffffffffffffffffffffffffffffffffffff168273ffffffffffffffffffffffffffffffffffffffff1614806106b2575060005473ffffffffffffffffffffffffffffffffffffffff8381169116145b61073e576040517f08c379a000000000000000000000000000000000000000000000000000000000815260206004820152603b60248201527f4f6e6c792074686520706f6c696379206f7220696e7465726661636520636f6e60448201527f74726163742063616e207365742074686520696e74657266616365000000000060648201526084016104a8565b507fa2ef4600d742022d532d4747cb3547474667d6f13804902513b2ec01c848f4b492915050565b610771823383610dd5565b5050565b3373ffffffffffffffffffffffffffffffffffffffff7f0000000000000000000000000000000000000000000000000000000000000000161461083a576040517f08c379a000000000000000000000000000000000000000000000000000000000815260206004820152602d60248201527f4f6e6c792074686520706f6c69637920636f6e7472616374206d61792063616c60448201527f6c2074686973206d6574686f640000000000000000000000000000000000000060648201526084016104a8565b600080547fffffffffffffffffffffffff00000000000000000000000000000000000000001673ffffffffffffffffffffffffffffffffffffffff92909216919091179055565b61088c3360016112db565b565b6000306108b97ff86c915dad5894faca0dfa067c58fdf4307406d255ed0a65db394f82b77f53d45490565b73ffffffffffffffffffffffffffffffffffffffff161461095c576040517f08c379a000000000000000000000000000000000000000000000000000000000815260206004820152602660248201527f54686973206d6574686f642063616e6e6f742062652063616c6c6564206f6e2060448201527f636c6f6e6573000000000000000000000000000000000000000000000000000060648201526084016104a8565b600083116109c6576040517f08c379a000000000000000000000000000000000000000000000000000000000815260206004820152601b60248201527f6475726174696f6e2073686f756c64206e6f74206265207a65726f000000000060448201526064016104a8565b60008211610a30576040517f08c379a000000000000000000000000000000000000000000000000000000000815260206004820152601b60248201527f696e7465726573742073686f756c64206e6f74206265207a65726f000000000060448201526064016104a8565b6000610a3b30610d6c565b6040517f7a1ac61e000000000000000000000000000000000000000000000000000000008152306004820152602481018690526044810185905290915073ffffffffffffffffffffffffffffffffffffffff821690637a1ac61e90606401600060405180830381600087803b158015610ab357600080fd5b505af1158015610ac7573d6000803e3d6000fd5b50929695505050505050565b6000610afd7ff86c915dad5894faca0dfa067c58fdf4307406d255ed0a65db394f82b77f53d45490565b73ffffffffffffffffffffffffffffffffffffffff1614610ba0576040517f08c379a000000000000000000000000000000000000000000000000000000000815260206004820152602860248201527f43616e206f6e6c792062652063616c6c656420647572696e6720696e6974696160448201527f6c697a6174696f6e00000000000000000000000000000000000000000000000060648201526084016104a8565b610ba983610be1565b60018290556003819055610bc06202a30042611d6f565b600255505050565b610bd38160006112db565b50565b610bd3813333610dd5565b6000610c0b7ff86c915dad5894faca0dfa067c58fdf4307406d255ed0a65db394f82b77f53d45490565b73ffffffffffffffffffffffffffffffffffffffff1614610cae576040517f08c379a000000000000000000000000000000000000000000000000000000000815260206004820152602860248201527f43616e206f6e6c792062652063616c6c656420647572696e6720696e6974696160448201527f6c697a6174696f6e00000000000000000000000000000000000000000000000060648201526084016104a8565b610cb781611872565b6040517f5df8122f00000000000000000000000000000000000000000000000000000000815230600482015273ffffffffffffffffffffffffffffffffffffffff7f0000000000000000000000000000000000000000000000000000000000000000166024820152731820a4b7618bde71dce8cdc73aab6c95905fad2490635df8122f90604401600060405180830381600087803b158015610d5857600080fd5b505af11580156104d4573d6000803e3d6000fd5b6000808260601b90506040517f3d602d80600a3d3981f3363d3d373d3d3d363d7300000000000000000000000081528160148201527f5af43d82803e903d91602b57fd5bf3000000000000000000000000000000000060288201526037816000f0949350505050565b6002544210610e66576040517f08c379a000000000000000000000000000000000000000000000000000000000815260206004820152602c60248201527f4465706f736974732063616e206f6e6c79206265206d61646520647572696e6760448201527f2073616c652077696e646f77000000000000000000000000000000000000000060648201526084016104a8565b6040517f23b872dd00000000000000000000000000000000000000000000000000000000815273ffffffffffffffffffffffffffffffffffffffff8381166004830152306024830152604482018590527f000000000000000000000000000000000000000000000000000000000000000016906323b872dd90606401602060405180830381600087803b158015610efc57600080fd5b505af1158015610f10573d6000803e3d6000fd5b505050506040513d601f19601f82011682018060405250810190610f349190611d87565b610f9a576040517f08c379a000000000000000000000000000000000000000000000000000000000815260206004820152600f60248201527f5472616e73666572204661696c6564000000000000000000000000000000000060448201526064016104a8565b73ffffffffffffffffffffffffffffffffffffffff818116600090815260046020819052604080832090517ffd11b4d30000000000000000000000000000000000000000000000000000000081524392810192909252927f0000000000000000000000000000000000000000000000000000000000000000169063fd11b4d39060240160206040518083038186803b15801561103557600080fd5b505afa158015611049573d6000803e3d6000fd5b505050506040513d601f19601f8201168201806040525081019061106d9190611da9565b9050600061107b8287611dc2565b6040517f8d57d74800000000000000000000000000000000000000000000000000000000815273ffffffffffffffffffffffffffffffffffffffff86811660048301529192506000917f00000000000000000000000000000000000000000000000000000000000000001690638d57d7489060240160206040518083038186803b15801561110857600080fd5b505afa15801561111c573d6000803e3d6000fd5b505050506040513d601f19601f820116820180604052508101906111409190611dff565b6040517f3edb7f8300000000000000000000000000000000000000000000000000000000815273ffffffffffffffffffffffffffffffffffffffff8083166004830152602482018590529192507f000000000000000000000000000000000000000000000000000000000000000090911690633edb7f8390604401600060405180830381600087803b1580156111d557600080fd5b505af11580156111e9573d6000803e3d6000fd5b505050506001546111f74290565b6112019190611d6f565b6002850155600354633b9aca00906112199089611dc2565b6112239190611e1c565b8460010160008282546112369190611d6f565b909155505083548290859060009061124f908490611d6f565b90915550506003840180547fffffffffffffffffffffffff00000000000000000000000000000000000000001673ffffffffffffffffffffffffffffffffffffffff83811691909117909155604051888152908616907fe1fffcc4923d04b559f4d29a8bfc6cda04eb5b0d3c460751c2402c5c5cc9109c9060200160405180910390a250505050505050565b73ffffffffffffffffffffffffffffffffffffffff8216600090815260046020526040902080548061138f576040517f08c379a000000000000000000000000000000000000000000000000000000000815260206004820152603d60248201527f5769746864726177616c732063616e206f6e6c79206265206d61646520666f7260448201527f206163636f756e747320776974682076616c6964206465706f7369747300000060648201526084016104a8565b6000826002015461139d4290565b10905083806113aa575080155b611436576040517f08c379a000000000000000000000000000000000000000000000000000000000815260206004820152602160248201527f4f6e6c79206465706f7369746f72206d6179207769746864726177206561726c60448201527f790000000000000000000000000000000000000000000000000000000000000060648201526084016104a8565b6040517ffd11b4d30000000000000000000000000000000000000000000000000000000081524360048201526000907f000000000000000000000000000000000000000000000000000000000000000073ffffffffffffffffffffffffffffffffffffffff169063fd11b4d39060240160206040518083038186803b1580156114be57600080fd5b505afa1580156114d2573d6000803e3d6000fd5b505050506040513d601f19601f820116820180604052508101906114f69190611da9565b905060006115048285611e1c565b6001860154909150600081831161151b578261151d565b815b6000808955600189015560038801546040517f47b039bd00000000000000000000000000000000000000000000000000000000815273ffffffffffffffffffffffffffffffffffffffff9182166004820152602481018990529192507f000000000000000000000000000000000000000000000000000000000000000016906347b039bd90604401600060405180830381600087803b1580156115bf57600080fd5b505af11580156115d3573d6000803e3d6000fd5b50506040517fa9059cbb00000000000000000000000000000000000000000000000000000000815273ffffffffffffffffffffffffffffffffffffffff8c81166004830152602482018790527f000000000000000000000000000000000000000000000000000000000000000016925063a9059cbb9150604401602060405180830381600087803b15801561166757600080fd5b505af115801561167b573d6000803e3d6000fd5b505050506040513d601f19601f8201168201806040525081019061169f9190611d87565b611705576040517f08c379a000000000000000000000000000000000000000000000000000000000815260206004820152600f60248201527f5472616e73666572204661696c6564000000000000000000000000000000000060448201526064016104a8565b6040517fb39572f000000000000000000000000000000000000000000000000000000000815273ffffffffffffffffffffffffffffffffffffffff8a811660048301526024820183905286151560448301527f0000000000000000000000000000000000000000000000000000000000000000169063b39572f090606401600060405180830381600087803b15801561179d57600080fd5b505af11580156117b1573d6000803e3d6000fd5b5050505084156118135773ffffffffffffffffffffffffffffffffffffffff89167f7fcf532c15f0a6db0bd6d0e038bea71d30d808c7d98cb3bf7268a95bf5081b656117fd8386611e57565b60405190815260200160405180910390a2611867565b73ffffffffffffffffffffffffffffffffffffffff89167f7fcf532c15f0a6db0bd6d0e038bea71d30d808c7d98cb3bf7268a95bf5081b656118558386611d6f565b60405190815260200160405180910390a25b505050505050505050565b600061189c7ff86c915dad5894faca0dfa067c58fdf4307406d255ed0a65db394f82b77f53d45490565b73ffffffffffffffffffffffffffffffffffffffff161461193f576040517f08c379a000000000000000000000000000000000000000000000000000000000815260206004820152602860248201527f43616e206f6e6c792062652063616c6c656420647572696e6720696e6974696160448201527f6c697a6174696f6e00000000000000000000000000000000000000000000000060648201526084016104a8565b60008173ffffffffffffffffffffffffffffffffffffffff16635c60da1b6040518163ffffffff1660e01b815260040160206040518083038186803b15801561198757600080fd5b505afa15801561199b573d6000803e3d6000fd5b505050506040513d601f19601f820116820180604052508101906119bf9190611dff565b905073ffffffffffffffffffffffffffffffffffffffff8116611a64576040517f08c379a000000000000000000000000000000000000000000000000000000000815260206004820152602c60248201527f696e697469616c697a6174696f6e206661696c7572653a206e6f7468696e672060448201527f746f20696d706c656d656e74000000000000000000000000000000000000000060648201526084016104a8565b610771818073ffffffffffffffffffffffffffffffffffffffff16611aa77ff86c915dad5894faca0dfa067c58fdf4307406d255ed0a65db394f82b77f53d45490565b73ffffffffffffffffffffffffffffffffffffffff161415611b25576040517f08c379a000000000000000000000000000000000000000000000000000000000815260206004820152601f60248201527f496d706c656d656e746174696f6e20616c7265616479206d61746368696e670060448201526064016104a8565b7ff86c915dad5894faca0dfa067c58fdf4307406d255ed0a65db394f82b77f53d455565b73ffffffffffffffffffffffffffffffffffffffff81168114610bd357600080fd5b7f4e487b7100000000000000000000000000000000000000000000000000000000600052604160045260246000fd5b60008060408385031215611bad57600080fd5b8235611bb881611b49565b9150602083013567ffffffffffffffff80821115611bd557600080fd5b818501915085601f830112611be957600080fd5b813581811115611bfb57611bfb611b6b565b604051601f82017fffffffffffffffffffffffffffffffffffffffffffffffffffffffffffffffe0908116603f01168101908382118183101715611c4157611c41611b6b565b81604052828152886020848701011115611c5a57600080fd5b8260208601602083013760006020848301015280955050505050509250929050565b60008060408385031215611c8f57600080fd5b823591506020830135611ca181611b49565b809150509250929050565b600060208284031215611cbe57600080fd5b8135611cc981611b49565b9392505050565b60008060408385031215611ce357600080fd5b50508035926020909101359150565b600080600060608486031215611d0757600080fd5b8335611d1281611b49565b95602085013595506040909401359392505050565b600060208284031215611d3957600080fd5b5035919050565b7f4e487b7100000000000000000000000000000000000000000000000000000000600052601160045260246000fd5b60008219821115611d8257611d82611d40565b500190565b600060208284031215611d9957600080fd5b81518015158114611cc957600080fd5b600060208284031215611dbb57600080fd5b5051919050565b6000817fffffffffffffffffffffffffffffffffffffffffffffffffffffffffffffffff0483118215151615611dfa57611dfa611d40565b500290565b600060208284031215611e1157600080fd5b8151611cc981611b49565b600082611e52577f4e487b7100000000000000000000000000000000000000000000000000000000600052601260045260246000fd5b500490565b600082821015611e6957611e69611d40565b50039056fea164736f6c6343000809000af86c915dad5894faca0dfa067c58fdf4307406d255ed0a65db394f82b77f53d4",
  "linkReferences": {},
  "deployedLinkReferences": {}
}