{
  "_format": "hh-sol-artifact-1",
  "contractName": "PolicyProposals",
  "sourceName": "contracts/governance/community/PolicyProposals.sol",
  "abi": [
    {
      "inputs": [
        {
          "internalType": "contract Policy",
          "name": "_policy",
          "type": "address"
        },
        {
          "internalType": "contract PolicyVotes",
          "name": "_policyvotes",
          "type": "address"
        },
        {
          "internalType": "contract ECO",
          "name": "_ecoAddr",
          "type": "address"
        }
      ],
      "stateMutability": "nonpayable",
      "type": "constructor"
    },
    {
      "anonymous": false,
      "inputs": [
        {
          "indexed": true,
          "internalType": "address",
          "name": "proposer",
          "type": "address"
        },
        {
          "indexed": true,
          "internalType": "contract Proposal",
          "name": "proposalAddress",
          "type": "address"
        }
      ],
      "name": "ProposalRefund",
      "type": "event"
    },
    {
      "anonymous": false,
      "inputs": [
        {
          "indexed": true,
          "internalType": "address",
          "name": "proposer",
          "type": "address"
        },
        {
          "indexed": true,
          "internalType": "contract Proposal",
          "name": "proposalAddress",
          "type": "address"
        }
      ],
      "name": "Register",
      "type": "event"
    },
    {
      "anonymous": false,
      "inputs": [
        {
          "indexed": true,
          "internalType": "address",
          "name": "supporter",
          "type": "address"
        },
        {
          "indexed": true,
          "internalType": "contract Proposal",
          "name": "proposalAddress",
          "type": "address"
        }
      ],
      "name": "Support",
      "type": "event"
    },
    {
      "anonymous": false,
      "inputs": [
        {
          "indexed": true,
          "internalType": "contract Proposal",
          "name": "proposalAddress",
          "type": "address"
        }
      ],
      "name": "SupportThresholdReached",
      "type": "event"
    },
    {
      "anonymous": false,
      "inputs": [
        {
          "indexed": true,
          "internalType": "address",
          "name": "unsupporter",
          "type": "address"
        },
        {
          "indexed": true,
          "internalType": "contract Proposal",
          "name": "proposalAddress",
          "type": "address"
        }
      ],
      "name": "Unsupport",
      "type": "event"
    },
    {
      "anonymous": false,
      "inputs": [
        {
          "indexed": true,
          "internalType": "contract PolicyVotes",
          "name": "contractAddress",
          "type": "address"
        }
      ],
      "name": "VoteStart",
      "type": "event"
    },
    {
      "inputs": [],
      "name": "COST_REGISTER",
      "outputs": [
        {
          "internalType": "uint256",
          "name": "",
          "type": "uint256"
        }
      ],
      "stateMutability": "view",
      "type": "function"
    },
    {
      "inputs": [],
      "name": "GENERATION_START",
      "outputs": [
        {
          "internalType": "uint256",
          "name": "",
          "type": "uint256"
        }
      ],
      "stateMutability": "view",
      "type": "function"
    },
    {
      "inputs": [],
      "name": "MIN_GENERATION_DURATION",
      "outputs": [
        {
          "internalType": "uint256",
          "name": "",
          "type": "uint256"
        }
      ],
      "stateMutability": "view",
      "type": "function"
    },
    {
      "inputs": [],
      "name": "PROPOSAL_TIME",
      "outputs": [
        {
          "internalType": "uint256",
          "name": "",
          "type": "uint256"
        }
      ],
      "stateMutability": "view",
      "type": "function"
    },
    {
      "inputs": [],
      "name": "REFUND_IF_LOST",
      "outputs": [
        {
          "internalType": "uint256",
          "name": "",
          "type": "uint256"
        }
      ],
      "stateMutability": "view",
      "type": "function"
    },
    {
      "inputs": [],
      "name": "SUPPORT_THRESHOLD",
      "outputs": [
        {
          "internalType": "uint256",
          "name": "",
          "type": "uint256"
        }
      ],
      "stateMutability": "view",
      "type": "function"
    },
    {
      "inputs": [],
      "name": "SUPPORT_THRESHOLD_DIVISOR",
      "outputs": [
        {
          "internalType": "uint256",
          "name": "",
          "type": "uint256"
        }
      ],
      "stateMutability": "view",
      "type": "function"
    },
    {
      "inputs": [],
      "name": "blockNumber",
      "outputs": [
        {
          "internalType": "uint256",
          "name": "",
          "type": "uint256"
        }
      ],
      "stateMutability": "view",
      "type": "function"
    },
    {
      "inputs": [
        {
          "internalType": "bytes32",
          "name": "",
          "type": "bytes32"
        },
        {
          "internalType": "address",
          "name": "_addr",
          "type": "address"
        }
      ],
      "name": "canImplementInterfaceForAddress",
      "outputs": [
        {
          "internalType": "bytes32",
          "name": "",
          "type": "bytes32"
        }
      ],
      "stateMutability": "view",
      "type": "function"
    },
    {
      "inputs": [],
      "name": "clone",
      "outputs": [
        {
          "internalType": "address",
          "name": "",
          "type": "address"
        }
      ],
      "stateMutability": "nonpayable",
      "type": "function"
    },
    {
      "inputs": [
        {
          "internalType": "uint256",
          "name": "_totalECOxSnapshot",
          "type": "uint256"
        },
        {
          "internalType": "uint256",
          "name": "_excludedVotingPower",
          "type": "uint256"
        }
      ],
      "name": "configure",
      "outputs": [],
      "stateMutability": "nonpayable",
      "type": "function"
    },
    {
      "inputs": [],
      "name": "deployProposalVoting",
      "outputs": [],
      "stateMutability": "nonpayable",
      "type": "function"
    },
    {
      "inputs": [],
      "name": "destruct",
      "outputs": [],
      "stateMutability": "nonpayable",
      "type": "function"
    },
    {
      "inputs": [],
      "name": "ecoToken",
      "outputs": [
        {
          "internalType": "contract ECO",
          "name": "",
          "type": "address"
        }
      ],
      "stateMutability": "view",
      "type": "function"
    },
    {
      "inputs": [],
      "name": "excludedVotingPower",
      "outputs": [
        {
          "internalType": "uint256",
          "name": "",
          "type": "uint256"
        }
      ],
      "stateMutability": "view",
      "type": "function"
    },
    {
      "inputs": [],
      "name": "implementation",
      "outputs": [
        {
          "internalType": "address",
          "name": "_impl",
          "type": "address"
        }
      ],
      "stateMutability": "view",
      "type": "function"
    },
    {
      "inputs": [
        {
          "internalType": "address",
          "name": "_self",
          "type": "address"
        }
      ],
      "name": "initialize",
      "outputs": [],
      "stateMutability": "nonpayable",
      "type": "function"
    },
    {
      "inputs": [],
      "name": "policy",
      "outputs": [
        {
          "internalType": "contract Policy",
          "name": "",
          "type": "address"
        }
      ],
      "stateMutability": "view",
      "type": "function"
    },
    {
      "inputs": [
        {
          "internalType": "address",
          "name": "_delegate",
          "type": "address"
        },
        {
          "internalType": "bytes",
          "name": "_data",
          "type": "bytes"
        }
      ],
      "name": "policyCommand",
      "outputs": [],
      "stateMutability": "nonpayable",
      "type": "function"
    },
    {
      "inputs": [],
      "name": "policyVotesImpl",
      "outputs": [
        {
          "internalType": "contract PolicyVotes",
          "name": "",
          "type": "address"
        }
      ],
      "stateMutability": "view",
      "type": "function"
    },
    {
      "inputs": [],
      "name": "proposalEnds",
      "outputs": [
        {
          "internalType": "uint256",
          "name": "",
          "type": "uint256"
        }
      ],
      "stateMutability": "view",
      "type": "function"
    },
    {
      "inputs": [],
      "name": "proposalSelected",
      "outputs": [
        {
          "internalType": "bool",
          "name": "",
          "type": "bool"
        }
      ],
      "stateMutability": "view",
      "type": "function"
    },
    {
      "inputs": [],
      "name": "proposalToConfigure",
      "outputs": [
        {
          "internalType": "contract Proposal",
          "name": "",
          "type": "address"
        }
      ],
      "stateMutability": "view",
      "type": "function"
    },
    {
      "inputs": [
        {
          "internalType": "contract Proposal",
          "name": "",
          "type": "address"
        }
      ],
      "name": "proposals",
      "outputs": [
        {
          "components": [
            {
              "internalType": "address",
              "name": "proposer",
              "type": "address"
            },
            {
              "internalType": "contract Proposal",
              "name": "proposal",
              "type": "address"
            },
            {
              "internalType": "uint256",
              "name": "totalStake",
              "type": "uint256"
            },
            {
              "internalType": "bool",
              "name": "feeWaived",
              "type": "bool"
            }
          ],
          "internalType": "struct PolicyProposals.PropMetadata",
          "name": "metadata",
          "type": "tuple"
        }
      ],
      "stateMutability": "view",
      "type": "function"
    },
    {
      "inputs": [
        {
          "internalType": "contract Proposal",
          "name": "_prop",
          "type": "address"
        }
      ],
      "name": "refund",
      "outputs": [],
      "stateMutability": "nonpayable",
      "type": "function"
    },
    {
      "inputs": [
        {
          "internalType": "contract Proposal",
          "name": "_prop",
          "type": "address"
        }
      ],
      "name": "registerProposal",
      "outputs": [],
      "stateMutability": "nonpayable",
      "type": "function"
    },
    {
      "inputs": [
        {
          "internalType": "address",
          "name": "_addr",
          "type": "address"
        }
      ],
      "name": "setExpectedInterfaceSet",
      "outputs": [],
      "stateMutability": "nonpayable",
      "type": "function"
    },
    {
      "inputs": [
        {
          "internalType": "contract Proposal",
          "name": "_prop",
          "type": "address"
        }
      ],
      "name": "support",
      "outputs": [],
      "stateMutability": "nonpayable",
      "type": "function"
    },
    {
      "inputs": [],
      "name": "totalECOxSnapshot",
      "outputs": [
        {
          "internalType": "uint256",
          "name": "",
          "type": "uint256"
        }
      ],
      "stateMutability": "view",
      "type": "function"
    },
    {
      "inputs": [],
      "name": "totalProposals",
      "outputs": [
        {
          "internalType": "uint256",
          "name": "",
          "type": "uint256"
        }
      ],
      "stateMutability": "view",
      "type": "function"
    },
    {
      "inputs": [
        {
          "internalType": "uint256",
          "name": "_blockNumber",
          "type": "uint256"
        }
      ],
      "name": "totalVotingPower",
      "outputs": [
        {
          "internalType": "uint256",
          "name": "",
          "type": "uint256"
        }
      ],
      "stateMutability": "view",
      "type": "function"
    },
    {
      "inputs": [],
      "name": "totalVotingThreshold",
      "outputs": [
        {
          "internalType": "uint256",
          "name": "",
          "type": "uint256"
        }
      ],
      "stateMutability": "view",
      "type": "function"
    },
    {
      "inputs": [
        {
          "internalType": "contract Proposal",
          "name": "_prop",
          "type": "address"
        }
      ],
      "name": "unsupport",
      "outputs": [],
      "stateMutability": "nonpayable",
      "type": "function"
    },
    {
      "inputs": [
        {
          "internalType": "address",
          "name": "_who",
          "type": "address"
        },
        {
          "internalType": "uint256",
          "name": "_blockNumber",
          "type": "uint256"
        }
      ],
      "name": "votingPower",
      "outputs": [
        {
          "internalType": "uint256",
          "name": "",
          "type": "uint256"
        }
      ],
      "stateMutability": "view",
      "type": "function"
    }
  ],
  "bytecode": "0x60c06040523480156200001157600080fd5b506040516200377d3803806200377d83398101604081905262000034916200031c565b82818180620000433062000275565b6001600160a01b038116620000c55760405162461bcd60e51b815260206004820152603860248201527f556e7265636f76657261626c653a20646f206e6f74207365742074686520706f60448201527f6c69637920617320746865207a65726f2061646472657373000000000000000060648201526084015b60405180910390fd5b6001600160a01b0381166080819052604051635df8122f60e01b81523060048201526024810191909152731820a4b7618bde71dce8cdc73aab6c95905fad2490635df8122f90604401600060405180830381600087803b1580156200012957600080fd5b505af11580156200013e573d6000803e3d6000fd5b50505050506001600160a01b03821615159050620001c55760405162461bcd60e51b815260206004820152603a60248201527f556e7265636f76657261626c653a20646f206e6f742073657420746865205f6560448201527f636f4164647220617320746865207a65726f20616464726573730000000000006064820152608401620000bc565b6001600160a01b0390811660a0528316151590506200024d5760405162461bcd60e51b815260206004820152603e60248201527f556e7265636f76657261626c653a20646f206e6f742073657420746865205f7060448201527f6f6c696379766f74657320617320746865207a65726f206164647265737300006064820152608401620000bc565b50600980546001600160a01b0319166001600160a01b03929092169190911790555062000370565b6001600160a01b038116620002976000805160206200375d8339815191525490565b6001600160a01b03161415620002f05760405162461bcd60e51b815260206004820152601f60248201527f496d706c656d656e746174696f6e20616c7265616479206d61746368696e67006044820152606401620000bc565b6000805160206200375d83398151915255565b6001600160a01b03811681146200031957600080fd5b50565b6000806000606084860312156200033257600080fd5b83516200033f8162000303565b6020850151909350620003528162000303565b6040850151909250620003658162000303565b809150509250925092565b60805160a051613365620003f86000396000818161045701528181610b2a0152818161172d0152818161182701528181611d8801528181611e6c01526128ee01526000818161023001528181610583015281816107c401528181610a8d01528181610b6a0152818161108b0152818161114701528181612ad70152612cc401526133656000f3fe608060405234801561001057600080fd5b50600436106102265760003560e01c80635c60da1b1161012a578063a78d80fc116100bd578063dea645351161008c578063e660cc0811610071578063e660cc081461053d578063ec7f729c14610550578063fa89401a1461055857600080fd5b8063dea6453514610521578063e12c3ca31461053457600080fd5b8063a78d80fc146104d6578063af12645a146104df578063c3d2a0bc146104e9578063c4d66de81461050e57600080fd5b80638881a874116100f95780638881a874146104925780638cb17056146104a3578063984db242146104ad5780639dd6d3b9146104cd57600080fd5b80635c60da1b1461042b578063705d530414610452578063762ec1e91461047957806381e538761461048a57600080fd5b806339634e0c116101bd57806343f479fd1161018c578063537299371161017157806353729937146104065780635423b94d1461040f57806357e871e71461042257600080fd5b806343f479fd146103ea578063536f9f42146103f357600080fd5b806339634e0c146103945780633dc716f3146103a75780633e32747a146103c45780633fc9d621146103d757600080fd5b80632b68b9c6116101f95780632b68b9c6146102ba5780633341b445146102c257806334f1020e14610383578063376cf9bf1461038b57600080fd5b80630505c8c91461022b57806309d7f23b1461027c57806309ed460714610291578063249cb3fa14610299575b600080fd5b6102527f000000000000000000000000000000000000000000000000000000000000000081565b60405173ffffffffffffffffffffffffffffffffffffffff90911681526020015b60405180910390f35b61028f61028a366004613061565b61056b565b005b61025261065f565b6102ac6102a7366004613143565b6107c0565b604051908152602001610273565b61028f6108ea565b61032f6102d0366004613173565b6003602081815260009283526040928390208351608081018552815473ffffffffffffffffffffffffffffffffffffffff90811682526001830154169281019290925260028101549382019390935291015460ff161515606082015281565b6040516102739190600060808201905073ffffffffffffffffffffffffffffffffffffffff808451168352806020850151166020840152506040830151604083015260608301511515606083015292915050565b61028f610cf0565b6102ac60075481565b61028f6103a2366004613173565b61112f565b6005546103b49060ff1681565b6040519015158152602001610273565b61028f6103d2366004613190565b61123b565b61028f6103e5366004613173565b611363565b6102ac60025481565b6102ac6104013660046131b2565b6116e4565b6102ac6103e881565b6102ac61041d3660046131cb565b6117d6565b6102ac60085481565b7ff86c915dad5894faca0dfa067c58fdf4307406d255ed0a65db394f82b77f53d454610252565b6102527f000000000000000000000000000000000000000000000000000000000000000081565b6102ac69010f0cf064dd5920000081565b6102ac606481565b6102ac69021e19e0c9bab240000081565b6102ac6212750081565b6009546102529073ffffffffffffffffffffffffffffffffffffffff1681565b6102ac60015481565b6102ac60045481565b6102ac620cbe8081565b60055461025290610100900473ffffffffffffffffffffffffffffffffffffffff1681565b61028f61051c366004613173565b611975565b61028f61052f366004613173565b611b27565b6102ac60065481565b61028f61054b366004613173565b61204b565b6102ac600f81565b61028f610566366004613173565b6125be565b3373ffffffffffffffffffffffffffffffffffffffff7f00000000000000000000000000000000000000000000000000000000000000001614610635576040517f08c379a000000000000000000000000000000000000000000000000000000000815260206004820152602d60248201527f4f6e6c792074686520706f6c69637920636f6e7472616374206d61792063616c60448201527f6c2074686973206d6574686f640000000000000000000000000000000000000060648201526084015b60405180910390fd5b600080825160208401855af43d806000803e81801561065357816000f35b816000fd5b5050505050565b60003061068a7ff86c915dad5894faca0dfa067c58fdf4307406d255ed0a65db394f82b77f53d45490565b73ffffffffffffffffffffffffffffffffffffffff161461072d576040517f08c379a000000000000000000000000000000000000000000000000000000000815260206004820152602660248201527f54686973206d6574686f642063616e6e6f742062652063616c6c6564206f6e2060448201527f636c6f6e65730000000000000000000000000000000000000000000000000000606482015260840161062c565b600061073830612a31565b6040517fc4d66de800000000000000000000000000000000000000000000000000000000815230600482015290915073ffffffffffffffffffffffffffffffffffffffff82169063c4d66de890602401600060405180830381600087803b1580156107a257600080fd5b505af11580156107b6573d6000803e3d6000fd5b5092949350505050565b60007f000000000000000000000000000000000000000000000000000000000000000073ffffffffffffffffffffffffffffffffffffffff168273ffffffffffffffffffffffffffffffffffffffff161480610836575060005473ffffffffffffffffffffffffffffffffffffffff8381169116145b6108c2576040517f08c379a000000000000000000000000000000000000000000000000000000000815260206004820152603b60248201527f4f6e6c792074686520706f6c696379206f7220696e7465726661636520636f6e60448201527f74726163742063616e207365742074686520696e746572666163650000000000606482015260840161062c565b507fa2ef4600d742022d532d4747cb3547474667d6f13804902513b2ec01c848f4b492915050565b60055460ff16806108fc575060075442115b6109af576040517f08c379a0000000000000000000000000000000000000000000000000000000008152602060048201526044602482018190527f546865206465737472756374206f7065726174696f6e2063616e206f6e6c7920908201527f626520706572666f726d6564207768656e2074686520706572696f642069732060648201527f6f76657200000000000000000000000000000000000000000000000000000000608482015260a40161062c565b60045415610a3f576040517f08c379a000000000000000000000000000000000000000000000000000000000815260206004820152602660248201527f4d75737420726566756e6420616c6c206d69737365642070726f706f73616c7360448201527f2066697273740000000000000000000000000000000000000000000000000000606482015260840161062c565b6040517f3376dc020000000000000000000000000000000000000000000000000000000081527f331e3a11698d428947c09d6cfecc92b2ccbc4a527e4e795d850152babfaff37a60048201527f000000000000000000000000000000000000000000000000000000000000000073ffffffffffffffffffffffffffffffffffffffff1690633376dc0290602401600060405180830381600087803b158015610ae657600080fd5b505af1158015610afa573d6000803e3d6000fd5b50506040517f70a082310000000000000000000000000000000000000000000000000000000081523060048201527f000000000000000000000000000000000000000000000000000000000000000073ffffffffffffffffffffffffffffffffffffffff16925063a9059cbb91507f00000000000000000000000000000000000000000000000000000000000000009083906370a082319060240160206040518083038186803b158015610bad57600080fd5b505afa158015610bc1573d6000803e3d6000fd5b505050506040513d601f19601f82011682018060405250810190610be591906131f7565b6040517fffffffff0000000000000000000000000000000000000000000000000000000060e085901b16815273ffffffffffffffffffffffffffffffffffffffff90921660048301526024820152604401602060405180830381600087803b158015610c5057600080fd5b505af1158015610c64573d6000803e3d6000fd5b505050506040513d601f19601f82011682018060405250810190610c889190613210565b610cee576040517f08c379a000000000000000000000000000000000000000000000000000000000815260206004820152600f60248201527f5472616e73666572204661696c65640000000000000000000000000000000000604482015260640161062c565b565b60055460ff16610d5c576040517f08c379a000000000000000000000000000000000000000000000000000000000815260206004820152601d60248201527f6e6f2070726f706f73616c20686173206265656e2073656c6563746564000000604482015260640161062c565b600554610100900473ffffffffffffffffffffffffffffffffffffffff1680610de1576040517f08c379a000000000000000000000000000000000000000000000000000000000815260206004820181905260248201527f766f74696e672068617320616c7265616479206265656e206465706c6f796564604482015260640161062c565b73ffffffffffffffffffffffffffffffffffffffff808216600090815260036020819052604082208054600580547fffffffffffffffffffffff0000000000000000000000000000000000000000ff16905581547fffffffffffffffffffffffff00000000000000000000000000000000000000009081168355600183018054909116905560028201849055910180547fffffffffffffffffffffffffffffffffffffffffffffffffffffffffffffff001690556004805491909316929091610ea983613261565b9091555050600954604080517f09ed4607000000000000000000000000000000000000000000000000000000008152905160009273ffffffffffffffffffffffffffffffffffffffff16916309ed460791600480830192602092919082900301818787803b158015610f1a57600080fd5b505af1158015610f2e573d6000803e3d6000fd5b505050506040513d601f19601f82011682018060405250810190610f529190613296565b6008546001546002546040517f461a22b300000000000000000000000000000000000000000000000000000000815273ffffffffffffffffffffffffffffffffffffffff8881166004830152878116602483015260448201949094526064810192909252608482015291925082169063461a22b39060a401600060405180830381600087803b158015610fe457600080fd5b505af1158015610ff8573d6000803e3d6000fd5b50506040517f7b12b4550000000000000000000000000000000000000000000000000000000081527f65474dbc3934a157baaaa893dea8c73453f0cc9c47a4f857047e8f0c8b54888f600482015273ffffffffffffffffffffffffffffffffffffffff84811660248301527f331e3a11698d428947c09d6cfecc92b2ccbc4a527e4e795d850152babfaff37a60448301527f0000000000000000000000000000000000000000000000000000000000000000169250637b12b4559150606401600060405180830381600087803b1580156110d157600080fd5b505af11580156110e5573d6000803e3d6000fd5b505060405173ffffffffffffffffffffffffffffffffffffffff841692507f96d53cebc4306e6d2e0c0c31750cee34ce44cb92e542424cd7f43ddb3a5857049150600090a2505050565b3373ffffffffffffffffffffffffffffffffffffffff7f000000000000000000000000000000000000000000000000000000000000000016146111f4576040517f08c379a000000000000000000000000000000000000000000000000000000000815260206004820152602d60248201527f4f6e6c792074686520706f6c69637920636f6e7472616374206d61792063616c60448201527f6c2074686973206d6574686f6400000000000000000000000000000000000000606482015260840161062c565b600080547fffffffffffffffffffffffff00000000000000000000000000000000000000001673ffffffffffffffffffffffffffffffffffffffff92909216919091179055565b600154156112cb576040517f08c379a000000000000000000000000000000000000000000000000000000000815260206004820152602960248201527f5468697320696e7374616e63652068617320616c7265616479206265656e206360448201527f6f6e666967757265640000000000000000000000000000000000000000000000606482015260840161062c565b81611358576040517f08c379a000000000000000000000000000000000000000000000000000000000815260206004820152602360248201527f496e76616c69642076616c756520666f722045434f7820766f74696e6720706f60448201527f7765720000000000000000000000000000000000000000000000000000000000606482015260840161062c565b600191909155600255565b3061138d7f331e3a11698d428947c09d6cfecc92b2ccbc4a527e4e795d850152babfaff37a612a9a565b73ffffffffffffffffffffffffffffffffffffffff1614611430576040517f08c379a000000000000000000000000000000000000000000000000000000000815260206004820152602260248201527f50726f706f73616c20636f6e7472616374206e6f206c6f6e676572206163746960448201527f7665000000000000000000000000000000000000000000000000000000000000606482015260840161062c565b60055460ff16156114c2576040517f08c379a0000000000000000000000000000000000000000000000000000000008152602060048201526024808201527f412070726f706f73616c2068617320616c7265616479206265656e2073656c6560448201527f6374656400000000000000000000000000000000000000000000000000000000606482015260840161062c565b6007544210611579576040517f08c379a000000000000000000000000000000000000000000000000000000000815260206004820152604e60248201527f50726f706f73616c73206d6179206e6f206c6f6e67657220626520737570706f60448201527f7274656420626563617573652074686520726567697374726174696f6e20706560648201527f72696f642068617320656e646564000000000000000000000000000000000000608482015260a40161062c565b73ffffffffffffffffffffffffffffffffffffffff81166000908152600360209081526040808320338452600481019092529091205460ff1661163e576040517f08c379a000000000000000000000000000000000000000000000000000000000815260206004820152602160248201527f596f752068617665206e6f74207374616b656420746869732070726f706f736160448201527f6c00000000000000000000000000000000000000000000000000000000000000606482015260840161062c565b600061164c336008546117d6565b90508082600001600201600082825461166591906132b3565b909155505033600081815260048401602052604080822080547fffffffffffffffffffffffffffffffffffffffffffffffffffffffffffffff001690555173ffffffffffffffffffffffffffffffffffffffff861692917f4c167103e052a33aeab9affe91d94a8f5f224fb1ba8d6d5af4e46e514a41b57e91a3505050565b6040517f981b24d000000000000000000000000000000000000000000000000000000000815260048101829052600090819073ffffffffffffffffffffffffffffffffffffffff7f0000000000000000000000000000000000000000000000000000000000000000169063981b24d09060240160206040518083038186803b15801561176f57600080fd5b505afa158015611783573d6000803e3d6000fd5b505050506040513d601f19601f820116820180604052508101906117a791906131f7565b9050600254600154600a6117bb91906132ca565b6117c59083613307565b6117cf91906132b3565b9392505050565b6040517f3a46b1a800000000000000000000000000000000000000000000000000000000815273ffffffffffffffffffffffffffffffffffffffff83811660048301526024820183905260009182917f00000000000000000000000000000000000000000000000000000000000000001690633a46b1a89060440160206040518083038186803b15801561186957600080fd5b505afa15801561187d573d6000803e3d6000fd5b505050506040513d601f19601f820116820180604052508101906118a191906131f7565b905060006118ad612b7b565b6040517fcd3fd38400000000000000000000000000000000000000000000000000000000815273ffffffffffffffffffffffffffffffffffffffff878116600483015260248201879052919091169063cd3fd3849060440160206040518083038186803b15801561191d57600080fd5b505afa158015611931573d6000803e3d6000fd5b505050506040513d601f19601f8201168201806040525081019061195591906131f7565b905061196281600a6132ca565b61196c9083613307565b95945050505050565b600061199f7ff86c915dad5894faca0dfa067c58fdf4307406d255ed0a65db394f82b77f53d45490565b73ffffffffffffffffffffffffffffffffffffffff1614611a42576040517f08c379a000000000000000000000000000000000000000000000000000000000815260206004820152602860248201527f43616e206f6e6c792062652063616c6c656420647572696e6720696e6974696160448201527f6c697a6174696f6e000000000000000000000000000000000000000000000000606482015260840161062c565b611a4b81612bab565b8073ffffffffffffffffffffffffffffffffffffffff1663984db2426040518163ffffffff1660e01b815260040160206040518083038186803b158015611a9157600080fd5b505afa158015611aa5573d6000803e3d6000fd5b505050506040513d601f19601f82011682018060405250810190611ac99190613296565b600980547fffffffffffffffffffffffff00000000000000000000000000000000000000001673ffffffffffffffffffffffffffffffffffffffff92909216919091179055620cbe8042611b1d9190613307565b6007555043600855565b73ffffffffffffffffffffffffffffffffffffffff8116611ba4576040517f08c379a000000000000000000000000000000000000000000000000000000000815260206004820152601f60248201527f5468652070726f706f73616c20616464726573732063616e2774206265203000604482015260640161062c565b60075442108015611bb8575060055460ff16155b611c6a576040517f08c379a000000000000000000000000000000000000000000000000000000000815260206004820152604f60248201527f50726f706f73616c73206d6179206e6f206c6f6e67657220626520726567697360448201527f746572656420626563617573652074686520726567697374726174696f6e207060648201527f6572696f642068617320656e6465640000000000000000000000000000000000608482015260a40161062c565b73ffffffffffffffffffffffffffffffffffffffff8082166000908152600360205260409020600181015490911615611d25576040517f08c379a000000000000000000000000000000000000000000000000000000000815260206004820152602660248201527f412070726f706f73616c206d6179206f6e6c792062652072656769737465726560448201527f64206f6e63650000000000000000000000000000000000000000000000000000606482015260840161062c565b60018101805473ffffffffffffffffffffffffffffffffffffffff84167fffffffffffffffffffffffff0000000000000000000000000000000000000000918216179091558154163317815560048054906000611d818361331f565b91905055507f000000000000000000000000000000000000000000000000000000000000000073ffffffffffffffffffffffffffffffffffffffff16635c975abb6040518163ffffffff1660e01b815260040160206040518083038186803b158015611dec57600080fd5b505afa158015611e00573d6000803e3d6000fd5b505050506040513d601f19601f82011682018060405250810190611e249190613210565b611fb4576040517f23b872dd00000000000000000000000000000000000000000000000000000000815233600482015230602482015269021e19e0c9bab240000060448201527f000000000000000000000000000000000000000000000000000000000000000073ffffffffffffffffffffffffffffffffffffffff16906323b872dd90606401602060405180830381600087803b158015611ec557600080fd5b505af1158015611ed9573d6000803e3d6000fd5b505050506040513d601f19601f82011682018060405250810190611efd9190613210565b611faf576040517f08c379a000000000000000000000000000000000000000000000000000000000815260206004820152605d60248201527f54686520746f6b656e20636f7374206f6620726567697374726174696f6e206d60448201527f75737420626520617070726f76656420746f207472616e73666572207072696f60648201527f7220746f2063616c6c696e6720726567697374657250726f706f73616c000000608482015260a40161062c565b611fe2565b6003810180547fffffffffffffffffffffffffffffffffffffffffffffffffffffffffffffff001660011790555b60405173ffffffffffffffffffffffffffffffffffffffff83169033907f98ada70a1cb506dc4591465e1ee9be3fd7a2b6c73ecf3b949009718c9a35151990600090a360065461204757600f6120396008546116e4565b61204391906132ca565b6006555b5050565b306120757f331e3a11698d428947c09d6cfecc92b2ccbc4a527e4e795d850152babfaff37a612a9a565b73ffffffffffffffffffffffffffffffffffffffff1614612118576040517f08c379a000000000000000000000000000000000000000000000000000000000815260206004820152602260248201527f50726f706f73616c20636f6e7472616374206e6f206c6f6e676572206163746960448201527f7665000000000000000000000000000000000000000000000000000000000000606482015260840161062c565b60055460ff16156121aa576040517f08c379a0000000000000000000000000000000000000000000000000000000008152602060048201526024808201527f412070726f706f73616c2068617320616c7265616479206265656e2073656c6560448201527f6374656400000000000000000000000000000000000000000000000000000000606482015260840161062c565b6007544210612261576040517f08c379a000000000000000000000000000000000000000000000000000000000815260206004820152604e60248201527f50726f706f73616c73206d6179206e6f206c6f6e67657220626520737570706f60448201527f7274656420626563617573652074686520726567697374726174696f6e20706560648201527f72696f642068617320656e646564000000000000000000000000000000000000608482015260a40161062c565b73ffffffffffffffffffffffffffffffffffffffff80821660009081526003602052604090206001810154909182911661231d576040517f08c379a000000000000000000000000000000000000000000000000000000000815260206004820152602860248201527f54686520737570706f727465642070726f706f73616c206973206e6f7420726560448201527f6769737465726564000000000000000000000000000000000000000000000000606482015260840161062c565b33600090815260048301602052604090205460ff16156123bf576040517f08c379a000000000000000000000000000000000000000000000000000000000815260206004820152603060248201527f596f75206d6179206e6f74207374616b6520696e20737570706f7274206f662060448201527f612070726f706f73616c20747769636500000000000000000000000000000000606482015260840161062c565b60006123cd336008546117d6565b905060008111612485576040517f08c379a000000000000000000000000000000000000000000000000000000000815260206004820152604960248201527f496e206f7264657220746f20737570706f727420612070726f706f73616c207960448201527f6f75206d757374207374616b652061206e6f6e2d7a65726f20616d6f756e742060648201527f6f6620746f6b656e730000000000000000000000000000000000000000000000608482015260a40161062c565b60008183600201546124979190613307565b6002840181905533600081815260048701602052604080822080547fffffffffffffffffffffffffffffffffffffffffffffffffffffffffffffff001660011790555192935073ffffffffffffffffffffffffffffffffffffffff8816927fb3c205034c4cecc47ba710615ad80879be14b177df75ddbcce0237302ea3fa809190a36006546125276064836132ca565b11156106585760405173ffffffffffffffffffffffffffffffffffffffff8616907f2579eab5d400c5cc266359842639b59e8c3629d634c5e6d274fe8ad69128844a90600090a26005805473ffffffffffffffffffffffffffffffffffffffff8716610100027fffffffffffffffffffffff0000000000000000000000000000000000000000009091161760011790555050505050565b60055460ff1680156125eb5750600554610100900473ffffffffffffffffffffffffffffffffffffffff16155b806125f7575060075442115b6126a9576040517f08c379a000000000000000000000000000000000000000000000000000000000815260206004820152604d60248201527f526566756e6473206d6179206e6f74206265206469737472696275746564207560448201527f6e74696c2074686520706572696f64206973206f766572206f7220766f74696e60648201527f6720686173207374617274656400000000000000000000000000000000000000608482015260a40161062c565b73ffffffffffffffffffffffffffffffffffffffff8116612726576040517f08c379a000000000000000000000000000000000000000000000000000000000815260206004820152601f60248201527f5468652070726f706f73616c20616464726573732063616e2774206265203000604482015260640161062c565b73ffffffffffffffffffffffffffffffffffffffff80821660008181526003602052604090206001810154909216146127e1576040517f08c379a000000000000000000000000000000000000000000000000000000000815260206004820152602a60248201527f5468652070726f76696465642070726f706f73616c206164647265737320697360448201527f206e6f742076616c696400000000000000000000000000000000000000000000606482015260840161062c565b805460038083015473ffffffffffffffffffffffffffffffffffffffff858116600090815260208490526040812080547fffffffffffffffffffffffff0000000000000000000000000000000000000000908116825560018201805490911690556002810182905590930180547fffffffffffffffffffffffffffffffffffffffffffffffffffffffffffffff0016905560048054919094169360ff909216159290919061288e83613261565b91905055508015612a2b576040517fa9059cbb00000000000000000000000000000000000000000000000000000000815273ffffffffffffffffffffffffffffffffffffffff838116600483015269010f0cf064dd5920000060248301527f0000000000000000000000000000000000000000000000000000000000000000169063a9059cbb90604401602060405180830381600087803b15801561293257600080fd5b505af1158015612946573d6000803e3d6000fd5b505050506040513d601f19601f8201168201806040525081019061296a9190613210565b6129d0576040517f08c379a000000000000000000000000000000000000000000000000000000000815260206004820152600f60248201527f5472616e73666572204661696c65640000000000000000000000000000000000604482015260640161062c565b8373ffffffffffffffffffffffffffffffffffffffff168273ffffffffffffffffffffffffffffffffffffffff167fc52fd9b1554962318237b164e3ab32e9c2afbce879a97267fa3828763fbb142a60405160405180910390a35b50505050565b6000808260601b90506040517f3d602d80600a3d3981f3363d3d373d3d3d363d7300000000000000000000000081528160148201527f5af43d82803e903d91602b57fd5bf3000000000000000000000000000000000060288201526037816000f0949350505050565b6040517faabbb8ca00000000000000000000000000000000000000000000000000000000815273ffffffffffffffffffffffffffffffffffffffff7f000000000000000000000000000000000000000000000000000000000000000016600482015260248101829052600090731820a4b7618bde71dce8cdc73aab6c95905fad249063aabbb8ca9060440160206040518083038186803b158015612b3d57600080fd5b505afa158015612b51573d6000803e3d6000fd5b505050506040513d601f19601f82011682018060405250810190612b759190613296565b92915050565b6000612ba67f3776fba25fb0e7d0848ec503ec48569754f9d46736d6ace08b6eed818399d8e1612a9a565b905090565b6000612bd57ff86c915dad5894faca0dfa067c58fdf4307406d255ed0a65db394f82b77f53d45490565b73ffffffffffffffffffffffffffffffffffffffff1614612c78576040517f08c379a000000000000000000000000000000000000000000000000000000000815260206004820152602860248201527f43616e206f6e6c792062652063616c6c656420647572696e6720696e6974696160448201527f6c697a6174696f6e000000000000000000000000000000000000000000000000606482015260840161062c565b612c8181612d36565b6040517f5df8122f00000000000000000000000000000000000000000000000000000000815230600482015273ffffffffffffffffffffffffffffffffffffffff7f0000000000000000000000000000000000000000000000000000000000000000166024820152731820a4b7618bde71dce8cdc73aab6c95905fad2490635df8122f90604401600060405180830381600087803b158015612d2257600080fd5b505af1158015610658573d6000803e3d6000fd5b6000612d607ff86c915dad5894faca0dfa067c58fdf4307406d255ed0a65db394f82b77f53d45490565b73ffffffffffffffffffffffffffffffffffffffff1614612e03576040517f08c379a000000000000000000000000000000000000000000000000000000000815260206004820152602860248201527f43616e206f6e6c792062652063616c6c656420647572696e6720696e6974696160448201527f6c697a6174696f6e000000000000000000000000000000000000000000000000606482015260840161062c565b60008173ffffffffffffffffffffffffffffffffffffffff16635c60da1b6040518163ffffffff1660e01b815260040160206040518083038186803b158015612e4b57600080fd5b505afa158015612e5f573d6000803e3d6000fd5b505050506040513d601f19601f82011682018060405250810190612e839190613296565b905073ffffffffffffffffffffffffffffffffffffffff8116612f28576040517f08c379a000000000000000000000000000000000000000000000000000000000815260206004820152602c60248201527f696e697469616c697a6174696f6e206661696c7572653a206e6f7468696e672060448201527f746f20696d706c656d656e740000000000000000000000000000000000000000606482015260840161062c565b612047818073ffffffffffffffffffffffffffffffffffffffff16612f6b7ff86c915dad5894faca0dfa067c58fdf4307406d255ed0a65db394f82b77f53d45490565b73ffffffffffffffffffffffffffffffffffffffff161415612fe9576040517f08c379a000000000000000000000000000000000000000000000000000000000815260206004820152601f60248201527f496d706c656d656e746174696f6e20616c7265616479206d61746368696e6700604482015260640161062c565b7ff86c915dad5894faca0dfa067c58fdf4307406d255ed0a65db394f82b77f53d455565b73ffffffffffffffffffffffffffffffffffffffff8116811461302f57600080fd5b50565b7f4e487b7100000000000000000000000000000000000000000000000000000000600052604160045260246000fd5b6000806040838503121561307457600080fd5b823561307f8161300d565b9150602083013567ffffffffffffffff8082111561309c57600080fd5b818501915085601f8301126130b057600080fd5b8135818111156130c2576130c2613032565b604051601f82017fffffffffffffffffffffffffffffffffffffffffffffffffffffffffffffffe0908116603f0116810190838211818310171561310857613108613032565b8160405282815288602084870101111561312157600080fd5b8260208601602083013760006020848301015280955050505050509250929050565b6000806040838503121561315657600080fd5b8235915060208301356131688161300d565b809150509250929050565b60006020828403121561318557600080fd5b81356117cf8161300d565b600080604083850312156131a357600080fd5b50508035926020909101359150565b6000602082840312156131c457600080fd5b5035919050565b600080604083850312156131de57600080fd5b82356131e98161300d565b946020939093013593505050565b60006020828403121561320957600080fd5b5051919050565b60006020828403121561322257600080fd5b815180151581146117cf57600080fd5b7f4e487b7100000000000000000000000000000000000000000000000000000000600052601160045260246000fd5b60008161327057613270613232565b507fffffffffffffffffffffffffffffffffffffffffffffffffffffffffffffffff0190565b6000602082840312156132a857600080fd5b81516117cf8161300d565b6000828210156132c5576132c5613232565b500390565b6000817fffffffffffffffffffffffffffffffffffffffffffffffffffffffffffffffff048311821515161561330257613302613232565b500290565b6000821982111561331a5761331a613232565b500190565b60007fffffffffffffffffffffffffffffffffffffffffffffffffffffffffffffffff82141561335157613351613232565b506001019056fea164736f6c6343000809000af86c915dad5894faca0dfa067c58fdf4307406d255ed0a65db394f82b77f53d4",
  "linkReferences": {},
  "deployedLinkReferences": {}
}