{
  "_format": "hh-sol-artifact-1",
  "contractName": "Policy",
  "sourceName": "contracts/policy/Policy.sol",
  "abi": [
    {
      "inputs": [],
      "name": "implementation",
      "outputs": [
        {
          "internalType": "address",
          "name": "_impl",
          "type": "address"
        }
      ],
      "stateMutability": "view",
      "type": "function"
    },
    {
      "inputs": [
        {
          "internalType": "address",
          "name": "_self",
          "type": "address"
        }
      ],
      "name": "initialize",
      "outputs": [],
      "stateMutability": "nonpayable",
      "type": "function"
    },
    {
      "inputs": [
        {
          "internalType": "address",
          "name": "_delegate",
          "type": "address"
        },
        {
          "internalType": "bytes32",
          "name": "_authKey",
          "type": "bytes32"
        }
      ],
      "name": "internalCommand",
      "outputs": [],
      "stateMutability": "nonpayable",
      "type": "function"
    },
    {
      "inputs": [
        {
          "internalType": "bytes32",
          "name": "_interfaceIdentifierHash",
          "type": "bytes32"
        }
      ],
      "name": "policyFor",
      "outputs": [
        {
          "internalType": "address",
          "name": "",
          "type": "address"
        }
      ],
      "stateMutability": "view",
      "type": "function"
    },
    {
      "inputs": [
        {
          "internalType": "bytes32",
          "name": "_interfaceIdentifierHash",
          "type": "bytes32"
        }
      ],
      "name": "removeSelf",
      "outputs": [],
      "stateMutability": "nonpayable",
      "type": "function"
    },
    {
      "inputs": [
        {
          "internalType": "bytes32",
          "name": "_key",
          "type": "bytes32"
        },
        {
          "internalType": "address",
          "name": "_implementer",
          "type": "address"
        },
        {
          "internalType": "bytes32",
          "name": "_authKey",
          "type": "bytes32"
        }
      ],
      "name": "setPolicy",
      "outputs": [],
      "stateMutability": "nonpayable",
      "type": "function"
    },
    {
      "inputs": [
        {
          "internalType": "bytes32",
          "name": "",
          "type": "bytes32"
        }
      ],
      "name": "setters",
      "outputs": [
        {
          "internalType": "bool",
          "name": "",
          "type": "bool"
        }
      ],
      "stateMutability": "view",
      "type": "function"
    }
  ],
  "bytecode": "0x608060405234801561001057600080fd5b5061001a3061001f565b6100ac565b6001600160a01b03811661003f600080516020610e188339815191525490565b6001600160a01b0316141561009a5760405162461bcd60e51b815260206004820152601f60248201527f496d706c656d656e746174696f6e20616c7265616479206d61746368696e6700604482015260640160405180910390fd5b600080516020610e1883398151915255565b610d5d806100bb6000396000f3fe608060405234801561001057600080fd5b506004361061007d5760003560e01c8063996c8bff1161005b578063996c8bff146100f75780639e34681c1461012a578063a86f090d1461013d578063c4d66de81461015057600080fd5b80633376dc02146100825780635c60da1b146100975780637b12b455146100e4575b600080fd5b610095610090366004610c32565b610163565b005b7ff86c915dad5894faca0dfa067c58fdf4307406d255ed0a65db394f82b77f53d4545b60405173ffffffffffffffffffffffffffffffffffffffff90911681526020015b60405180910390f35b6100956100f2366004610c70565b6102b8565b61011a610105366004610c32565b60006020819052908152604090205460ff1681565b60405190151581526020016100db565b6100ba610138366004610c32565b61054a565b61009561014b366004610ca8565b6105f5565b61009561015e366004610cd4565b61095b565b6040517faabbb8ca00000000000000000000000000000000000000000000000000000000815230600482015260248101829052600090731820a4b7618bde71dce8cdc73aab6c95905fad249063aabbb8ca9060440160206040518083038186803b1580156101d057600080fd5b505afa1580156101e4573d6000803e3d6000fd5b505050506040513d601f19601f820116820180604052508101906102089190610cf8565b905073ffffffffffffffffffffffffffffffffffffffff81163314156102b4576040517f29965a1d0000000000000000000000000000000000000000000000000000000081523060048201526024810183905260006044820152731820a4b7618bde71dce8cdc73aab6c95905fad24906329965a1d90606401600060405180830381600087803b15801561029b57600080fd5b505af11580156102af573d6000803e3d6000fd5b505050505b5050565b600081815260208190526040902054819060ff1661035d576040517f08c379a000000000000000000000000000000000000000000000000000000000815260206004820152603160248201527f4964656e7469666965722068617368206973206e6f7420617574686f72697a6560448201527f6420666f72207468697320616374696f6e00000000000000000000000000000060648201526084015b60405180910390fd5b6040517faabbb8ca000000000000000000000000000000000000000000000000000000008152306004820152602481018290523390731820a4b7618bde71dce8cdc73aab6c95905fad249063aabbb8ca9060440160206040518083038186803b1580156103c957600080fd5b505afa1580156103dd573d6000803e3d6000fd5b505050506040513d601f19601f820116820180604052508101906104019190610cf8565b73ffffffffffffffffffffffffffffffffffffffff16146104a4576040517f08c379a000000000000000000000000000000000000000000000000000000000815260206004820152603360248201527f43616c6c6572206973206e6f742074686520617574686f72697a65642061646460448201527f7265737320666f72206964656e746966696572000000000000000000000000006064820152608401610354565b6040517f29965a1d0000000000000000000000000000000000000000000000000000000081523060048201526024810185905273ffffffffffffffffffffffffffffffffffffffff84166044820152731820a4b7618bde71dce8cdc73aab6c95905fad24906329965a1d90606401600060405180830381600087803b15801561052c57600080fd5b505af1158015610540573d6000803e3d6000fd5b5050505050505050565b6040517faabbb8ca00000000000000000000000000000000000000000000000000000000815230600482015260248101829052600090731820a4b7618bde71dce8cdc73aab6c95905fad249063aabbb8ca9060440160206040518083038186803b1580156105b757600080fd5b505afa1580156105cb573d6000803e3d6000fd5b505050506040513d601f19601f820116820180604052508101906105ef9190610cf8565b92915050565b600081815260208190526040902054819060ff16610695576040517f08c379a000000000000000000000000000000000000000000000000000000000815260206004820152603160248201527f4964656e7469666965722068617368206973206e6f7420617574686f72697a6560448201527f6420666f72207468697320616374696f6e0000000000000000000000000000006064820152608401610354565b6040517faabbb8ca000000000000000000000000000000000000000000000000000000008152306004820152602481018290523390731820a4b7618bde71dce8cdc73aab6c95905fad249063aabbb8ca9060440160206040518083038186803b15801561070157600080fd5b505afa158015610715573d6000803e3d6000fd5b505050506040513d601f19601f820116820180604052508101906107399190610cf8565b73ffffffffffffffffffffffffffffffffffffffff16146107dc576040517f08c379a000000000000000000000000000000000000000000000000000000000815260206004820152603360248201527f43616c6c6572206973206e6f742074686520617574686f72697a65642061646460448201527f7265737320666f72206964656e746966696572000000000000000000000000006064820152608401610354565b60405173ffffffffffffffffffffffffffffffffffffffff841660248201819052600091604401604080517fffffffffffffffffffffffffffffffffffffffffffffffffffffffffffffffe08184030181529181526020820180517bffffffffffffffffffffffffffffffffffffffffffffffffffffffff167fd6466c7900000000000000000000000000000000000000000000000000000000179052516108849190610d15565b600060405180830381855af49150503d80600081146108bf576040519150601f19603f3d011682016040523d82523d6000602084013e6108c4565b606091505b5050905080610955576040517f08c379a000000000000000000000000000000000000000000000000000000000815260206004820152602260248201527f436f6d6d616e64206661696c656420647572696e672064656c6567617465636160448201527f6c6c0000000000000000000000000000000000000000000000000000000000006064820152608401610354565b50505050565b60006109857ff86c915dad5894faca0dfa067c58fdf4307406d255ed0a65db394f82b77f53d45490565b73ffffffffffffffffffffffffffffffffffffffff1614610a28576040517f08c379a000000000000000000000000000000000000000000000000000000000815260206004820152602860248201527f43616e206f6e6c792062652063616c6c656420647572696e6720696e6974696160448201527f6c697a6174696f6e0000000000000000000000000000000000000000000000006064820152608401610354565b60008173ffffffffffffffffffffffffffffffffffffffff16635c60da1b6040518163ffffffff1660e01b815260040160206040518083038186803b158015610a7057600080fd5b505afa158015610a84573d6000803e3d6000fd5b505050506040513d601f19601f82011682018060405250810190610aa89190610cf8565b905073ffffffffffffffffffffffffffffffffffffffff8116610b4d576040517f08c379a000000000000000000000000000000000000000000000000000000000815260206004820152602c60248201527f696e697469616c697a6174696f6e206661696c7572653a206e6f7468696e672060448201527f746f20696d706c656d656e7400000000000000000000000000000000000000006064820152608401610354565b6102b4818073ffffffffffffffffffffffffffffffffffffffff16610b907ff86c915dad5894faca0dfa067c58fdf4307406d255ed0a65db394f82b77f53d45490565b73ffffffffffffffffffffffffffffffffffffffff161415610c0e576040517f08c379a000000000000000000000000000000000000000000000000000000000815260206004820152601f60248201527f496d706c656d656e746174696f6e20616c7265616479206d61746368696e67006044820152606401610354565b7ff86c915dad5894faca0dfa067c58fdf4307406d255ed0a65db394f82b77f53d455565b600060208284031215610c4457600080fd5b5035919050565b73ffffffffffffffffffffffffffffffffffffffff81168114610c6d57600080fd5b50565b600080600060608486031215610c8557600080fd5b833592506020840135610c9781610c4b565b929592945050506040919091013590565b60008060408385031215610cbb57600080fd5b8235610cc681610c4b565b946020939093013593505050565b600060208284031215610ce657600080fd5b8135610cf181610c4b565b9392505050565b600060208284031215610d0a57600080fd5b8151610cf181610c4b565b6000825160005b81811015610d365760208186018101518583015201610d1c565b81811115610d45576000828501525b50919091019291505056fea164736f6c6343000809000af86c915dad5894faca0dfa067c58fdf4307406d255ed0a65db394f82b77f53d4",
  "linkReferences": {},
  "deployedLinkReferences": {}
}