{
  "_format": "hh-sol-artifact-1",
  "contractName": "PolicyVotes",
  "sourceName": "contracts/governance/community/PolicyVotes.sol",
  "abi": [
    {
      "inputs": [
        {
          "internalType": "contract Policy",
          "name": "_policy",
          "type": "address"
        },
        {
          "internalType": "contract ECO",
          "name": "_ecoAddr",
          "type": "address"
        }
      ],
      "stateMutability": "nonpayable",
      "type": "constructor"
    },
    {
      "anonymous": false,
      "inputs": [
        {
          "indexed": true,
          "internalType": "address",
          "name": "voter",
          "type": "address"
        },
        {
          "indexed": false,
          "internalType": "uint256",
          "name": "votesYes",
          "type": "uint256"
        },
        {
          "indexed": false,
          "internalType": "uint256",
          "name": "votesNo",
          "type": "uint256"
        }
      ],
      "name": "PolicyVote",
      "type": "event"
    },
    {
      "anonymous": false,
      "inputs": [
        {
          "indexed": true,
          "internalType": "enum PolicyVotes.Result",
          "name": "result",
          "type": "uint8"
        }
      ],
      "name": "VoteCompletion",
      "type": "event"
    },
    {
      "inputs": [],
      "name": "ENACTION_DELAY",
      "outputs": [
        {
          "internalType": "uint256",
          "name": "",
          "type": "uint256"
        }
      ],
      "stateMutability": "view",
      "type": "function"
    },
    {
      "inputs": [],
      "name": "GENERATION_START",
      "outputs": [
        {
          "internalType": "uint256",
          "name": "",
          "type": "uint256"
        }
      ],
      "stateMutability": "view",
      "type": "function"
    },
    {
      "inputs": [],
      "name": "MIN_GENERATION_DURATION",
      "outputs": [
        {
          "internalType": "uint256",
          "name": "",
          "type": "uint256"
        }
      ],
      "stateMutability": "view",
      "type": "function"
    },
    {
      "inputs": [],
      "name": "VOTE_TIME",
      "outputs": [
        {
          "internalType": "uint256",
          "name": "",
          "type": "uint256"
        }
      ],
      "stateMutability": "view",
      "type": "function"
    },
    {
      "inputs": [],
      "name": "blockNumber",
      "outputs": [
        {
          "internalType": "uint256",
          "name": "",
          "type": "uint256"
        }
      ],
      "stateMutability": "view",
      "type": "function"
    },
    {
      "inputs": [
        {
          "internalType": "bytes32",
          "name": "",
          "type": "bytes32"
        },
        {
          "internalType": "address",
          "name": "_addr",
          "type": "address"
        }
      ],
      "name": "canImplementInterfaceForAddress",
      "outputs": [
        {
          "internalType": "bytes32",
          "name": "",
          "type": "bytes32"
        }
      ],
      "stateMutability": "view",
      "type": "function"
    },
    {
      "inputs": [],
      "name": "clone",
      "outputs": [
        {
          "internalType": "address",
          "name": "",
          "type": "address"
        }
      ],
      "stateMutability": "nonpayable",
      "type": "function"
    },
    {
      "inputs": [
        {
          "internalType": "contract Proposal",
          "name": "_proposal",
          "type": "address"
        },
        {
          "internalType": "address",
          "name": "_proposer",
          "type": "address"
        },
        {
          "internalType": "uint256",
          "name": "_cutoffBlockNumber",
          "type": "uint256"
        },
        {
          "internalType": "uint256",
          "name": "_totalECOxSnapshot",
          "type": "uint256"
        },
        {
          "internalType": "uint256",
          "name": "_excludedVotingPower",
          "type": "uint256"
        }
      ],
      "name": "configure",
      "outputs": [],
      "stateMutability": "nonpayable",
      "type": "function"
    },
    {
      "inputs": [],
      "name": "ecoToken",
      "outputs": [
        {
          "internalType": "contract ECO",
          "name": "",
          "type": "address"
        }
      ],
      "stateMutability": "view",
      "type": "function"
    },
    {
      "inputs": [],
      "name": "excludedVotingPower",
      "outputs": [
        {
          "internalType": "uint256",
          "name": "",
          "type": "uint256"
        }
      ],
      "stateMutability": "view",
      "type": "function"
    },
    {
      "inputs": [],
      "name": "execute",
      "outputs": [],
      "stateMutability": "nonpayable",
      "type": "function"
    },
    {
      "inputs": [],
      "name": "implementation",
      "outputs": [
        {
          "internalType": "address",
          "name": "_impl",
          "type": "address"
        }
      ],
      "stateMutability": "view",
      "type": "function"
    },
    {
      "inputs": [
        {
          "internalType": "address",
          "name": "_self",
          "type": "address"
        }
      ],
      "name": "initialize",
      "outputs": [],
      "stateMutability": "nonpayable",
      "type": "function"
    },
    {
      "inputs": [],
      "name": "policy",
      "outputs": [
        {
          "internalType": "contract Policy",
          "name": "",
          "type": "address"
        }
      ],
      "stateMutability": "view",
      "type": "function"
    },
    {
      "inputs": [
        {
          "internalType": "address",
          "name": "_delegate",
          "type": "address"
        },
        {
          "internalType": "bytes",
          "name": "_data",
          "type": "bytes"
        }
      ],
      "name": "policyCommand",
      "outputs": [],
      "stateMutability": "nonpayable",
      "type": "function"
    },
    {
      "inputs": [],
      "name": "proposal",
      "outputs": [
        {
          "internalType": "contract Proposal",
          "name": "",
          "type": "address"
        }
      ],
      "stateMutability": "view",
      "type": "function"
    },
    {
      "inputs": [],
      "name": "proposer",
      "outputs": [
        {
          "internalType": "address",
          "name": "",
          "type": "address"
        }
      ],
      "stateMutability": "view",
      "type": "function"
    },
    {
      "inputs": [
        {
          "internalType": "address",
          "name": "_addr",
          "type": "address"
        }
      ],
      "name": "setExpectedInterfaceSet",
      "outputs": [],
      "stateMutability": "nonpayable",
      "type": "function"
    },
    {
      "inputs": [],
      "name": "totalECOxSnapshot",
      "outputs": [
        {
          "internalType": "uint256",
          "name": "",
          "type": "uint256"
        }
      ],
      "stateMutability": "view",
      "type": "function"
    },
    {
      "inputs": [],
      "name": "totalStake",
      "outputs": [
        {
          "internalType": "uint256",
          "name": "",
          "type": "uint256"
        }
      ],
      "stateMutability": "view",
      "type": "function"
    },
    {
      "inputs": [
        {
          "internalType": "uint256",
          "name": "_blockNumber",
          "type": "uint256"
        }
      ],
      "name": "totalVotingPower",
      "outputs": [
        {
          "internalType": "uint256",
          "name": "",
          "type": "uint256"
        }
      ],
      "stateMutability": "view",
      "type": "function"
    },
    {
      "inputs": [
        {
          "internalType": "bool",
          "name": "_vote",
          "type": "bool"
        }
      ],
      "name": "vote",
      "outputs": [],
      "stateMutability": "nonpayable",
      "type": "function"
    },
    {
      "inputs": [],
      "name": "voteEnds",
      "outputs": [
        {
          "internalType": "uint256",
          "name": "",
          "type": "uint256"
        }
      ],
      "stateMutability": "view",
      "type": "function"
    },
    {
      "inputs": [
        {
          "internalType": "address",
          "name": "",
          "type": "address"
        }
      ],
      "name": "votePartials",
      "outputs": [
        {
          "internalType": "uint256",
          "name": "stake",
          "type": "uint256"
        },
        {
          "internalType": "uint256",
          "name": "yesVotes",
          "type": "uint256"
        }
      ],
      "stateMutability": "view",
      "type": "function"
    },
    {
      "inputs": [
        {
          "internalType": "uint256",
          "name": "_votesYes",
          "type": "uint256"
        },
        {
          "internalType": "uint256",
          "name": "_votesNo",
          "type": "uint256"
        }
      ],
      "name": "voteSplit",
      "outputs": [],
      "stateMutability": "nonpayable",
      "type": "function"
    },
    {
      "inputs": [
        {
          "internalType": "address",
          "name": "_who",
          "type": "address"
        },
        {
          "internalType": "uint256",
          "name": "_blockNumber",
          "type": "uint256"
        }
      ],
      "name": "votingPower",
      "outputs": [
        {
          "internalType": "uint256",
          "name": "",
          "type": "uint256"
        }
      ],
      "stateMutability": "view",
      "type": "function"
    },
    {
      "inputs": [],
      "name": "yesStake",
      "outputs": [
        {
          "internalType": "uint256",
          "name": "",
          "type": "uint256"
        }
      ],
      "stateMutability": "view",
      "type": "function"
    }
  ],
  "bytecode": "0x60c06040523480156200001157600080fd5b506040516200228438038062002284833981016040819052620000349162000282565b818181806200004330620001db565b6001600160a01b038116620000c55760405162461bcd60e51b815260206004820152603860248201527f556e7265636f76657261626c653a20646f206e6f74207365742074686520706f60448201527f6c69637920617320746865207a65726f2061646472657373000000000000000060648201526084015b60405180910390fd5b6001600160a01b0381166080819052604051635df8122f60e01b81523060048201526024810191909152731820a4b7618bde71dce8cdc73aab6c95905fad2490635df8122f90604401600060405180830381600087803b1580156200012957600080fd5b505af11580156200013e573d6000803e3d6000fd5b50505050506001600160a01b03821615159050620001c55760405162461bcd60e51b815260206004820152603a60248201527f556e7265636f76657261626c653a20646f206e6f742073657420746865205f6560448201527f636f4164647220617320746865207a65726f20616464726573730000000000006064820152608401620000bc565b6001600160a01b031660a05250620002c1915050565b6001600160a01b038116620001fd600080516020620022648339815191525490565b6001600160a01b03161415620002565760405162461bcd60e51b815260206004820152601f60248201527f496d706c656d656e746174696f6e20616c7265616479206d61746368696e67006044820152606401620000bc565b6000805160206200226483398151915255565b6001600160a01b03811681146200027f57600080fd5b50565b600080604083850312156200029657600080fd5b8251620002a38162000269565b6020840151909250620002b68162000269565b809150509250929050565b60805160a051611f3e620003266000396000818161035401528181610cc40152610dbe0152600081816101c3015281816104190152818161065a015281816107980152818161113f01528181611225015281816116c801526118850152611f3e6000f3fe608060405234801561001057600080fd5b50600436106101b95760003560e01c806353729937116100f957806385defaf4116100975780639dd6d3b9116100715780639dd6d3b9146103b2578063a8e4fb90146103bb578063c4d66de8146103db578063ce32de2b146103ee57600080fd5b806385defaf4146103965780638b0e9f3f1461039f5780638cb17056146103a857600080fd5b80635c60da1b116100d35780635c60da1b146103205780636146195414610347578063705d53041461034f578063753ec1031461037657600080fd5b806353729937146102fb5780635423b94d1461030457806357e871e71461031757600080fd5b806339634e0c11610166578063461a22b311610140578063461a22b3146102b8578063486a27db146102cb5780634b9f5c98146102d5578063536f9f42146102e857600080fd5b806339634e0c146102605780633ebff7961461027357806343f479fd146102af57600080fd5b8063249cb3fa11610197578063249cb3fa1461022c57806328ea6dda1461024d578063328a1da91461025657600080fd5b80630505c8c9146101be57806309d7f23b1461020f57806309ed460714610224575b600080fd5b6101e57f000000000000000000000000000000000000000000000000000000000000000081565b60405173ffffffffffffffffffffffffffffffffffffffff90911681526020015b60405180910390f35b61022261021d366004611c28565b610401565b005b6101e56104f5565b61023f61023a366004611d0a565b610656565b604051908152602001610206565b61023f60075481565b61023f6201518081565b61022261026e366004611d3a565b610780565b61029a610281366004611d3a565b6005602052600090815260409020805460019091015482565b60408051928352602083019190915201610206565b61023f60025481565b6102226102c6366004611d57565b61088c565b61023f6203f48081565b6102226102e3366004611da8565b61098b565b61023f6102f6366004611dca565b610c7b565b61023f6103e881565b61023f610312366004611de3565b610d6d565b61023f60095481565b7ff86c915dad5894faca0dfa067c58fdf4307406d255ed0a65db394f82b77f53d4546101e5565b610222610f0c565b6101e57f000000000000000000000000000000000000000000000000000000000000000081565b6003546101e59073ffffffffffffffffffffffffffffffffffffffff1681565b61023f60085481565b61023f60065481565b61023f6212750081565b61023f60015481565b6004546101e59073ffffffffffffffffffffffffffffffffffffffff1681565b6102226103e9366004611d3a565b611292565b6102226103fc366004611e0f565b61136b565b3373ffffffffffffffffffffffffffffffffffffffff7f000000000000000000000000000000000000000000000000000000000000000016146104cb576040517f08c379a000000000000000000000000000000000000000000000000000000000815260206004820152602d60248201527f4f6e6c792074686520706f6c69637920636f6e7472616374206d61792063616c60448201527f6c2074686973206d6574686f640000000000000000000000000000000000000060648201526084015b60405180910390fd5b600080825160208401855af43d806000803e8180156104e957816000f35b816000fd5b5050505050565b6000306105207ff86c915dad5894faca0dfa067c58fdf4307406d255ed0a65db394f82b77f53d45490565b73ffffffffffffffffffffffffffffffffffffffff16146105c3576040517f08c379a000000000000000000000000000000000000000000000000000000000815260206004820152602660248201527f54686973206d6574686f642063616e6e6f742062652063616c6c6564206f6e2060448201527f636c6f6e6573000000000000000000000000000000000000000000000000000060648201526084016104c2565b60006105ce306115f2565b6040517fc4d66de800000000000000000000000000000000000000000000000000000000815230600482015290915073ffffffffffffffffffffffffffffffffffffffff82169063c4d66de890602401600060405180830381600087803b15801561063857600080fd5b505af115801561064c573d6000803e3d6000fd5b5092949350505050565b60007f000000000000000000000000000000000000000000000000000000000000000073ffffffffffffffffffffffffffffffffffffffff168273ffffffffffffffffffffffffffffffffffffffff1614806106cc575060005473ffffffffffffffffffffffffffffffffffffffff8381169116145b610758576040517f08c379a000000000000000000000000000000000000000000000000000000000815260206004820152603b60248201527f4f6e6c792074686520706f6c696379206f7220696e7465726661636520636f6e60448201527f74726163742063616e207365742074686520696e74657266616365000000000060648201526084016104c2565b507fa2ef4600d742022d532d4747cb3547474667d6f13804902513b2ec01c848f4b492915050565b3373ffffffffffffffffffffffffffffffffffffffff7f00000000000000000000000000000000000000000000000000000000000000001614610845576040517f08c379a000000000000000000000000000000000000000000000000000000000815260206004820152602d60248201527f4f6e6c792074686520706f6c69637920636f6e7472616374206d61792063616c60448201527f6c2074686973206d6574686f640000000000000000000000000000000000000060648201526084016104c2565b600080547fffffffffffffffffffffffff00000000000000000000000000000000000000001673ffffffffffffffffffffffffffffffffffffffff92909216919091179055565b6008541561091c576040517f08c379a000000000000000000000000000000000000000000000000000000000815260206004820152602960248201527f5468697320696e7374616e63652068617320616c7265616479206265656e206360448201527f6f6e66696775726564000000000000000000000000000000000000000000000060648201526084016104c2565b6109296203f48042611e60565b6008556009929092556001556002556003805473ffffffffffffffffffffffffffffffffffffffff9384167fffffffffffffffffffffffff00000000000000000000000000000000000000009182161790915560048054929093169116179055565b6008544210610a1c576040517f08c379a000000000000000000000000000000000000000000000000000000000815260206004820152603360248201527f566f7465732063616e206f6e6c79206265207265636f7264656420647572696e60448201527f672074686520766f74696e6720706572696f640000000000000000000000000060648201526084016104c2565b6000610a2a33600954610d6d565b905060008111610abc576040517f08c379a000000000000000000000000000000000000000000000000000000000815260206004820152603560248201527f566f74657273206d75737420686176652068656c6420746f6b656e732062656660448201527f6f7265207468697320766f74696e67206379636c65000000000000000000000060648201526084016104c2565b336000908152600560205260409020805460018201548015158215610bb257851515811515141580610aee5750848314155b80610b015750858015610b015750848214155b610b8d576040517f08c379a000000000000000000000000000000000000000000000000000000000815260206004820152602360248201527f596f757220766f74652068617320616c7265616479206265656e207265636f7260448201527f646564000000000000000000000000000000000000000000000000000000000060648201526084016104c2565b8015610bb2578160076000828254610ba59190611e78565b9091555050600060018501555b8484556006548390610bc5908790611e60565b610bcf9190611e78565b6006558515610c36578460076000828254610bea9190611e60565b909155505060018401859055604080518681526000602082015233917f8e2080cf622a364ae4c70bd5a9a5179d93bcde8944098a6cae3b3e401a346c08910160405180910390a2610c73565b60408051600081526020810187905233917f8e2080cf622a364ae4c70bd5a9a5179d93bcde8944098a6cae3b3e401a346c08910160405180910390a25b505050505050565b6040517f981b24d000000000000000000000000000000000000000000000000000000000815260048101829052600090819073ffffffffffffffffffffffffffffffffffffffff7f0000000000000000000000000000000000000000000000000000000000000000169063981b24d09060240160206040518083038186803b158015610d0657600080fd5b505afa158015610d1a573d6000803e3d6000fd5b505050506040513d601f19601f82011682018060405250810190610d3e9190611e8f565b9050600254600154600a610d529190611ea8565b610d5c9083611e60565b610d669190611e78565b9392505050565b6040517f3a46b1a800000000000000000000000000000000000000000000000000000000815273ffffffffffffffffffffffffffffffffffffffff83811660048301526024820183905260009182917f00000000000000000000000000000000000000000000000000000000000000001690633a46b1a89060440160206040518083038186803b158015610e0057600080fd5b505afa158015610e14573d6000803e3d6000fd5b505050506040513d601f19601f82011682018060405250810190610e389190611e8f565b90506000610e4461165b565b6040517fcd3fd38400000000000000000000000000000000000000000000000000000000815273ffffffffffffffffffffffffffffffffffffffff878116600483015260248201879052919091169063cd3fd3849060440160206040518083038186803b158015610eb457600080fd5b505afa158015610ec8573d6000803e3d6000fd5b505050506040513d601f19601f82011682018060405250810190610eec9190611e8f565b9050610ef981600a611ea8565b610f039083611e60565b95945050505050565b6000610f19600954610c7b565b90506000816007546002610f2d9190611ea8565b1015610fd25762015180600854610f449190611e60565b4211610fd2576040517f08c379a000000000000000000000000000000000000000000000000000000000815260206004820152602c60248201527f4d616a6f7269747920737570706f727420726571756972656420666f7220656160448201527f726c7920656e616374696f6e000000000000000000000000000000000000000060648201526084016104c2565b30610ffc7f65474dbc3934a157baaaa893dea8c73453f0cc9c47a4f857047e8f0c8b54888f61168b565b73ffffffffffffffffffffffffffffffffffffffff161461109f576040517f08c379a000000000000000000000000000000000000000000000000000000000815260206004820152603b60248201527f5468697320636f6e7472616374206e6f206c6f6e67657220686173206175746860448201527f6f72697a6174696f6e20746f20656e6163742074686520766f7465000000000060648201526084016104c2565b6006546110ae5750600261119c565b6006546007546110bf906002611ea8565b10156110cd5750600161119c565b506003546040517fa86f090d00000000000000000000000000000000000000000000000000000000815273ffffffffffffffffffffffffffffffffffffffff91821660048201527f65474dbc3934a157baaaa893dea8c73453f0cc9c47a4f857047e8f0c8b54888f60248201526000917f0000000000000000000000000000000000000000000000000000000000000000169063a86f090d90604401600060405180830381600087803b15801561118357600080fd5b505af1158015611197573d6000803e3d6000fd5b505050505b8060028111156111ae576111ae611ee5565b6040517f2441aeccfbc030e727e55919999695be4f864a4e6b089cf7465e32ff4bf0099290600090a26040517f3376dc020000000000000000000000000000000000000000000000000000000081527f65474dbc3934a157baaaa893dea8c73453f0cc9c47a4f857047e8f0c8b54888f60048201527f000000000000000000000000000000000000000000000000000000000000000073ffffffffffffffffffffffffffffffffffffffff1690633376dc0290602401600060405180830381600087803b15801561127e57600080fd5b505af1158015610c73573d6000803e3d6000fd5b60006112bc7ff86c915dad5894faca0dfa067c58fdf4307406d255ed0a65db394f82b77f53d45490565b73ffffffffffffffffffffffffffffffffffffffff161461135f576040517f08c379a000000000000000000000000000000000000000000000000000000000815260206004820152602860248201527f43616e206f6e6c792062652063616c6c656420647572696e6720696e6974696160448201527f6c697a6174696f6e00000000000000000000000000000000000000000000000060648201526084016104c2565b6113688161176c565b50565b60085442106113fc576040517f08c379a000000000000000000000000000000000000000000000000000000000815260206004820152603360248201527f566f7465732063616e206f6e6c79206265207265636f7264656420647572696e60448201527f672074686520766f74696e6720706572696f640000000000000000000000000060648201526084016104c2565b600061140a33600954610d6d565b90506000811161149c576040517f08c379a000000000000000000000000000000000000000000000000000000000815260206004820152603560248201527f566f74657273206d75737420686176652068656c6420746f6b656e732062656660448201527f6f7265207468697320766f74696e67206379636c65000000000000000000000060648201526084016104c2565b60006114a88385611e60565b90508082101561153a576040517f08c379a000000000000000000000000000000000000000000000000000000000815260206004820152603760248201527f596f757220766f74696e6720706f776572206973206c657373207468616e207360448201527f75626d697474656420796573202b206e6f20766f74657300000000000000000060648201526084016104c2565b33600090815260056020526040902080546001820154801561156e5780600760008282546115689190611e78565b90915550505b86836001018190555086600760008282546115899190611e60565b909155505083835560065482906115a1908690611e60565b6115ab9190611e78565b600655604080518881526020810188905233917f8e2080cf622a364ae4c70bd5a9a5179d93bcde8944098a6cae3b3e401a346c08910160405180910390a250505050505050565b6000808260601b90506040517f3d602d80600a3d3981f3363d3d373d3d3d363d7300000000000000000000000081528160148201527f5af43d82803e903d91602b57fd5bf3000000000000000000000000000000000060288201526037816000f0949350505050565b60006116867f3776fba25fb0e7d0848ec503ec48569754f9d46736d6ace08b6eed818399d8e161168b565b905090565b6040517faabbb8ca00000000000000000000000000000000000000000000000000000000815273ffffffffffffffffffffffffffffffffffffffff7f000000000000000000000000000000000000000000000000000000000000000016600482015260248101829052600090731820a4b7618bde71dce8cdc73aab6c95905fad249063aabbb8ca9060440160206040518083038186803b15801561172e57600080fd5b505afa158015611742573d6000803e3d6000fd5b505050506040513d601f19601f820116820180604052508101906117669190611f14565b92915050565b60006117967ff86c915dad5894faca0dfa067c58fdf4307406d255ed0a65db394f82b77f53d45490565b73ffffffffffffffffffffffffffffffffffffffff1614611839576040517f08c379a000000000000000000000000000000000000000000000000000000000815260206004820152602860248201527f43616e206f6e6c792062652063616c6c656420647572696e6720696e6974696160448201527f6c697a6174696f6e00000000000000000000000000000000000000000000000060648201526084016104c2565b611842816118f7565b6040517f5df8122f00000000000000000000000000000000000000000000000000000000815230600482015273ffffffffffffffffffffffffffffffffffffffff7f0000000000000000000000000000000000000000000000000000000000000000166024820152731820a4b7618bde71dce8cdc73aab6c95905fad2490635df8122f90604401600060405180830381600087803b1580156118e357600080fd5b505af11580156104ee573d6000803e3d6000fd5b60006119217ff86c915dad5894faca0dfa067c58fdf4307406d255ed0a65db394f82b77f53d45490565b73ffffffffffffffffffffffffffffffffffffffff16146119c4576040517f08c379a000000000000000000000000000000000000000000000000000000000815260206004820152602860248201527f43616e206f6e6c792062652063616c6c656420647572696e6720696e6974696160448201527f6c697a6174696f6e00000000000000000000000000000000000000000000000060648201526084016104c2565b60008173ffffffffffffffffffffffffffffffffffffffff16635c60da1b6040518163ffffffff1660e01b815260040160206040518083038186803b158015611a0c57600080fd5b505afa158015611a20573d6000803e3d6000fd5b505050506040513d601f19601f82011682018060405250810190611a449190611f14565b905073ffffffffffffffffffffffffffffffffffffffff8116611ae9576040517f08c379a000000000000000000000000000000000000000000000000000000000815260206004820152602c60248201527f696e697469616c697a6174696f6e206661696c7572653a206e6f7468696e672060448201527f746f20696d706c656d656e74000000000000000000000000000000000000000060648201526084016104c2565b611af281611af6565b5050565b8073ffffffffffffffffffffffffffffffffffffffff16611b357ff86c915dad5894faca0dfa067c58fdf4307406d255ed0a65db394f82b77f53d45490565b73ffffffffffffffffffffffffffffffffffffffff161415611bb3576040517f08c379a000000000000000000000000000000000000000000000000000000000815260206004820152601f60248201527f496d706c656d656e746174696f6e20616c7265616479206d61746368696e670060448201526064016104c2565b7ff86c915dad5894faca0dfa067c58fdf4307406d255ed0a65db394f82b77f53d455565b73ffffffffffffffffffffffffffffffffffffffff8116811461136857600080fd5b7f4e487b7100000000000000000000000000000000000000000000000000000000600052604160045260246000fd5b60008060408385031215611c3b57600080fd5b8235611c4681611bd7565b9150602083013567ffffffffffffffff80821115611c6357600080fd5b818501915085601f830112611c7757600080fd5b813581811115611c8957611c89611bf9565b604051601f82017fffffffffffffffffffffffffffffffffffffffffffffffffffffffffffffffe0908116603f01168101908382118183101715611ccf57611ccf611bf9565b81604052828152886020848701011115611ce857600080fd5b8260208601602083013760006020848301015280955050505050509250929050565b60008060408385031215611d1d57600080fd5b823591506020830135611d2f81611bd7565b809150509250929050565b600060208284031215611d4c57600080fd5b8135610d6681611bd7565b600080600080600060a08688031215611d6f57600080fd5b8535611d7a81611bd7565b94506020860135611d8a81611bd7565b94979496505050506040830135926060810135926080909101359150565b600060208284031215611dba57600080fd5b81358015158114610d6657600080fd5b600060208284031215611ddc57600080fd5b5035919050565b60008060408385031215611df657600080fd5b8235611e0181611bd7565b946020939093013593505050565b60008060408385031215611e2257600080fd5b50508035926020909101359150565b7f4e487b7100000000000000000000000000000000000000000000000000000000600052601160045260246000fd5b60008219821115611e7357611e73611e31565b500190565b600082821015611e8a57611e8a611e31565b500390565b600060208284031215611ea157600080fd5b5051919050565b6000817fffffffffffffffffffffffffffffffffffffffffffffffffffffffffffffffff0483118215151615611ee057611ee0611e31565b500290565b7f4e487b7100000000000000000000000000000000000000000000000000000000600052602160045260246000fd5b600060208284031215611f2657600080fd5b8151610d6681611bd756fea164736f6c6343000809000af86c915dad5894faca0dfa067c58fdf4307406d255ed0a65db394f82b77f53d4",
  "linkReferences": {},
  "deployedLinkReferences": {}
}