{
  "_format": "hh-sol-artifact-1",
  "contractName": "RandomInflation",
  "sourceName": "contracts/governance/monetary/RandomInflation.sol",
  "abi": [
    {
      "inputs": [
        {
          "internalType": "contract Policy",
          "name": "_policy",
          "type": "address"
        },
        {
          "internalType": "contract VDFVerifier",
          "name": "_vdfVerifierImpl",
          "type": "address"
        },
        {
          "internalType": "uint256",
          "name": "_randomDifficulty",
          "type": "uint256"
        },
        {
          "internalType": "contract InflationRootHashProposal",
          "name": "_inflationRootHashProposalImpl",
          "type": "address"
        },
        {
          "internalType": "contract ECO",
          "name": "_ecoAddr",
          "type": "address"
        }
      ],
      "stateMutability": "nonpayable",
      "type": "constructor"
    },
    {
      "anonymous": false,
      "inputs": [
        {
          "indexed": true,
          "internalType": "address",
          "name": "who",
          "type": "address"
        },
        {
          "indexed": false,
          "internalType": "uint256",
          "name": "sequence",
          "type": "uint256"
        }
      ],
      "name": "Claim",
      "type": "event"
    },
    {
      "anonymous": false,
      "inputs": [
        {
          "indexed": false,
          "internalType": "bytes32",
          "name": "seed",
          "type": "bytes32"
        }
      ],
      "name": "EntropySeedReveal",
      "type": "event"
    },
    {
      "anonymous": false,
      "inputs": [
        {
          "indexed": false,
          "internalType": "uint256",
          "name": "seed",
          "type": "uint256"
        }
      ],
      "name": "EntropyVDFSeedCommit",
      "type": "event"
    },
    {
      "anonymous": false,
      "inputs": [
        {
          "indexed": true,
          "internalType": "contract VDFVerifier",
          "name": "vdfVerifier",
          "type": "address"
        },
        {
          "indexed": true,
          "internalType": "contract InflationRootHashProposal",
          "name": "inflationRootHashProposal",
          "type": "address"
        },
        {
          "indexed": false,
          "internalType": "uint256",
          "name": "claimPeriodStarts",
          "type": "uint256"
        }
      ],
      "name": "InflationStart",
      "type": "event"
    },
    {
      "inputs": [],
      "name": "BITMAP_MAXIMUM",
      "outputs": [
        {
          "internalType": "uint256",
          "name": "",
          "type": "uint256"
        }
      ],
      "stateMutability": "view",
      "type": "function"
    },
    {
      "inputs": [],
      "name": "CLAIM_PERIOD",
      "outputs": [
        {
          "internalType": "uint256",
          "name": "",
          "type": "uint256"
        }
      ],
      "stateMutability": "view",
      "type": "function"
    },
    {
      "inputs": [],
      "name": "GENERATION_START",
      "outputs": [
        {
          "internalType": "uint256",
          "name": "",
          "type": "uint256"
        }
      ],
      "stateMutability": "view",
      "type": "function"
    },
    {
      "inputs": [],
      "name": "MILLER_RABIN_ROUNDS",
      "outputs": [
        {
          "internalType": "uint256",
          "name": "",
          "type": "uint256"
        }
      ],
      "stateMutability": "view",
      "type": "function"
    },
    {
      "inputs": [],
      "name": "MIN_GENERATION_DURATION",
      "outputs": [
        {
          "internalType": "uint256",
          "name": "",
          "type": "uint256"
        }
      ],
      "stateMutability": "view",
      "type": "function"
    },
    {
      "inputs": [],
      "name": "PRIME_BOUND",
      "outputs": [
        {
          "internalType": "uint256",
          "name": "",
          "type": "uint256"
        }
      ],
      "stateMutability": "view",
      "type": "function"
    },
    {
      "inputs": [],
      "name": "blockNumber",
      "outputs": [
        {
          "internalType": "uint256",
          "name": "",
          "type": "uint256"
        }
      ],
      "stateMutability": "view",
      "type": "function"
    },
    {
      "inputs": [
        {
          "internalType": "bytes32",
          "name": "",
          "type": "bytes32"
        },
        {
          "internalType": "address",
          "name": "_addr",
          "type": "address"
        }
      ],
      "name": "canImplementInterfaceForAddress",
      "outputs": [
        {
          "internalType": "bytes32",
          "name": "",
          "type": "bytes32"
        }
      ],
      "stateMutability": "view",
      "type": "function"
    },
    {
      "inputs": [
        {
          "internalType": "uint256",
          "name": "_sequence",
          "type": "uint256"
        },
        {
          "internalType": "bytes32[]",
          "name": "_proof",
          "type": "bytes32[]"
        },
        {
          "internalType": "uint256",
          "name": "_sum",
          "type": "uint256"
        },
        {
          "internalType": "uint256",
          "name": "_index",
          "type": "uint256"
        }
      ],
      "name": "claim",
      "outputs": [],
      "stateMutability": "nonpayable",
      "type": "function"
    },
    {
      "inputs": [
        {
          "internalType": "address",
          "name": "_who",
          "type": "address"
        },
        {
          "internalType": "uint256",
          "name": "_sequence",
          "type": "uint256"
        },
        {
          "internalType": "bytes32[]",
          "name": "_proof",
          "type": "bytes32[]"
        },
        {
          "internalType": "uint256",
          "name": "_sum",
          "type": "uint256"
        },
        {
          "internalType": "uint256",
          "name": "_index",
          "type": "uint256"
        }
      ],
      "name": "claimFor",
      "outputs": [],
      "stateMutability": "nonpayable",
      "type": "function"
    },
    {
      "inputs": [],
      "name": "claimPeriodStarts",
      "outputs": [
        {
          "internalType": "uint256",
          "name": "",
          "type": "uint256"
        }
      ],
      "stateMutability": "view",
      "type": "function"
    },
    {
      "inputs": [
        {
          "internalType": "uint256",
          "name": "",
          "type": "uint256"
        }
      ],
      "name": "claimed",
      "outputs": [
        {
          "internalType": "uint256",
          "name": "",
          "type": "uint256"
        }
      ],
      "stateMutability": "view",
      "type": "function"
    },
    {
      "inputs": [],
      "name": "clone",
      "outputs": [
        {
          "internalType": "address",
          "name": "",
          "type": "address"
        }
      ],
      "stateMutability": "nonpayable",
      "type": "function"
    },
    {
      "inputs": [
        {
          "internalType": "uint256",
          "name": "_primal",
          "type": "uint256"
        }
      ],
      "name": "commitEntropyVDFSeed",
      "outputs": [],
      "stateMutability": "nonpayable",
      "type": "function"
    },
    {
      "inputs": [],
      "name": "destruct",
      "outputs": [],
      "stateMutability": "nonpayable",
      "type": "function"
    },
    {
      "inputs": [],
      "name": "ecoToken",
      "outputs": [
        {
          "internalType": "contract ECO",
          "name": "",
          "type": "address"
        }
      ],
      "stateMutability": "view",
      "type": "function"
    },
    {
      "inputs": [],
      "name": "entropyVDFSeed",
      "outputs": [
        {
          "internalType": "uint256",
          "name": "",
          "type": "uint256"
        }
      ],
      "stateMutability": "view",
      "type": "function"
    },
    {
      "inputs": [],
      "name": "implementation",
      "outputs": [
        {
          "internalType": "address",
          "name": "_impl",
          "type": "address"
        }
      ],
      "stateMutability": "view",
      "type": "function"
    },
    {
      "inputs": [],
      "name": "inflationRootHashProposal",
      "outputs": [
        {
          "internalType": "contract InflationRootHashProposal",
          "name": "",
          "type": "address"
        }
      ],
      "stateMutability": "view",
      "type": "function"
    },
    {
      "inputs": [
        {
          "internalType": "address",
          "name": "_self",
          "type": "address"
        }
      ],
      "name": "initialize",
      "outputs": [],
      "stateMutability": "nonpayable",
      "type": "function"
    },
    {
      "inputs": [],
      "name": "numRecipients",
      "outputs": [
        {
          "internalType": "uint256",
          "name": "",
          "type": "uint256"
        }
      ],
      "stateMutability": "view",
      "type": "function"
    },
    {
      "inputs": [],
      "name": "policy",
      "outputs": [
        {
          "internalType": "contract Policy",
          "name": "",
          "type": "address"
        }
      ],
      "stateMutability": "view",
      "type": "function"
    },
    {
      "inputs": [
        {
          "internalType": "address",
          "name": "_delegate",
          "type": "address"
        },
        {
          "internalType": "bytes",
          "name": "_data",
          "type": "bytes"
        }
      ],
      "name": "policyCommand",
      "outputs": [],
      "stateMutability": "nonpayable",
      "type": "function"
    },
    {
      "inputs": [
        {
          "internalType": "uint256",
          "name": "",
          "type": "uint256"
        }
      ],
      "name": "primals",
      "outputs": [
        {
          "internalType": "uint256",
          "name": "",
          "type": "uint256"
        }
      ],
      "stateMutability": "view",
      "type": "function"
    },
    {
      "inputs": [],
      "name": "randomVDFDifficulty",
      "outputs": [
        {
          "internalType": "uint256",
          "name": "",
          "type": "uint256"
        }
      ],
      "stateMutability": "view",
      "type": "function"
    },
    {
      "inputs": [],
      "name": "reward",
      "outputs": [
        {
          "internalType": "uint256",
          "name": "",
          "type": "uint256"
        }
      ],
      "stateMutability": "view",
      "type": "function"
    },
    {
      "inputs": [],
      "name": "seed",
      "outputs": [
        {
          "internalType": "bytes32",
          "name": "",
          "type": "bytes32"
        }
      ],
      "stateMutability": "view",
      "type": "function"
    },
    {
      "inputs": [
        {
          "internalType": "address",
          "name": "_addr",
          "type": "address"
        }
      ],
      "name": "setExpectedInterfaceSet",
      "outputs": [],
      "stateMutability": "nonpayable",
      "type": "function"
    },
    {
      "inputs": [
        {
          "internalType": "uint256",
          "name": "_primal",
          "type": "uint256"
        }
      ],
      "name": "setPrimal",
      "outputs": [],
      "stateMutability": "nonpayable",
      "type": "function"
    },
    {
      "inputs": [
        {
          "internalType": "uint256",
          "name": "_numRecipients",
          "type": "uint256"
        },
        {
          "internalType": "uint256",
          "name": "_reward",
          "type": "uint256"
        }
      ],
      "name": "startInflation",
      "outputs": [],
      "stateMutability": "nonpayable",
      "type": "function"
    },
    {
      "inputs": [
        {
          "internalType": "bytes",
          "name": "_y",
          "type": "bytes"
        }
      ],
      "name": "submitEntropyVDF",
      "outputs": [],
      "stateMutability": "nonpayable",
      "type": "function"
    },
    {
      "inputs": [],
      "name": "unclaimedRewards",
      "outputs": [
        {
          "internalType": "uint256",
          "name": "",
          "type": "uint256"
        }
      ],
      "stateMutability": "view",
      "type": "function"
    },
    {
      "inputs": [],
      "name": "vdfVerifier",
      "outputs": [
        {
          "internalType": "contract VDFVerifier",
          "name": "",
          "type": "address"
        }
      ],
      "stateMutability": "view",
      "type": "function"
    }
  ],
  "bytecode": "0x60c06040523480156200001157600080fd5b506040516200331d3803806200331d833981016040819052620000349162000402565b848062000041306200035b565b6001600160a01b038116620000c35760405162461bcd60e51b815260206004820152603860248201527f556e7265636f76657261626c653a20646f206e6f74207365742074686520706f60448201527f6c69637920617320746865207a65726f2061646472657373000000000000000060648201526084015b60405180910390fd5b6001600160a01b0381166080819052604051635df8122f60e01b81523060048201526024810191909152731820a4b7618bde71dce8cdc73aab6c95905fad2490635df8122f90604401600060405180830381600087803b1580156200012757600080fd5b505af11580156200013c573d6000803e3d6000fd5b50505050506001600160a01b03851615159050620001c35760405162461bcd60e51b815260206004820152603360248201527f646f206e6f742073657420746865205f7664665665726966696572496d706c2060448201527f617320746865207a65726f2061646472657373000000000000000000000000006064820152608401620000ba565b60008311620002265760405162461bcd60e51b815260206004820152602860248201527f646f206e6f742073657420746865205f72616e646f6d446966666963756c747960448201526720746f207a65726f60c01b6064820152608401620000ba565b6001600160a01b038216620002ae5760405162461bcd60e51b815260206004820152604160248201527f646f206e6f742073657420746865205f696e666c6174696f6e526f6f7448617360448201527f6850726f706f73616c496d706c20617320746865207a65726f206164647265736064820152607360f81b608482015260a401620000ba565b6001600160a01b0381166200031a5760405162461bcd60e51b815260206004820152602b60248201527f646f206e6f742073657420746865205f65636f4164647220617320746865207a60448201526a65726f206164647265737360a81b6064820152608401620000ba565b600a80546001600160a01b03199081166001600160a01b0396871617909155600693909355600b8054909316918416919091179091551660a0525062000476565b6001600160a01b0381166200037d600080516020620032fd8339815191525490565b6001600160a01b03161415620003d65760405162461bcd60e51b815260206004820152601f60248201527f496d706c656d656e746174696f6e20616c7265616479206d61746368696e67006044820152606401620000ba565b600080516020620032fd83398151915255565b6001600160a01b0381168114620003ff57600080fd5b50565b600080600080600060a086880312156200041b57600080fd5b85516200042881620003e9565b60208701519095506200043b81620003e9565b6040870151606088015191955093506200045581620003e9565b60808701519092506200046881620003e9565b809150509295509295909350565b60805160a051612e22620004db6000396000818161035401528181610a190152818161163c0152818161183001526120c3015260008181610215015281816105430152818161077f01528181610a5701528181610bf501526124c80152612e226000f3fe608060405234801561001057600080fd5b506004361061020b5760003560e01c80635cec23521161012a578063a7904485116100bd578063cfd519741161008c578063dbe7e3bd11610071578063dbe7e3bd14610447578063e53d5df414610467578063f85f91b41461047a57600080fd5b8063cfd519741461042b578063d7f5938f1461043457600080fd5b8063a790448514610303578063a940c425146103d8578063b86631f6146103f8578063c4d66de81461041857600080fd5b80638981cbce116100f95780638981cbce146103885780638cb170561461039b57806391249b67146103a55780639d353d94146103b857600080fd5b80635cec23521461033c578063705d53041461034f5780637d94792a1461037657806383ef542b1461037f57600080fd5b8063228cb733116101a25780634450868e116101715780634450868e146102fb578063537299371461030357806357e871e71461030c5780635c60da1b1461031557600080fd5b8063228cb733146102c4578063249cb3fa146102cd5780632b68b9c6146102e057806339634e0c146102e857600080fd5b8063125f6325116101de578063125f63251461029157806314bf2744146102a8578063176bf33f146102b157806321241dfe146102ba57600080fd5b80630505c8c914610210578063078f76eb1461026157806309d7f23b1461027657806309ed460714610289575b600080fd5b6102377f000000000000000000000000000000000000000000000000000000000000000081565b60405173ffffffffffffffffffffffffffffffffffffffff90911681526020015b60405180910390f35b61027461026f3660046127f1565b610483565b005b6102746102843660046128ad565b61052b565b61023761061a565b61029a60075481565b604051908152602001610258565b61029a60065481565b61029a60045481565b61029a6224ea0081565b61029a60015481565b61029a6102db366004612973565b61077b565b6102746108a5565b6102746102f63660046129a3565b610bdd565b61029a601981565b61029a6103e881565b61029a60035481565b7ff86c915dad5894faca0dfa067c58fdf4307406d255ed0a65db394f82b77f53d454610237565b61027461034a3660046129c7565b610ce9565b6102377f000000000000000000000000000000000000000000000000000000000000000081565b61029a60055481565b61029a61010081565b610274610396366004612a39565b610f6f565b61029a6212750081565b6102746103b33660046127f1565b61196c565b600a546102379073ffffffffffffffffffffffffffffffffffffffff1681565b61029a6103e63660046127f1565b600c6020526000908152604090205481565b600b546102379073ffffffffffffffffffffffffffffffffffffffff1681565b6102746104263660046129a3565b611bc3565b61029a60025481565b610274610442366004612b0d565b612015565b61029a6104553660046127f1565b60086020526000908152604090205481565b610274610475366004612b2f565b612304565b61029a60095481565b6000610490600143612bec565b40905080821180156104ac57506103e86104aa8284612bec565b105b610517576040517f08c379a000000000000000000000000000000000000000000000000000000000815260206004820181905260248201527f737567676573746564207072696d65206973206f7574206f6620626f756e647360448201526064015b60405180910390fd5b506000908152600c60205260409020439055565b3373ffffffffffffffffffffffffffffffffffffffff7f000000000000000000000000000000000000000000000000000000000000000016146105f0576040517f08c379a000000000000000000000000000000000000000000000000000000000815260206004820152602d60248201527f4f6e6c792074686520706f6c69637920636f6e7472616374206d61792063616c60448201527f6c2074686973206d6574686f6400000000000000000000000000000000000000606482015260840161050e565b600080825160208401855af43d806000803e81801561060e57816000f35b816000fd5b5050505050565b6000306106457ff86c915dad5894faca0dfa067c58fdf4307406d255ed0a65db394f82b77f53d45490565b73ffffffffffffffffffffffffffffffffffffffff16146106e8576040517f08c379a000000000000000000000000000000000000000000000000000000000815260206004820152602660248201527f54686973206d6574686f642063616e6e6f742062652063616c6c6564206f6e2060448201527f636c6f6e65730000000000000000000000000000000000000000000000000000606482015260840161050e565b60006106f330612346565b6040517fc4d66de800000000000000000000000000000000000000000000000000000000815230600482015290915073ffffffffffffffffffffffffffffffffffffffff82169063c4d66de890602401600060405180830381600087803b15801561075d57600080fd5b505af1158015610771573d6000803e3d6000fd5b5092949350505050565b60007f000000000000000000000000000000000000000000000000000000000000000073ffffffffffffffffffffffffffffffffffffffff168273ffffffffffffffffffffffffffffffffffffffff1614806107f1575060005473ffffffffffffffffffffffffffffffffffffffff8381169116145b61087d576040517f08c379a000000000000000000000000000000000000000000000000000000000815260206004820152603b60248201527f4f6e6c792074686520706f6c696379206f7220696e7465726661636520636f6e60448201527f74726163742063616e207365742074686520696e746572666163650000000000606482015260840161050e565b507fa2ef4600d742022d532d4747cb3547474667d6f13804902513b2ec01c848f4b492915050565b6005541515806108c457506224ea006007546108c19190612c03565b42115b610950576040517f08c379a000000000000000000000000000000000000000000000000000000000815260206004820152603d60248201527f456e74726f7079206e6f74207365742c207761697420756e74696c20656e642060448201527f6f662066756c6c20636c61696d20706572696f6420746f2061626f7274000000606482015260840161050e565b600554158061095f5750600954155b6109eb576040517f08c379a000000000000000000000000000000000000000000000000000000000815260206004820152602d60248201527f416c6c2072657761726473206d75737420626520636c61696d6564207072696f60448201527f7220746f20646573747275637400000000000000000000000000000000000000606482015260840161050e565b6040517f70a082310000000000000000000000000000000000000000000000000000000081523060048201527f000000000000000000000000000000000000000000000000000000000000000073ffffffffffffffffffffffffffffffffffffffff169063a9059cbb907f00000000000000000000000000000000000000000000000000000000000000009083906370a082319060240160206040518083038186803b158015610a9a57600080fd5b505afa158015610aae573d6000803e3d6000fd5b505050506040513d601f19601f82011682018060405250810190610ad29190612c1b565b6040517fffffffff0000000000000000000000000000000000000000000000000000000060e085901b16815273ffffffffffffffffffffffffffffffffffffffff90921660048301526024820152604401602060405180830381600087803b158015610b3d57600080fd5b505af1158015610b51573d6000803e3d6000fd5b505050506040513d601f19601f82011682018060405250810190610b759190612c34565b610bdb576040517f08c379a000000000000000000000000000000000000000000000000000000000815260206004820152600f60248201527f5472616e73666572204661696c65640000000000000000000000000000000000604482015260640161050e565b565b3373ffffffffffffffffffffffffffffffffffffffff7f00000000000000000000000000000000000000000000000000000000000000001614610ca2576040517f08c379a000000000000000000000000000000000000000000000000000000000815260206004820152602d60248201527f4f6e6c792074686520706f6c69637920636f6e7472616374206d61792063616c60448201527f6c2074686973206d6574686f6400000000000000000000000000000000000000606482015260840161050e565b600080547fffffffffffffffffffffffff00000000000000000000000000000000000000001673ffffffffffffffffffffffffffffffffffffffff92909216919091179055565b600454610d52576040517f08c379a000000000000000000000000000000000000000000000000000000000815260206004820152601860248201527f496e697469616c2073656564206d757374206265207365740000000000000000604482015260640161050e565b60055415610dbc576040517f08c379a000000000000000000000000000000000000000000000000000000000815260206004820152601460248201527f43616e206f6e6c79207375626d6974206f6e6365000000000000000000000000604482015260640161050e565b600a54600480546006546040517fc9e909bb00000000000000000000000000000000000000000000000000000000815273ffffffffffffffffffffffffffffffffffffffff9094169363c9e909bb93610e1b9392918891889101612c56565b60206040518083038186803b158015610e3357600080fd5b505afa158015610e47573d6000803e3d6000fd5b505050506040513d601f19601f82011682018060405250810190610e6b9190612c34565b610f1d576040517f08c379a000000000000000000000000000000000000000000000000000000000815260206004820152604660248201527f54686520564446206f75747075742076616c7565206d7573742062652076657260448201527f6966696564206279207468652056444620766572696669636174696f6e20636f60648201527f6e74726163740000000000000000000000000000000000000000000000000000608482015260a40161050e565b8181604051610f2d929190612cb1565b604051908190038120600581905581527f1c4de629a11f5cad3c610c53f9d1dd48d75641eb45361d04ffa64aa163afbd41906020015b60405180910390a15050565b600554610ffe576040517f08c379a000000000000000000000000000000000000000000000000000000000815260206004820152602860248201527f4d7573742070726f766520564446206265666f726520636c61696d732063616e60448201527f2062652070616964000000000000000000000000000000000000000000000000606482015260840161050e565b60025484106110b5576040517f08c379a000000000000000000000000000000000000000000000000000000000815260206004820152604160248201527f5468652070726f76696465642073657175656e6365206e756d626572206d757360448201527f742062652077697468696e2074686520736574206f6620726563697069656e7460648201527f7300000000000000000000000000000000000000000000000000000000000000608482015260a40161050e565b6002546110c56224ea0086612cc1565b6110cf9190612d2d565b6007546110dc9190612c03565b421161116a576040517f08c379a000000000000000000000000000000000000000000000000000000000815260206004820152603560248201527f4120636c61696d2063616e206f6e6c79206265206d616465206166746572206560448201527f6e6f7567682074696d6520686173207061737365640000000000000000000000606482015260840161050e565b61117661010085612d41565b6001901b6008600061118a61010088612d2d565b81526020019081526020016000205416600014611229576040517f08c379a000000000000000000000000000000000000000000000000000000000815260206004820152603860248201527f4120636c61696d2063616e206f6e6c79206265206d616465206966206974206860448201527f6173206e6f7420616c7265616479206265656e206d6164650000000000000000606482015260840161050e565b600b60009054906101000a900473ffffffffffffffffffffffffffffffffffffffff1673ffffffffffffffffffffffffffffffffffffffff1663a8c95a046040518163ffffffff1660e01b815260040160206040518083038186803b15801561129157600080fd5b505afa1580156112a5573d6000803e3d6000fd5b505050506040513d601f19601f820116820180604052508101906112c99190612c1b565b61137b576040517f08c379a000000000000000000000000000000000000000000000000000000000815260206004820152604960248201527f4120636c61696d2063616e206f6e6c79206265206d616465206166746572207260448201527f6f6f74206861736820666f7220746869732067656e65726174696f6e2077617360648201527f2061636365707465640000000000000000000000000000000000000000000000608482015260a40161050e565b600b546040517f77c02f1b00000000000000000000000000000000000000000000000000000000815273ffffffffffffffffffffffffffffffffffffffff909116906377c02f1b906113d7908890879087908790600401612d55565b60206040518083038186803b1580156113ef57600080fd5b505afa158015611403573d6000803e3d6000fd5b505050506040513d601f19601f820116820180604052508101906114279190612c34565b6114b3576040517f08c379a000000000000000000000000000000000000000000000000000000000815260206004820152603060248201527f4120636c61696d207375626d697373696f6e206661696c656420726f6f74206860448201527f61736820766572696669636174696f6e00000000000000000000000000000000606482015260840161050e565b6114bf61010085612d41565b6001901b600860006114d361010088612d2d565b815260200190815260200160002060008282546114f09190612c03565b90915550506009805490600061150583612dc3565b9091555050600b54604080517fa61b758e000000000000000000000000000000000000000000000000000000008152905160009273ffffffffffffffffffffffffffffffffffffffff169163a61b758e916004808301926020929190829003018186803b15801561157557600080fd5b505afa158015611589573d6000803e3d6000fd5b505050506040513d601f19601f820116820180604052508101906115ad9190612c1b565b60055460408051602081019290925281018790526060016040516020818303038152906040528051906020012060001c6115e79190612d41565b6003546040517f3a46b1a800000000000000000000000000000000000000000000000000000000815273ffffffffffffffffffffffffffffffffffffffff8981166004830152602482019290925291925084917f000000000000000000000000000000000000000000000000000000000000000090911690633a46b1a89060440160206040518083038186803b15801561168057600080fd5b505afa158015611694573d6000803e3d6000fd5b505050506040513d601f19601f820116820180604052508101906116b89190612c1b565b6116c29190612c03565b8110611750576040517f08c379a000000000000000000000000000000000000000000000000000000000815260206004820152602d60248201527f5468652070726f766964656420616464726573732063616e6e6f7420636c616960448201527f6d20746869732072657761726400000000000000000000000000000000000000606482015260840161050e565b828110156117e0576040517f08c379a000000000000000000000000000000000000000000000000000000000815260206004820152602d60248201527f5468652070726f766964656420616464726573732063616e6e6f7420636c616960448201527f6d20746869732072657761726400000000000000000000000000000000000000606482015260840161050e565b6001546040517fa9059cbb00000000000000000000000000000000000000000000000000000000815273ffffffffffffffffffffffffffffffffffffffff888116600483015260248201929092527f00000000000000000000000000000000000000000000000000000000000000009091169063a9059cbb90604401602060405180830381600087803b15801561187657600080fd5b505af115801561188a573d6000803e3d6000fd5b505050506040513d601f19601f820116820180604052508101906118ae9190612c34565b611914576040517f08c379a000000000000000000000000000000000000000000000000000000000815260206004820152600f60248201527f5472616e73666572204661696c65640000000000000000000000000000000000604482015260640161050e565b8573ffffffffffffffffffffffffffffffffffffffff167f47cee97cb7acd717b3c0aa1435d004cd5b3c8c57d70dbceb4e4458bbd60e39d48660405161195c91815260200190565b60405180910390a2505050505050565b600454156119fc576040517f08c379a000000000000000000000000000000000000000000000000000000000815260206004820152602160248201527f5468652056444620736565642068617320616c7265616479206265656e20736560448201527f7400000000000000000000000000000000000000000000000000000000000000606482015260840161050e565b6000818152600c60205260409020548015801590611a1957504381105b611a7f576040517f08c379a000000000000000000000000000000000000000000000000000000000815260206004820152601460248201527f7072696d616c20626c6f636b20696e76616c6964000000000000000000000000604482015260640161050e565b600a546040517fe3b932db000000000000000000000000000000000000000000000000000000008152600481018490526019602482015273ffffffffffffffffffffffffffffffffffffffff9091169063e3b932db9060440160206040518083038186803b158015611af057600080fd5b505afa158015611b04573d6000803e3d6000fd5b505050506040513d601f19601f82011682018060405250810190611b289190612c34565b611b8e576040517f08c379a000000000000000000000000000000000000000000000000000000000815260206004820152601b60248201527f696e707574206661696c6564207072696d616c69747920746573740000000000604482015260640161050e565b60048290556040518281527f70539a6e37f2e23e3d28692ab3f9a3259c03cdcb188ada2607c3ac6d347b3fb990602001610f63565b6000611bed7ff86c915dad5894faca0dfa067c58fdf4307406d255ed0a65db394f82b77f53d45490565b73ffffffffffffffffffffffffffffffffffffffff1614611c90576040517f08c379a000000000000000000000000000000000000000000000000000000000815260206004820152602860248201527f43616e206f6e6c792062652063616c6c656420647572696e6720696e6974696160448201527f6c697a6174696f6e000000000000000000000000000000000000000000000000606482015260840161050e565b611c99816123af565b611ca4600143612bec565b6003819055508073ffffffffffffffffffffffffffffffffffffffff16639d353d946040518163ffffffff1660e01b815260040160206040518083038186803b158015611cf057600080fd5b505afa158015611d04573d6000803e3d6000fd5b505050506040513d601f19601f82011682018060405250810190611d289190612df8565b73ffffffffffffffffffffffffffffffffffffffff166309ed46076040518163ffffffff1660e01b8152600401602060405180830381600087803b158015611d6f57600080fd5b505af1158015611d83573d6000803e3d6000fd5b505050506040513d601f19601f82011682018060405250810190611da79190612df8565b600a60006101000a81548173ffffffffffffffffffffffffffffffffffffffff021916908373ffffffffffffffffffffffffffffffffffffffff1602179055508073ffffffffffffffffffffffffffffffffffffffff166314bf27446040518163ffffffff1660e01b815260040160206040518083038186803b158015611e2d57600080fd5b505afa158015611e41573d6000803e3d6000fd5b505050506040513d601f19601f82011682018060405250810190611e659190612c1b565b6006819055508073ffffffffffffffffffffffffffffffffffffffff1663b86631f66040518163ffffffff1660e01b815260040160206040518083038186803b158015611eb157600080fd5b505afa158015611ec5573d6000803e3d6000fd5b505050506040513d601f19601f82011682018060405250810190611ee99190612df8565b73ffffffffffffffffffffffffffffffffffffffff166309ed46076040518163ffffffff1660e01b8152600401602060405180830381600087803b158015611f3057600080fd5b505af1158015611f44573d6000803e3d6000fd5b505050506040513d601f19601f82011682018060405250810190611f689190612df8565b600b80547fffffffffffffffffffffffff00000000000000000000000000000000000000001673ffffffffffffffffffffffffffffffffffffffff9290921691821790556003546040517f1eb25e0a0000000000000000000000000000000000000000000000000000000081526004810191909152631eb25e0a906024015b600060405180830381600087803b15801561200157600080fd5b505af1158015610613573d6000803e3d6000fd5b6000821180156120255750600081115b61208b576040517f08c379a000000000000000000000000000000000000000000000000000000000815260206004820152601a60248201527f436f6e7472616374206d75737420686176652072657761726473000000000000604482015260640161050e565b6120958183612cc1565b6040517f70a082310000000000000000000000000000000000000000000000000000000081523060048201527f000000000000000000000000000000000000000000000000000000000000000073ffffffffffffffffffffffffffffffffffffffff16906370a082319060240160206040518083038186803b15801561211a57600080fd5b505afa15801561212e573d6000803e3d6000fd5b505050506040513d601f19601f820116820180604052508101906121529190612c1b565b1015612206576040517f08c379a000000000000000000000000000000000000000000000000000000000815260206004820152604160248201527f54686520636f6e7472616374206d7573742068617665206120746f6b656e206260448201527f616c616e6365206174206c656173742074686520746f74616c2072657761726460648201527f7300000000000000000000000000000000000000000000000000000000000000608482015260a40161050e565b60025415612296576040517f08c379a000000000000000000000000000000000000000000000000000000000815260206004820152602160248201527f5468652073616c652063616e206f6e6c792062652073746172746564206f6e6360448201527f6500000000000000000000000000000000000000000000000000000000000000606482015260840161050e565b600282905560098290556001819055426007819055600b54600a5460405192835273ffffffffffffffffffffffffffffffffffffffff918216929116907fc6d24fc08315711d71bc09888bcdf05dcb2eb1bcd720c876f40d75a8b31404879060200160405180910390a35050565b6106133386868680806020026020016040519081016040528093929190818152602001838360200280828437600092019190915250889250879150610f6f9050565b6000808260601b90506040517f3d602d80600a3d3981f3363d3d373d3d3d363d7300000000000000000000000081528160148201527f5af43d82803e903d91602b57fd5bf3000000000000000000000000000000000060288201526037816000f0949350505050565b60006123d97ff86c915dad5894faca0dfa067c58fdf4307406d255ed0a65db394f82b77f53d45490565b73ffffffffffffffffffffffffffffffffffffffff161461247c576040517f08c379a000000000000000000000000000000000000000000000000000000000815260206004820152602860248201527f43616e206f6e6c792062652063616c6c656420647572696e6720696e6974696160448201527f6c697a6174696f6e000000000000000000000000000000000000000000000000606482015260840161050e565b61248581612511565b6040517f5df8122f00000000000000000000000000000000000000000000000000000000815230600482015273ffffffffffffffffffffffffffffffffffffffff7f0000000000000000000000000000000000000000000000000000000000000000166024820152731820a4b7618bde71dce8cdc73aab6c95905fad2490635df8122f90604401611fe7565b600061253b7ff86c915dad5894faca0dfa067c58fdf4307406d255ed0a65db394f82b77f53d45490565b73ffffffffffffffffffffffffffffffffffffffff16146125de576040517f08c379a000000000000000000000000000000000000000000000000000000000815260206004820152602860248201527f43616e206f6e6c792062652063616c6c656420647572696e6720696e6974696160448201527f6c697a6174696f6e000000000000000000000000000000000000000000000000606482015260840161050e565b60008173ffffffffffffffffffffffffffffffffffffffff16635c60da1b6040518163ffffffff1660e01b815260040160206040518083038186803b15801561262657600080fd5b505afa15801561263a573d6000803e3d6000fd5b505050506040513d601f19601f8201168201806040525081019061265e9190612df8565b905073ffffffffffffffffffffffffffffffffffffffff8116612703576040517f08c379a000000000000000000000000000000000000000000000000000000000815260206004820152602c60248201527f696e697469616c697a6174696f6e206661696c7572653a206e6f7468696e672060448201527f746f20696d706c656d656e740000000000000000000000000000000000000000606482015260840161050e565b61270c81612710565b5050565b8073ffffffffffffffffffffffffffffffffffffffff1661274f7ff86c915dad5894faca0dfa067c58fdf4307406d255ed0a65db394f82b77f53d45490565b73ffffffffffffffffffffffffffffffffffffffff1614156127cd576040517f08c379a000000000000000000000000000000000000000000000000000000000815260206004820152601f60248201527f496d706c656d656e746174696f6e20616c7265616479206d61746368696e6700604482015260640161050e565b7ff86c915dad5894faca0dfa067c58fdf4307406d255ed0a65db394f82b77f53d455565b60006020828403121561280357600080fd5b5035919050565b73ffffffffffffffffffffffffffffffffffffffff8116811461282c57600080fd5b50565b7f4e487b7100000000000000000000000000000000000000000000000000000000600052604160045260246000fd5b604051601f82017fffffffffffffffffffffffffffffffffffffffffffffffffffffffffffffffe016810167ffffffffffffffff811182821017156128a5576128a561282f565b604052919050565b600080604083850312156128c057600080fd5b82356128cb8161280a565b915060208381013567ffffffffffffffff808211156128e957600080fd5b818601915086601f8301126128fd57600080fd5b81358181111561290f5761290f61282f565b61293f847fffffffffffffffffffffffffffffffffffffffffffffffffffffffffffffffe0601f8401160161285e565b9150808252878482850101111561295557600080fd5b80848401858401376000848284010152508093505050509250929050565b6000806040838503121561298657600080fd5b8235915060208301356129988161280a565b809150509250929050565b6000602082840312156129b557600080fd5b81356129c08161280a565b9392505050565b600080602083850312156129da57600080fd5b823567ffffffffffffffff808211156129f257600080fd5b818501915085601f830112612a0657600080fd5b813581811115612a1557600080fd5b866020828501011115612a2757600080fd5b60209290920196919550909350505050565b600080600080600060a08688031215612a5157600080fd5b8535612a5c8161280a565b94506020868101359450604087013567ffffffffffffffff80821115612a8157600080fd5b818901915089601f830112612a9557600080fd5b813581811115612aa757612aa761282f565b8060051b9150612ab884830161285e565b818152918301840191848101908c841115612ad257600080fd5b938501935b83851015612af057843582529385019390850190612ad7565b999c989b5098996060810135995060800135979650505050505050565b60008060408385031215612b2057600080fd5b50508035926020909101359150565b600080600080600060808688031215612b4757600080fd5b85359450602086013567ffffffffffffffff80821115612b6657600080fd5b818801915088601f830112612b7a57600080fd5b813581811115612b8957600080fd5b8960208260051b8501011115612b9e57600080fd5b9699602092909201985095966040810135965060600135945092505050565b7f4e487b7100000000000000000000000000000000000000000000000000000000600052601160045260246000fd5b600082821015612bfe57612bfe612bbd565b500390565b60008219821115612c1657612c16612bbd565b500190565b600060208284031215612c2d57600080fd5b5051919050565b600060208284031215612c4657600080fd5b815180151581146129c057600080fd5b84815283602082015260606040820152816060820152818360808301376000818301608090810191909152601f9092017fffffffffffffffffffffffffffffffffffffffffffffffffffffffffffffffe01601019392505050565b8183823760009101908152919050565b6000817fffffffffffffffffffffffffffffffffffffffffffffffffffffffffffffffff0483118215151615612cf957612cf9612bbd565b500290565b7f4e487b7100000000000000000000000000000000000000000000000000000000600052601260045260246000fd5b600082612d3c57612d3c612cfe565b500490565b600082612d5057612d50612cfe565b500690565b60006080820173ffffffffffffffffffffffffffffffffffffffff87168352602060808185015281875180845260a086019150828901935060005b81811015612dac57845183529383019391830191600101612d90565b505060408501969096525050506060015292915050565b600081612dd257612dd2612bbd565b507fffffffffffffffffffffffffffffffffffffffffffffffffffffffffffffffff0190565b600060208284031215612e0a57600080fd5b81516129c08161280a56fea164736f6c6343000809000af86c915dad5894faca0dfa067c58fdf4307406d255ed0a65db394f82b77f53d4",
  "linkReferences": {},
  "deployedLinkReferences": {}
}