{
  "_format": "hh-sol-artifact-1",
  "contractName": "TimedPolicies",
  "sourceName": "contracts/governance/TimedPolicies.sol",
  "abi": [
    {
      "inputs": [
        {
          "internalType": "contract Policy",
          "name": "_policy",
          "type": "address"
        },
        {
          "internalType": "contract PolicyProposals",
          "name": "_policyproposal",
          "type": "address"
        },
        {
          "internalType": "bytes32[]",
          "name": "_notificationHashes",
          "type": "bytes32[]"
        }
      ],
      "stateMutability": "nonpayable",
      "type": "constructor"
    },
    {
      "anonymous": false,
      "inputs": [
        {
          "indexed": true,
          "internalType": "uint256",
          "name": "generation",
          "type": "uint256"
        }
      ],
      "name": "NewGeneration",
      "type": "event"
    },
    {
      "anonymous": false,
      "inputs": [
        {
          "indexed": false,
          "internalType": "address",
          "name": "contractAddress",
          "type": "address"
        }
      ],
      "name": "PolicyDecisionStart",
      "type": "event"
    },
    {
      "inputs": [],
      "name": "GENERATION_START",
      "outputs": [
        {
          "internalType": "uint256",
          "name": "",
          "type": "uint256"
        }
      ],
      "stateMutability": "view",
      "type": "function"
    },
    {
      "inputs": [],
      "name": "MIN_GENERATION_DURATION",
      "outputs": [
        {
          "internalType": "uint256",
          "name": "",
          "type": "uint256"
        }
      ],
      "stateMutability": "view",
      "type": "function"
    },
    {
      "inputs": [
        {
          "internalType": "bytes32",
          "name": "",
          "type": "bytes32"
        },
        {
          "internalType": "address",
          "name": "_addr",
          "type": "address"
        }
      ],
      "name": "canImplementInterfaceForAddress",
      "outputs": [
        {
          "internalType": "bytes32",
          "name": "",
          "type": "bytes32"
        }
      ],
      "stateMutability": "view",
      "type": "function"
    },
    {
      "inputs": [],
      "name": "clone",
      "outputs": [
        {
          "internalType": "address",
          "name": "",
          "type": "address"
        }
      ],
      "stateMutability": "nonpayable",
      "type": "function"
    },
    {
      "inputs": [],
      "name": "generation",
      "outputs": [
        {
          "internalType": "uint256",
          "name": "",
          "type": "uint256"
        }
      ],
      "stateMutability": "view",
      "type": "function"
    },
    {
      "inputs": [],
      "name": "getNotificationHashes",
      "outputs": [
        {
          "internalType": "bytes32[]",
          "name": "",
          "type": "bytes32[]"
        }
      ],
      "stateMutability": "view",
      "type": "function"
    },
    {
      "inputs": [],
      "name": "implementation",
      "outputs": [
        {
          "internalType": "address",
          "name": "_impl",
          "type": "address"
        }
      ],
      "stateMutability": "view",
      "type": "function"
    },
    {
      "inputs": [],
      "name": "incrementGeneration",
      "outputs": [],
      "stateMutability": "nonpayable",
      "type": "function"
    },
    {
      "inputs": [
        {
          "internalType": "address",
          "name": "_self",
          "type": "address"
        }
      ],
      "name": "initialize",
      "outputs": [],
      "stateMutability": "nonpayable",
      "type": "function"
    },
    {
      "inputs": [],
      "name": "nextGenerationWindowOpen",
      "outputs": [
        {
          "internalType": "uint256",
          "name": "",
          "type": "uint256"
        }
      ],
      "stateMutability": "view",
      "type": "function"
    },
    {
      "inputs": [
        {
          "internalType": "uint256",
          "name": "",
          "type": "uint256"
        }
      ],
      "name": "notificationHashes",
      "outputs": [
        {
          "internalType": "bytes32",
          "name": "",
          "type": "bytes32"
        }
      ],
      "stateMutability": "view",
      "type": "function"
    },
    {
      "inputs": [],
      "name": "policy",
      "outputs": [
        {
          "internalType": "contract Policy",
          "name": "",
          "type": "address"
        }
      ],
      "stateMutability": "view",
      "type": "function"
    },
    {
      "inputs": [
        {
          "internalType": "address",
          "name": "_delegate",
          "type": "address"
        },
        {
          "internalType": "bytes",
          "name": "_data",
          "type": "bytes"
        }
      ],
      "name": "policyCommand",
      "outputs": [],
      "stateMutability": "nonpayable",
      "type": "function"
    },
    {
      "inputs": [],
      "name": "policyProposalImpl",
      "outputs": [
        {
          "internalType": "contract PolicyProposals",
          "name": "",
          "type": "address"
        }
      ],
      "stateMutability": "view",
      "type": "function"
    },
    {
      "inputs": [
        {
          "internalType": "address",
          "name": "_addr",
          "type": "address"
        }
      ],
      "name": "setExpectedInterfaceSet",
      "outputs": [],
      "stateMutability": "nonpayable",
      "type": "function"
    }
  ],
  "bytecode": "0x60a06040523480156200001157600080fd5b506040516200212538038062002125833981016040819052620000349162000398565b8280620000413062000274565b6001600160a01b038116620000c35760405162461bcd60e51b815260206004820152603860248201527f556e7265636f76657261626c653a20646f206e6f74207365742074686520706f60448201527f6c69637920617320746865207a65726f2061646472657373000000000000000060648201526084015b60405180910390fd5b6001600160a01b0381166080819052604051635df8122f60e01b81523060048201526024810191909152731820a4b7618bde71dce8cdc73aab6c95905fad2490635df8122f90604401600060405180830381600087803b1580156200012757600080fd5b505af11580156200013c573d6000803e3d6000fd5b50505050506001600160a01b03831615159050620001cd5760405162461bcd60e51b815260206004820152604160248201527f556e7265636f76657261626c653a20646f206e6f742073657420746865205f7060448201527f6f6c69637970726f706f73616c20617320746865207a65726f206164647265736064820152607360f81b608482015260a401620000ba565b6000815111620002345760405162461bcd60e51b815260206004820152602b60248201527f556e7265636f76657261626c653a206d75737420736574205f6e6f746966696360448201526a6174696f6e48617368657360a81b6064820152608401620000ba565b600480546001600160a01b0319166001600160a01b0384161790556103e860015580516200026a90600390602084019062000302565b505050506200048f565b6001600160a01b03811662000296600080516020620021058339815191525490565b6001600160a01b03161415620002ef5760405162461bcd60e51b815260206004820152601f60248201527f496d706c656d656e746174696f6e20616c7265616479206d61746368696e67006044820152606401620000ba565b6000805160206200210583398151915255565b82805482825590600052602060002090810192821562000340579160200282015b828111156200034057825182559160200191906001019062000323565b506200034e92915062000352565b5090565b5b808211156200034e576000815560010162000353565b6001600160a01b03811681146200037f57600080fd5b50565b634e487b7160e01b600052604160045260246000fd5b600080600060608486031215620003ae57600080fd5b8351620003bb8162000369565b80935050602080850151620003d08162000369565b60408601519093506001600160401b0380821115620003ee57600080fd5b818701915087601f8301126200040357600080fd5b81518181111562000418576200041862000382565b8060051b604051601f19603f8301168101818110858211171562000440576200044062000382565b60405291825284820192508381018501918a8311156200045f57600080fd5b938501935b828510156200047f5784518452938501939285019262000464565b8096505050505050509250925092565b608051611c2a620004db6000396000818160ff01528181610263015281816104a4015281816105e201528181610bd901528181610c4b015281816111fa01526113b70152611c2a6000f3fe608060405234801561001057600080fd5b50600436106100f55760003560e01c80635c60da1b11610097578063b6ee176711610066578063b6ee176714610212578063b917ade51461021b578063c4d66de814610223578063de52dedc1461023657600080fd5b80635c60da1b146101ae5780638cb17056146101d5578063a071dfb3146101df578063a38a0c2c146101f257600080fd5b806317219522116100d35780631721952214610168578063249cb3fa1461017f57806339634e0c1461019257806353729937146101a557600080fd5b80630505c8c9146100fa57806309d7f23b1461014b57806309ed460714610160575b600080fd5b6101217f000000000000000000000000000000000000000000000000000000000000000081565b60405173ffffffffffffffffffffffffffffffffffffffff90911681526020015b60405180910390f35b61015e610159366004611849565b61024b565b005b61012161033f565b61017160015481565b604051908152602001610142565b61017161018d3660046118dc565b6104a0565b61015e6101a036600461190c565b6105ca565b6101716103e881565b7ff86c915dad5894faca0dfa067c58fdf4307406d255ed0a65db394f82b77f53d454610121565b6101716212750081565b6101716101ed366004611930565b6106d6565b6004546101219073ffffffffffffffffffffffffffffffffffffffff1681565b61017160025481565b61015e6106f7565b61015e61023136600461190c565b610e21565b61023e6110fc565b6040516101429190611949565b3373ffffffffffffffffffffffffffffffffffffffff7f00000000000000000000000000000000000000000000000000000000000000001614610315576040517f08c379a000000000000000000000000000000000000000000000000000000000815260206004820152602d60248201527f4f6e6c792074686520706f6c69637920636f6e7472616374206d61792063616c60448201527f6c2074686973206d6574686f640000000000000000000000000000000000000060648201526084015b60405180910390fd5b600080825160208401855af43d806000803e81801561033357816000f35b816000fd5b5050505050565b60003061036a7ff86c915dad5894faca0dfa067c58fdf4307406d255ed0a65db394f82b77f53d45490565b73ffffffffffffffffffffffffffffffffffffffff161461040d576040517f08c379a000000000000000000000000000000000000000000000000000000000815260206004820152602660248201527f54686973206d6574686f642063616e6e6f742062652063616c6c6564206f6e2060448201527f636c6f6e65730000000000000000000000000000000000000000000000000000606482015260840161030c565b600061041830611154565b6040517fc4d66de800000000000000000000000000000000000000000000000000000000815230600482015290915073ffffffffffffffffffffffffffffffffffffffff82169063c4d66de890602401600060405180830381600087803b15801561048257600080fd5b505af1158015610496573d6000803e3d6000fd5b5092949350505050565b60007f000000000000000000000000000000000000000000000000000000000000000073ffffffffffffffffffffffffffffffffffffffff168273ffffffffffffffffffffffffffffffffffffffff161480610516575060005473ffffffffffffffffffffffffffffffffffffffff8381169116145b6105a2576040517f08c379a000000000000000000000000000000000000000000000000000000000815260206004820152603b60248201527f4f6e6c792074686520706f6c696379206f7220696e7465726661636520636f6e60448201527f74726163742063616e207365742074686520696e746572666163650000000000606482015260840161030c565b507fa2ef4600d742022d532d4747cb3547474667d6f13804902513b2ec01c848f4b492915050565b3373ffffffffffffffffffffffffffffffffffffffff7f0000000000000000000000000000000000000000000000000000000000000000161461068f576040517f08c379a000000000000000000000000000000000000000000000000000000000815260206004820152602d60248201527f4f6e6c792074686520706f6c69637920636f6e7472616374206d61792063616c60448201527f6c2074686973206d6574686f6400000000000000000000000000000000000000606482015260840161030c565b600080547fffffffffffffffffffffffff00000000000000000000000000000000000000001673ffffffffffffffffffffffffffffffffffffffff92909216919091179055565b600381815481106106e657600080fd5b600091825260209091200154905081565b600254429081101561078b576040517f08c379a000000000000000000000000000000000000000000000000000000000815260206004820152602c60248201527f43616e6e6f7420757064617465207468652067656e65726174696f6e20636f7560448201527f6e74657220736f20736f6f6e0000000000000000000000000000000000000000606482015260840161030c565b61079862127500826119bc565b600255600180549060006107ab836119d4565b919050555060006107db7fe4ee44a5d338a8b2452cc9552ec014656668eaacb55683101b7e1c2b167e52256111bd565b905060008073ffffffffffffffffffffffffffffffffffffffff8316156109685760008373ffffffffffffffffffffffffffffffffffffffff1663dfbf53ae6040518163ffffffff1660e01b815260040160206040518083038186803b15801561084457600080fd5b505afa158015610858573d6000803e3d6000fd5b505050506040513d601f19601f8201168201806040525081019061087c9190611a0d565b905073ffffffffffffffffffffffffffffffffffffffff811615610966576040517f3341b44500000000000000000000000000000000000000000000000000000000815273ffffffffffffffffffffffffffffffffffffffff8281166004830152851690633341b4459060240160006040518083038186803b15801561090157600080fd5b505afa158015610915573d6000803e3d6000fd5b505050506040513d6000823e601f3d9081017fffffffffffffffffffffffffffffffffffffffffffffffffffffffffffffffe016820160405261095b9190810190611a2a565b509396509194505050505b505b60006109748284611af2565b905060006109a17fe10ab6c94f1da69921a0ca1c1b96b4fc339699153931c9bfd565e91f44c19b0b6111bd565b73ffffffffffffffffffffffffffffffffffffffff166318160ddd6040518163ffffffff1660e01b815260040160206040518083038186803b1580156109e657600080fd5b505afa1580156109fa573d6000803e3d6000fd5b505050506040513d601f19601f82011682018060405250810190610a1e9190611b2f565b90506000600460009054906101000a900473ffffffffffffffffffffffffffffffffffffffff1673ffffffffffffffffffffffffffffffffffffffff166309ed46076040518163ffffffff1660e01b8152600401602060405180830381600087803b158015610a8c57600080fd5b505af1158015610aa0573d6000803e3d6000fd5b505050506040513d601f19601f82011682018060405250810190610ac49190611a0d565b905073ffffffffffffffffffffffffffffffffffffffff8116633e32747a8315610aee5783610af1565b60015b856040518363ffffffff1660e01b8152600401610b18929190918252602082015260400190565b600060405180830381600087803b158015610b3257600080fd5b505af1158015610b46573d6000803e3d6000fd5b50506040517f7b12b4550000000000000000000000000000000000000000000000000000000081527f331e3a11698d428947c09d6cfecc92b2ccbc4a527e4e795d850152babfaff37a600482015273ffffffffffffffffffffffffffffffffffffffff84811660248301527fae30bfb87dec2bd0c16be9790f95842d84f58dc70b0a8f6ed22e9556176a7b1960448301527f0000000000000000000000000000000000000000000000000000000000000000169250637b12b4559150606401600060405180830381600087803b158015610c1f57600080fd5b505af1158015610c33573d6000803e3d6000fd5b50506003549150600090505b81811015610da15760007f000000000000000000000000000000000000000000000000000000000000000073ffffffffffffffffffffffffffffffffffffffff16639e34681c60038481548110610c9857610c98611b48565b90600052602060002001546040518263ffffffff1660e01b8152600401610cc191815260200190565b60206040518083038186803b158015610cd957600080fd5b505afa158015610ced573d6000803e3d6000fd5b505050506040513d601f19601f82011682018060405250810190610d119190611a0d565b905073ffffffffffffffffffffffffffffffffffffffff811615610d90578073ffffffffffffffffffffffffffffffffffffffff166335bbc7fe6040518163ffffffff1660e01b8152600401600060405180830381600087803b158015610d7757600080fd5b505af1158015610d8b573d6000803e3d6000fd5b505050505b50610d9a816119d4565b9050610c3f565b5060405173ffffffffffffffffffffffffffffffffffffffff831681527f3964a29267eae478a6d0c0c73cd9c6c037624d8bc7bdb41caff291dee09f8ad19060200160405180910390a16001546040517f23e596c8e4eec426ab54ee98a8c255dd81072555379496f971fe5b121008932490600090a25050505050505050565b6000610e4b7ff86c915dad5894faca0dfa067c58fdf4307406d255ed0a65db394f82b77f53d45490565b73ffffffffffffffffffffffffffffffffffffffff1614610eee576040517f08c379a000000000000000000000000000000000000000000000000000000000815260206004820152602860248201527f43616e206f6e6c792062652063616c6c656420647572696e6720696e6974696160448201527f6c697a6174696f6e000000000000000000000000000000000000000000000000606482015260840161030c565b610ef78161129e565b8073ffffffffffffffffffffffffffffffffffffffff1663a38a0c2c6040518163ffffffff1660e01b815260040160206040518083038186803b158015610f3d57600080fd5b505afa158015610f51573d6000803e3d6000fd5b505050506040513d601f19601f82011682018060405250810190610f759190611a0d565b600480547fffffffffffffffffffffffff00000000000000000000000000000000000000001673ffffffffffffffffffffffffffffffffffffffff928316178155604080517f17219522000000000000000000000000000000000000000000000000000000008152905192841692631721952292828101926020929190829003018186803b15801561100657600080fd5b505afa15801561101a573d6000803e3d6000fd5b505050506040513d601f19601f8201168201806040525081019061103e9190611b2f565b6001819055508073ffffffffffffffffffffffffffffffffffffffff1663de52dedc6040518163ffffffff1660e01b815260040160006040518083038186803b15801561108a57600080fd5b505afa15801561109e573d6000803e3d6000fd5b505050506040513d6000823e601f3d9081017fffffffffffffffffffffffffffffffffffffffffffffffffffffffffffffffe01682016040526110e49190810190611b77565b80516110f891600391602090910190611700565b5050565b6060600380548060200260200160405190810160405280929190818152602001828054801561114a57602002820191906000526020600020905b815481526020019060010190808311611136575b5050505050905090565b6000808260601b90506040517f3d602d80600a3d3981f3363d3d373d3d3d363d7300000000000000000000000081528160148201527f5af43d82803e903d91602b57fd5bf3000000000000000000000000000000000060288201526037816000f0949350505050565b6040517faabbb8ca00000000000000000000000000000000000000000000000000000000815273ffffffffffffffffffffffffffffffffffffffff7f000000000000000000000000000000000000000000000000000000000000000016600482015260248101829052600090731820a4b7618bde71dce8cdc73aab6c95905fad249063aabbb8ca9060440160206040518083038186803b15801561126057600080fd5b505afa158015611274573d6000803e3d6000fd5b505050506040513d601f19601f820116820180604052508101906112989190611a0d565b92915050565b60006112c87ff86c915dad5894faca0dfa067c58fdf4307406d255ed0a65db394f82b77f53d45490565b73ffffffffffffffffffffffffffffffffffffffff161461136b576040517f08c379a000000000000000000000000000000000000000000000000000000000815260206004820152602860248201527f43616e206f6e6c792062652063616c6c656420647572696e6720696e6974696160448201527f6c697a6174696f6e000000000000000000000000000000000000000000000000606482015260840161030c565b61137481611429565b6040517f5df8122f00000000000000000000000000000000000000000000000000000000815230600482015273ffffffffffffffffffffffffffffffffffffffff7f0000000000000000000000000000000000000000000000000000000000000000166024820152731820a4b7618bde71dce8cdc73aab6c95905fad2490635df8122f90604401600060405180830381600087803b15801561141557600080fd5b505af1158015610338573d6000803e3d6000fd5b60006114537ff86c915dad5894faca0dfa067c58fdf4307406d255ed0a65db394f82b77f53d45490565b73ffffffffffffffffffffffffffffffffffffffff16146114f6576040517f08c379a000000000000000000000000000000000000000000000000000000000815260206004820152602860248201527f43616e206f6e6c792062652063616c6c656420647572696e6720696e6974696160448201527f6c697a6174696f6e000000000000000000000000000000000000000000000000606482015260840161030c565b60008173ffffffffffffffffffffffffffffffffffffffff16635c60da1b6040518163ffffffff1660e01b815260040160206040518083038186803b15801561153e57600080fd5b505afa158015611552573d6000803e3d6000fd5b505050506040513d601f19601f820116820180604052508101906115769190611a0d565b905073ffffffffffffffffffffffffffffffffffffffff811661161b576040517f08c379a000000000000000000000000000000000000000000000000000000000815260206004820152602c60248201527f696e697469616c697a6174696f6e206661696c7572653a206e6f7468696e672060448201527f746f20696d706c656d656e740000000000000000000000000000000000000000606482015260840161030c565b6110f8818073ffffffffffffffffffffffffffffffffffffffff1661165e7ff86c915dad5894faca0dfa067c58fdf4307406d255ed0a65db394f82b77f53d45490565b73ffffffffffffffffffffffffffffffffffffffff1614156116dc576040517f08c379a000000000000000000000000000000000000000000000000000000000815260206004820152601f60248201527f496d706c656d656e746174696f6e20616c7265616479206d61746368696e6700604482015260640161030c565b7ff86c915dad5894faca0dfa067c58fdf4307406d255ed0a65db394f82b77f53d455565b82805482825590600052602060002090810192821561173b579160200282015b8281111561173b578251825591602001919060010190611720565b5061174792915061174b565b5090565b5b80821115611747576000815560010161174c565b73ffffffffffffffffffffffffffffffffffffffff8116811461178257600080fd5b50565b7f4e487b7100000000000000000000000000000000000000000000000000000000600052604160045260246000fd5b604051601f82017fffffffffffffffffffffffffffffffffffffffffffffffffffffffffffffffe016810167ffffffffffffffff811182821017156117fb576117fb611785565b604052919050565b600067ffffffffffffffff82111561181d5761181d611785565b50601f017fffffffffffffffffffffffffffffffffffffffffffffffffffffffffffffffe01660200190565b6000806040838503121561185c57600080fd5b823561186781611760565b9150602083013567ffffffffffffffff81111561188357600080fd5b8301601f8101851361189457600080fd5b80356118a76118a282611803565b6117b4565b8181528660208385010111156118bc57600080fd5b816020840160208301376000602083830101528093505050509250929050565b600080604083850312156118ef57600080fd5b82359150602083013561190181611760565b809150509250929050565b60006020828403121561191e57600080fd5b813561192981611760565b9392505050565b60006020828403121561194257600080fd5b5035919050565b6020808252825182820181905260009190848201906040850190845b8181101561198157835183529284019291840191600101611965565b50909695505050505050565b7f4e487b7100000000000000000000000000000000000000000000000000000000600052601160045260246000fd5b600082198211156119cf576119cf61198d565b500190565b60007fffffffffffffffffffffffffffffffffffffffffffffffffffffffffffffffff821415611a0657611a0661198d565b5060010190565b600060208284031215611a1f57600080fd5b815161192981611760565b60008060008060008060c08789031215611a4357600080fd5b86519550602080880151955060408801519450606088015193506080880151925060a088015167ffffffffffffffff811115611a7e57600080fd5b8801601f81018a13611a8f57600080fd5b8051611a9d6118a282611803565b8181528b84838501011115611ab157600080fd5b60005b82811015611acf578381018501518282018601528401611ab4565b82811115611ae05760008584840101525b50809450505050509295509295509295565b6000817fffffffffffffffffffffffffffffffffffffffffffffffffffffffffffffffff0483118215151615611b2a57611b2a61198d565b500290565b600060208284031215611b4157600080fd5b5051919050565b7f4e487b7100000000000000000000000000000000000000000000000000000000600052603260045260246000fd5b60006020808385031215611b8a57600080fd5b825167ffffffffffffffff80821115611ba257600080fd5b818501915085601f830112611bb657600080fd5b815181811115611bc857611bc8611785565b8060051b9150611bd98483016117b4565b8181529183018401918481019088841115611bf357600080fd5b938501935b83851015611c1157845182529385019390850190611bf8565b9897505050505050505056fea164736f6c6343000809000af86c915dad5894faca0dfa067c58fdf4307406d255ed0a65db394f82b77f53d4",
  "linkReferences": {},
  "deployedLinkReferences": {}
}