{
  "_format": "hh-sol-artifact-1",
  "contractName": "TrustedNodes",
  "sourceName": "contracts/governance/monetary/TrustedNodes.sol",
  "abi": [
    {
      "inputs": [
        {
          "internalType": "contract Policy",
          "name": "_policy",
          "type": "address"
        },
        {
          "internalType": "address[]",
          "name": "_initialTrustedNodes",
          "type": "address[]"
        },
        {
          "internalType": "uint256",
          "name": "_voteReward",
          "type": "uint256"
        }
      ],
      "stateMutability": "nonpayable",
      "type": "constructor"
    },
    {
      "anonymous": false,
      "inputs": [
        {
          "indexed": false,
          "internalType": "uint256",
          "name": "amount",
          "type": "uint256"
        }
      ],
      "name": "FundingRequest",
      "type": "event"
    },
    {
      "anonymous": false,
      "inputs": [
        {
          "indexed": false,
          "internalType": "uint256",
          "name": "nextUpdateTimestamp",
          "type": "uint256"
        },
        {
          "indexed": false,
          "internalType": "uint256",
          "name": "newRewardsCount",
          "type": "uint256"
        }
      ],
      "name": "RewardsTrackingUpdate",
      "type": "event"
    },
    {
      "anonymous": false,
      "inputs": [
        {
          "indexed": true,
          "internalType": "address",
          "name": "node",
          "type": "address"
        },
        {
          "indexed": false,
          "internalType": "uint256",
          "name": "cohort",
          "type": "uint256"
        }
      ],
      "name": "TrustedNodeAddition",
      "type": "event"
    },
    {
      "anonymous": false,
      "inputs": [
        {
          "indexed": true,
          "internalType": "address",
          "name": "node",
          "type": "address"
        },
        {
          "indexed": false,
          "internalType": "uint256",
          "name": "cohort",
          "type": "uint256"
        }
      ],
      "name": "TrustedNodeRemoval",
      "type": "event"
    },
    {
      "anonymous": false,
      "inputs": [
        {
          "indexed": true,
          "internalType": "address",
          "name": "recipient",
          "type": "address"
        },
        {
          "indexed": false,
          "internalType": "uint256",
          "name": "amount",
          "type": "uint256"
        }
      ],
      "name": "VotingRewardRedemption",
      "type": "event"
    },
    {
      "inputs": [],
      "name": "GENERATIONS_PER_YEAR",
      "outputs": [
        {
          "internalType": "uint256",
          "name": "",
          "type": "uint256"
        }
      ],
      "stateMutability": "view",
      "type": "function"
    },
    {
      "inputs": [],
      "name": "GENERATION_START",
      "outputs": [
        {
          "internalType": "uint256",
          "name": "",
          "type": "uint256"
        }
      ],
      "stateMutability": "view",
      "type": "function"
    },
    {
      "inputs": [],
      "name": "MIN_GENERATION_DURATION",
      "outputs": [
        {
          "internalType": "uint256",
          "name": "",
          "type": "uint256"
        }
      ],
      "stateMutability": "view",
      "type": "function"
    },
    {
      "inputs": [],
      "name": "annualUpdate",
      "outputs": [],
      "stateMutability": "nonpayable",
      "type": "function"
    },
    {
      "inputs": [
        {
          "internalType": "bytes32",
          "name": "",
          "type": "bytes32"
        },
        {
          "internalType": "address",
          "name": "_addr",
          "type": "address"
        }
      ],
      "name": "canImplementInterfaceForAddress",
      "outputs": [
        {
          "internalType": "bytes32",
          "name": "",
          "type": "bytes32"
        }
      ],
      "stateMutability": "view",
      "type": "function"
    },
    {
      "inputs": [],
      "name": "clone",
      "outputs": [
        {
          "internalType": "address",
          "name": "",
          "type": "address"
        }
      ],
      "stateMutability": "nonpayable",
      "type": "function"
    },
    {
      "inputs": [],
      "name": "cohort",
      "outputs": [
        {
          "internalType": "uint256",
          "name": "",
          "type": "uint256"
        }
      ],
      "stateMutability": "view",
      "type": "function"
    },
    {
      "inputs": [
        {
          "internalType": "address",
          "name": "_node",
          "type": "address"
        }
      ],
      "name": "distrust",
      "outputs": [],
      "stateMutability": "nonpayable",
      "type": "function"
    },
    {
      "inputs": [
        {
          "internalType": "address",
          "name": "",
          "type": "address"
        }
      ],
      "name": "fullyVestedRewards",
      "outputs": [
        {
          "internalType": "uint256",
          "name": "",
          "type": "uint256"
        }
      ],
      "stateMutability": "view",
      "type": "function"
    },
    {
      "inputs": [
        {
          "internalType": "uint256",
          "name": "_cohort",
          "type": "uint256"
        }
      ],
      "name": "getTrustedNodesFromCohort",
      "outputs": [
        {
          "internalType": "address[]",
          "name": "",
          "type": "address[]"
        }
      ],
      "stateMutability": "view",
      "type": "function"
    },
    {
      "inputs": [],
      "name": "hoard",
      "outputs": [
        {
          "internalType": "address",
          "name": "",
          "type": "address"
        }
      ],
      "stateMutability": "view",
      "type": "function"
    },
    {
      "inputs": [],
      "name": "implementation",
      "outputs": [
        {
          "internalType": "address",
          "name": "_impl",
          "type": "address"
        }
      ],
      "stateMutability": "view",
      "type": "function"
    },
    {
      "inputs": [
        {
          "internalType": "address",
          "name": "_self",
          "type": "address"
        }
      ],
      "name": "initialize",
      "outputs": [],
      "stateMutability": "nonpayable",
      "type": "function"
    },
    {
      "inputs": [
        {
          "internalType": "address",
          "name": "_node",
          "type": "address"
        }
      ],
      "name": "isTrusted",
      "outputs": [
        {
          "internalType": "bool",
          "name": "",
          "type": "bool"
        }
      ],
      "stateMutability": "view",
      "type": "function"
    },
    {
      "inputs": [
        {
          "internalType": "address",
          "name": "",
          "type": "address"
        }
      ],
      "name": "lastYearVotingRecord",
      "outputs": [
        {
          "internalType": "uint256",
          "name": "",
          "type": "uint256"
        }
      ],
      "stateMutability": "view",
      "type": "function"
    },
    {
      "inputs": [
        {
          "internalType": "address[]",
          "name": "_newCohort",
          "type": "address[]"
        }
      ],
      "name": "newCohort",
      "outputs": [],
      "stateMutability": "nonpayable",
      "type": "function"
    },
    {
      "inputs": [],
      "name": "numTrustees",
      "outputs": [
        {
          "internalType": "uint256",
          "name": "",
          "type": "uint256"
        }
      ],
      "stateMutability": "view",
      "type": "function"
    },
    {
      "inputs": [],
      "name": "policy",
      "outputs": [
        {
          "internalType": "contract Policy",
          "name": "",
          "type": "address"
        }
      ],
      "stateMutability": "view",
      "type": "function"
    },
    {
      "inputs": [
        {
          "internalType": "address",
          "name": "_delegate",
          "type": "address"
        },
        {
          "internalType": "bytes",
          "name": "_data",
          "type": "bytes"
        }
      ],
      "name": "policyCommand",
      "outputs": [],
      "stateMutability": "nonpayable",
      "type": "function"
    },
    {
      "inputs": [
        {
          "internalType": "address",
          "name": "_who",
          "type": "address"
        }
      ],
      "name": "recordVote",
      "outputs": [],
      "stateMutability": "nonpayable",
      "type": "function"
    },
    {
      "inputs": [],
      "name": "redeemVoteRewards",
      "outputs": [],
      "stateMutability": "nonpayable",
      "type": "function"
    },
    {
      "inputs": [
        {
          "internalType": "address",
          "name": "_addr",
          "type": "address"
        }
      ],
      "name": "setExpectedInterfaceSet",
      "outputs": [],
      "stateMutability": "nonpayable",
      "type": "function"
    },
    {
      "inputs": [
        {
          "internalType": "address",
          "name": "_node",
          "type": "address"
        }
      ],
      "name": "trust",
      "outputs": [],
      "stateMutability": "nonpayable",
      "type": "function"
    },
    {
      "inputs": [],
      "name": "unallocatedRewardsCount",
      "outputs": [
        {
          "internalType": "uint256",
          "name": "",
          "type": "uint256"
        }
      ],
      "stateMutability": "view",
      "type": "function"
    },
    {
      "inputs": [],
      "name": "voteReward",
      "outputs": [
        {
          "internalType": "uint256",
          "name": "",
          "type": "uint256"
        }
      ],
      "stateMutability": "view",
      "type": "function"
    },
    {
      "inputs": [
        {
          "internalType": "address",
          "name": "",
          "type": "address"
        }
      ],
      "name": "votingRecord",
      "outputs": [
        {
          "internalType": "uint256",
          "name": "",
          "type": "uint256"
        }
      ],
      "stateMutability": "view",
      "type": "function"
    },
    {
      "inputs": [],
      "name": "yearEnd",
      "outputs": [
        {
          "internalType": "uint256",
          "name": "",
          "type": "uint256"
        }
      ],
      "stateMutability": "view",
      "type": "function"
    },
    {
      "inputs": [],
      "name": "yearStartGen",
      "outputs": [
        {
          "internalType": "uint256",
          "name": "",
          "type": "uint256"
        }
      ],
      "stateMutability": "view",
      "type": "function"
    }
  ],
  "bytecode": "0x60a06040523480156200001157600080fd5b5060405162002e1a38038062002e1a833981016040819052620000349162000399565b82806200004130620001c2565b6001600160a01b038116620000c35760405162461bcd60e51b815260206004820152603860248201527f556e7265636f76657261626c653a20646f206e6f74207365742074686520706f60448201527f6c69637920617320746865207a65726f2061646472657373000000000000000060648201526084015b60405180910390fd5b6001600160a01b0381166080819052604051635df8122f60e01b81523060048201526024810191909152731820a4b7618bde71dce8cdc73aab6c95905fad2490635df8122f90604401600060405180830381600087803b1580156200012757600080fd5b505af11580156200013c573d6000803e3d6000fd5b505050600984905550508251600380546001600160a01b0319166001600160a01b038716179055905060005b81811015620001b75760008482815181106200018857620001886200048d565b60200260200101519050620001a3816200025060201b60201c565b50620001af81620004b9565b905062000168565b5050505050620004f2565b6001600160a01b038116620001e460008051602062002dfa8339815191525490565b6001600160a01b031614156200023d5760405162461bcd60e51b815260206004820152601f60248201527f496d706c656d656e746174696f6e20616c7265616479206d61746368696e67006044820152606401620000ba565b60008051602062002dfa83398151915255565b60045460008181526005602090815260408083206001600160a01b0386168452600181019092529091205415620002ca5760405162461bcd60e51b815260206004820152601760248201527f4e6f646520697320616c726561647920747275737465640000000000000000006044820152606401620000ba565b8054620002d9906001620004d7565b6001600160a01b038416600081815260018085016020908152604080842095909555855491820186558583529091200180546001600160a01b0319168217905590517f026e3fa01f70928e1ebf30f5828821f508b9f69a1ab33e901e1e637a25a1c154906200034b9085815260200190565b60405180910390a2505050565b6001600160a01b03811681146200036e57600080fd5b50565b634e487b7160e01b600052604160045260246000fd5b8051620003948162000358565b919050565b600080600060608486031215620003af57600080fd5b8351620003bc8162000358565b602085810151919450906001600160401b0380821115620003dc57600080fd5b818701915087601f830112620003f157600080fd5b81518181111562000406576200040662000371565b8060051b604051601f19603f830116810181811085821117156200042e576200042e62000371565b60405291825284820192508381018501918a8311156200044d57600080fd5b938501935b828510156200047657620004668562000387565b8452938501939285019262000452565b809750505050505050604084015190509250925092565b634e487b7160e01b600052603260045260246000fd5b634e487b7160e01b600052601160045260246000fd5b6000600019821415620004d057620004d0620004a3565b5060010190565b60008219821115620004ed57620004ed620004a3565b500190565b6080516128b462000546600039600081816101ce01528181610472015281816106b3015281816107f1015281816108fd01528181610b070152818161163c01528181611e5a015261201701526128b46000f3fe608060405234801561001057600080fd5b50600436106101c45760003560e01c80638b2fccaa116100f9578063c4d66de811610097578063d419406a11610071578063d419406a14610417578063f00d3d2d1461041f578063f0c06aa51461043f578063f82efbe91461045257600080fd5b8063c4d66de8146103f2578063d15f217914610405578063d1b558f51461040e57600080fd5b806392c1ff44116100d357806392c1ff441461035257806396d6487914610365578063bb4a2075146103bf578063c3f97d4a146103d257600080fd5b80638b2fccaa146103205780638cb1705614610328578063908f66371461033257600080fd5b806339634e0c11610166578063537299371161014057806353729937146102de578063542b1c5d146102e75780635c60da1b146102f05780636d91e1e11461031757600080fd5b806339634e0c146102a15780634637d827146102b45780634baa6901146102c757600080fd5b80630c211d07116101a25780630c211d071461023757806313176a4014610265578063249cb3fa1461026e5780633851a36f1461028157600080fd5b80630505c8c9146101c957806309d7f23b1461021a57806309ed46071461022f575b600080fd5b6101f07f000000000000000000000000000000000000000000000000000000000000000081565b60405173ffffffffffffffffffffffffffffffffffffffff90911681526020015b60405180910390f35b61022d610228366004612409565b61045a565b005b6101f061054e565b6102576102453660046124cf565b60066020526000908152604090205481565b604051908152602001610211565b61025760045481565b61025761027c3660046124f3565b6106af565b61025761028f3660046124cf565b60076020526000908152604090205481565b61022d6102af3660046124cf565b6107d9565b61022d6102c23660046124cf565b6108e5565b600454600090815260056020526040902054610257565b6102576103e881565b61025760095481565b7ff86c915dad5894faca0dfa067c58fdf4307406d255ed0a65db394f82b77f53d4546101f0565b61025760015481565b610257601a81565b6102576212750081565b6102576103403660046124cf565b60086020526000908152604090205481565b61022d6103603660046124cf565b6109b6565b6103af6103733660046124cf565b600454600090815260056020908152604080832073ffffffffffffffffffffffffffffffffffffffff9094168352600190930190522054151590565b6040519015158152602001610211565b61022d6103cd366004612547565b610aef565b6003546101f09073ffffffffffffffffffffffffffffffffffffffff1681565b61022d6104003660046124cf565b610c80565b610257600a5481565b61025760025481565b61022d6110d6565b61043261042d3660046125e6565b6115ab565b60405161021191906125ff565b61022d61044d3660046124cf565b611624565b61022d611954565b3373ffffffffffffffffffffffffffffffffffffffff7f00000000000000000000000000000000000000000000000000000000000000001614610524576040517f08c379a000000000000000000000000000000000000000000000000000000000815260206004820152602d60248201527f4f6e6c792074686520706f6c69637920636f6e7472616374206d61792063616c60448201527f6c2074686973206d6574686f640000000000000000000000000000000000000060648201526084015b60405180910390fd5b600080825160208401855af43d806000803e81801561054257816000f35b816000fd5b5050505050565b6000306105797ff86c915dad5894faca0dfa067c58fdf4307406d255ed0a65db394f82b77f53d45490565b73ffffffffffffffffffffffffffffffffffffffff161461061c576040517f08c379a000000000000000000000000000000000000000000000000000000000815260206004820152602660248201527f54686973206d6574686f642063616e6e6f742062652063616c6c6564206f6e2060448201527f636c6f6e65730000000000000000000000000000000000000000000000000000606482015260840161051b565b600061062730611c65565b6040517fc4d66de800000000000000000000000000000000000000000000000000000000815230600482015290915073ffffffffffffffffffffffffffffffffffffffff82169063c4d66de890602401600060405180830381600087803b15801561069157600080fd5b505af11580156106a5573d6000803e3d6000fd5b5092949350505050565b60007f000000000000000000000000000000000000000000000000000000000000000073ffffffffffffffffffffffffffffffffffffffff168273ffffffffffffffffffffffffffffffffffffffff161480610725575060005473ffffffffffffffffffffffffffffffffffffffff8381169116145b6107b1576040517f08c379a000000000000000000000000000000000000000000000000000000000815260206004820152603b60248201527f4f6e6c792074686520706f6c696379206f7220696e7465726661636520636f6e60448201527f74726163742063616e207365742074686520696e746572666163650000000000606482015260840161051b565b507fa2ef4600d742022d532d4747cb3547474667d6f13804902513b2ec01c848f4b492915050565b3373ffffffffffffffffffffffffffffffffffffffff7f0000000000000000000000000000000000000000000000000000000000000000161461089e576040517f08c379a000000000000000000000000000000000000000000000000000000000815260206004820152602d60248201527f4f6e6c792074686520706f6c69637920636f6e7472616374206d61792063616c60448201527f6c2074686973206d6574686f6400000000000000000000000000000000000000606482015260840161051b565b600080547fffffffffffffffffffffffff00000000000000000000000000000000000000001673ffffffffffffffffffffffffffffffffffffffff92909216919091179055565b3373ffffffffffffffffffffffffffffffffffffffff7f000000000000000000000000000000000000000000000000000000000000000016146109aa576040517f08c379a000000000000000000000000000000000000000000000000000000000815260206004820152602d60248201527f4f6e6c792074686520706f6c69637920636f6e7472616374206d61792063616c60448201527f6c2074686973206d6574686f6400000000000000000000000000000000000000606482015260840161051b565b6109b381611cce565b50565b6109df7fe4ee44a5d338a8b2452cc9552ec014656668eaacb55683101b7e1c2b167e5225611e1d565b73ffffffffffffffffffffffffffffffffffffffff163373ffffffffffffffffffffffffffffffffffffffff1614610a99576040517f08c379a000000000000000000000000000000000000000000000000000000000815260206004820152602c60248201527f4d75737420626520746865206d6f6e657461727920706f6c69637920636f6e7460448201527f7261637420746f2063616c6c0000000000000000000000000000000000000000606482015260840161051b565b73ffffffffffffffffffffffffffffffffffffffff81166000908152600660205260408120805491610aca83612688565b9091555050600a54156109b357600a8054906000610ae7836126c1565b919050555050565b3373ffffffffffffffffffffffffffffffffffffffff7f00000000000000000000000000000000000000000000000000000000000000001614610bb4576040517f08c379a000000000000000000000000000000000000000000000000000000000815260206004820152602d60248201527f4f6e6c792074686520706f6c69637920636f6e7472616374206d61792063616c60448201527f6c2074686973206d6574686f6400000000000000000000000000000000000000606482015260840161051b565b6004546000908152600560205260409020548151811015610c28577f7808522c6627daca5c519799053d43d0edd02ab6f53128d52267a9ea0bdc0ba5818351610bfd91906126f6565b601a600954610c0c919061270d565b610c16919061270d565b60405190815260200160405180910390a15b60048054906000610c3883612688565b919050555060005b8251811015610c7b57610c6b838281518110610c5e57610c5e61274a565b6020026020010151611cce565b610c7481612688565b9050610c40565b505050565b6000610caa7ff86c915dad5894faca0dfa067c58fdf4307406d255ed0a65db394f82b77f53d45490565b73ffffffffffffffffffffffffffffffffffffffff1614610d4d576040517f08c379a000000000000000000000000000000000000000000000000000000000815260206004820152602860248201527f43616e206f6e6c792062652063616c6c656420647572696e6720696e6974696160448201527f6c697a6174696f6e000000000000000000000000000000000000000000000000606482015260840161051b565b610d5681611efe565b8073ffffffffffffffffffffffffffffffffffffffff1663542b1c5d6040518163ffffffff1660e01b815260040160206040518083038186803b158015610d9c57600080fd5b505afa158015610db0573d6000803e3d6000fd5b505050506040513d601f19601f82011682018060405250810190610dd49190612779565b6009819055508073ffffffffffffffffffffffffffffffffffffffff1663c3f97d4a6040518163ffffffff1660e01b815260040160206040518083038186803b158015610e2057600080fd5b505afa158015610e34573d6000803e3d6000fd5b505050506040513d601f19601f82011682018060405250810190610e589190612792565b600380547fffffffffffffffffffffffff00000000000000000000000000000000000000001673ffffffffffffffffffffffffffffffffffffffff92909216919091179055610eaa6103e860016127af565b600255610ebb62127500601a61270d565b610ec590426127af565b60018190555060008173ffffffffffffffffffffffffffffffffffffffff16634baa69016040518163ffffffff1660e01b815260040160206040518083038186803b158015610f1357600080fd5b505afa158015610f27573d6000803e3d6000fd5b505050506040513d601f19601f82011682018060405250810190610f4b9190612779565b9050610f58601a8261270d565b600a8190555060008273ffffffffffffffffffffffffffffffffffffffff166313176a406040518163ffffffff1660e01b815260040160206040518083038186803b158015610fa657600080fd5b505afa158015610fba573d6000803e3d6000fd5b505050506040513d601f19601f82011682018060405250810190610fde9190612779565b6040517ff00d3d2d0000000000000000000000000000000000000000000000000000000081526004810182905290915060009073ffffffffffffffffffffffffffffffffffffffff85169063f00d3d2d9060240160006040518083038186803b15801561104a57600080fd5b505afa15801561105e573d6000803e3d6000fd5b505050506040513d6000823e601f3d9081017fffffffffffffffffffffffffffffffffffffffffffffffffffffffffffffffe01682016040526110a491908101906127c7565b905060005b83811015610547576110c6828281518110610c5e57610c5e61274a565b6110cf81612688565b90506110a9565b6001544211611167576040517f08c379a000000000000000000000000000000000000000000000000000000000815260206004820152603660248201527f63616e6e6f742063616c6c207468697320756e74696c2074686520637572726560448201527f6e742079656172207465726d2068617320656e64656400000000000000000000606482015260840161051b565b6004546000908152600560209081526040808320805482518185028101850190935280835291929091908301828280156111d757602002820191906000526020600020905b815473ffffffffffffffffffffffffffffffffffffffff1681526001909101906020018083116111ac575b5050505050905060005b81518110156112955760008282815181106111fe576111fe61274a565b60209081029190910181015173ffffffffffffffffffffffffffffffffffffffff8116600090815260078352604080822054600890945281208054929450916112489084906127af565b909155505073ffffffffffffffffffffffffffffffffffffffff166000908152600660208181526040808420805460078452918520919091559190525561128e81612688565b90506111e1565b506000600954600a546112a8919061270d565b6004546000908152600560205260409020549091506112c990601a9061270d565b600a556112da62127500601a61270d565b6112e490426127af565b6001556113107fae30bfb87dec2bd0c16be9790f95842d84f58dc70b0a8f6ed22e9556176a7b19611e1d565b73ffffffffffffffffffffffffffffffffffffffff1663172195226040518163ffffffff1660e01b815260040160206040518083038186803b15801561135557600080fd5b505afa158015611369573d6000803e3d6000fd5b505050506040513d601f19601f8201168201806040525081019061138d9190612779565b60025560006113bb7fe10ab6c94f1da69921a0ca1c1b96b4fc339699153931c9bfd565e91f44c19b0b611e1d565b6003546040517fa9059cbb00000000000000000000000000000000000000000000000000000000815273ffffffffffffffffffffffffffffffffffffffff91821660048201526024810185905291925082169063a9059cbb90604401602060405180830381600087803b15801561143157600080fd5b505af1158015611445573d6000803e3d6000fd5b505050506040513d601f19601f820116820180604052508101906114699190612856565b6114cf576040517f08c379a000000000000000000000000000000000000000000000000000000000815260206004820152600f60248201527f5472616e73666572204661696c65640000000000000000000000000000000000604482015260640161051b565b7f7808522c6627daca5c519799053d43d0edd02ab6f53128d52267a9ea0bdc0ba5600954600a54611500919061270d565b60405190815260200160405180910390a160035460405183815273ffffffffffffffffffffffffffffffffffffffff909116907f2df39b0aeb21e17a5e4fc9ec49bde17de637939388a64ae2fde4955b2c308b6c9060200160405180910390a27f79a4ff43d1dcd20fc48eb5447829818d766619b9a64b2268cdfc5751d598fc22600154600a5460405161159e929190918252602082015260400190565b60405180910390a1505050565b60008181526005602090815260409182902080548351818402810184019094528084526060939283018282801561161857602002820191906000526020600020905b815473ffffffffffffffffffffffffffffffffffffffff1681526001909101906020018083116115ed575b50505050509050919050565b3373ffffffffffffffffffffffffffffffffffffffff7f000000000000000000000000000000000000000000000000000000000000000016146116e9576040517f08c379a000000000000000000000000000000000000000000000000000000000815260206004820152602d60248201527f4f6e6c792074686520706f6c69637920636f6e7472616374206d61792063616c60448201527f6c2074686973206d6574686f6400000000000000000000000000000000000000606482015260840161051b565b600454600090815260056020908152604080832073ffffffffffffffffffffffffffffffffffffffff85168452600181019092529091205480611788576040517f08c379a000000000000000000000000000000000000000000000000000000000815260206004820152601860248201527f4e6f646520616c7265616479206e6f7420747275737465640000000000000000604482015260640161051b565b8154600090611799906001906126f6565b73ffffffffffffffffffffffffffffffffffffffff85166000908152600180860160205260408220829055919250906117d290846126f6565b90508181146118905760008460000183815481106117f2576117f261274a565b600091825260209091200154855473ffffffffffffffffffffffffffffffffffffffff9091169150819086908490811061182e5761182e61274a565b600091825260208083209190910180547fffffffffffffffffffffffff00000000000000000000000000000000000000001673ffffffffffffffffffffffffffffffffffffffff94851617905592909116815260018601909152604090208390555b83548490806118a1576118a1612878565b60008281526020902081017fffffffffffffffffffffffffffffffffffffffffffffffffffffffffffffffff90810180547fffffffffffffffffffffffff000000000000000000000000000000000000000016905501905560045460405173ffffffffffffffffffffffffffffffffffffffff8716917fb622cec33bd2c8f2ec3cac63bfc522d7260a0c9893b20ab166a8ee8e7dc99cf49161194591815260200190565b60405180910390a25050505050565b60006002546119827fae30bfb87dec2bd0c16be9790f95842d84f58dc70b0a8f6ed22e9556176a7b19611e1d565b73ffffffffffffffffffffffffffffffffffffffff1663172195226040518163ffffffff1660e01b815260040160206040518083038186803b1580156119c757600080fd5b505afa1580156119db573d6000803e3d6000fd5b505050506040513d601f19601f820116820180604052508101906119ff9190612779565b611a0991906126f6565b3360009081526007602090815260408083205460089092528220549293509190611a3382846127af565b11611a9a576040517f08c379a000000000000000000000000000000000000000000000000000000000815260206004820152601b60248201527f4e6f20766573746564207265776172647320746f2072656465656d0000000000604482015260640161051b565b6000838311611aa95782611aab565b835b9050611ab781846126f6565b336000908152600760205260409020558115611aea57611ad782826127af565b3360009081526008602052604081205590505b600060095482611afa919061270d565b9050611b257fe10ab6c94f1da69921a0ca1c1b96b4fc339699153931c9bfd565e91f44c19b0b611e1d565b6040517fa9059cbb0000000000000000000000000000000000000000000000000000000081523360048201526024810183905273ffffffffffffffffffffffffffffffffffffffff919091169063a9059cbb90604401602060405180830381600087803b158015611b9557600080fd5b505af1158015611ba9573d6000803e3d6000fd5b505050506040513d601f19601f82011682018060405250810190611bcd9190612856565b611c33576040517f08c379a000000000000000000000000000000000000000000000000000000000815260206004820152600f60248201527f5472616e73666572204661696c65640000000000000000000000000000000000604482015260640161051b565b60405181815233907f2df39b0aeb21e17a5e4fc9ec49bde17de637939388a64ae2fde4955b2c308b6c90602001611945565b6000808260601b90506040517f3d602d80600a3d3981f3363d3d373d3d3d363d7300000000000000000000000081528160148201527f5af43d82803e903d91602b57fd5bf3000000000000000000000000000000000060288201526037816000f0949350505050565b600454600081815260056020908152604080832073ffffffffffffffffffffffffffffffffffffffff86168452600181019092529091205415611d6d576040517f08c379a000000000000000000000000000000000000000000000000000000000815260206004820152601760248201527f4e6f646520697320616c72656164792074727573746564000000000000000000604482015260640161051b565b8054611d7a9060016127af565b73ffffffffffffffffffffffffffffffffffffffff8416600081815260018085016020908152604080842095909555855491820186558583529091200180547fffffffffffffffffffffffff0000000000000000000000000000000000000000168217905590517f026e3fa01f70928e1ebf30f5828821f508b9f69a1ab33e901e1e637a25a1c15490611e109085815260200190565b60405180910390a2505050565b6040517faabbb8ca00000000000000000000000000000000000000000000000000000000815273ffffffffffffffffffffffffffffffffffffffff7f000000000000000000000000000000000000000000000000000000000000000016600482015260248101829052600090731820a4b7618bde71dce8cdc73aab6c95905fad249063aabbb8ca9060440160206040518083038186803b158015611ec057600080fd5b505afa158015611ed4573d6000803e3d6000fd5b505050506040513d601f19601f82011682018060405250810190611ef89190612792565b92915050565b6000611f287ff86c915dad5894faca0dfa067c58fdf4307406d255ed0a65db394f82b77f53d45490565b73ffffffffffffffffffffffffffffffffffffffff1614611fcb576040517f08c379a000000000000000000000000000000000000000000000000000000000815260206004820152602860248201527f43616e206f6e6c792062652063616c6c656420647572696e6720696e6974696160448201527f6c697a6174696f6e000000000000000000000000000000000000000000000000606482015260840161051b565b611fd481612089565b6040517f5df8122f00000000000000000000000000000000000000000000000000000000815230600482015273ffffffffffffffffffffffffffffffffffffffff7f0000000000000000000000000000000000000000000000000000000000000000166024820152731820a4b7618bde71dce8cdc73aab6c95905fad2490635df8122f90604401600060405180830381600087803b15801561207557600080fd5b505af1158015610547573d6000803e3d6000fd5b60006120b37ff86c915dad5894faca0dfa067c58fdf4307406d255ed0a65db394f82b77f53d45490565b73ffffffffffffffffffffffffffffffffffffffff1614612156576040517f08c379a000000000000000000000000000000000000000000000000000000000815260206004820152602860248201527f43616e206f6e6c792062652063616c6c656420647572696e6720696e6974696160448201527f6c697a6174696f6e000000000000000000000000000000000000000000000000606482015260840161051b565b60008173ffffffffffffffffffffffffffffffffffffffff16635c60da1b6040518163ffffffff1660e01b815260040160206040518083038186803b15801561219e57600080fd5b505afa1580156121b2573d6000803e3d6000fd5b505050506040513d601f19601f820116820180604052508101906121d69190612792565b905073ffffffffffffffffffffffffffffffffffffffff811661227b576040517f08c379a000000000000000000000000000000000000000000000000000000000815260206004820152602c60248201527f696e697469616c697a6174696f6e206661696c7572653a206e6f7468696e672060448201527f746f20696d706c656d656e740000000000000000000000000000000000000000606482015260840161051b565b61228481612288565b5050565b8073ffffffffffffffffffffffffffffffffffffffff166122c77ff86c915dad5894faca0dfa067c58fdf4307406d255ed0a65db394f82b77f53d45490565b73ffffffffffffffffffffffffffffffffffffffff161415612345576040517f08c379a000000000000000000000000000000000000000000000000000000000815260206004820152601f60248201527f496d706c656d656e746174696f6e20616c7265616479206d61746368696e6700604482015260640161051b565b7ff86c915dad5894faca0dfa067c58fdf4307406d255ed0a65db394f82b77f53d455565b73ffffffffffffffffffffffffffffffffffffffff811681146109b357600080fd5b7f4e487b7100000000000000000000000000000000000000000000000000000000600052604160045260246000fd5b604051601f82017fffffffffffffffffffffffffffffffffffffffffffffffffffffffffffffffe016810167ffffffffffffffff811182821017156124015761240161238b565b604052919050565b6000806040838503121561241c57600080fd5b823561242781612369565b915060208381013567ffffffffffffffff8082111561244557600080fd5b818601915086601f83011261245957600080fd5b81358181111561246b5761246b61238b565b61249b847fffffffffffffffffffffffffffffffffffffffffffffffffffffffffffffffe0601f840116016123ba565b915080825287848285010111156124b157600080fd5b80848401858401376000848284010152508093505050509250929050565b6000602082840312156124e157600080fd5b81356124ec81612369565b9392505050565b6000806040838503121561250657600080fd5b82359150602083013561251881612369565b809150509250929050565b600067ffffffffffffffff82111561253d5761253d61238b565b5060051b60200190565b6000602080838503121561255a57600080fd5b823567ffffffffffffffff81111561257157600080fd5b8301601f8101851361258257600080fd5b803561259561259082612523565b6123ba565b81815260059190911b820183019083810190878311156125b457600080fd5b928401925b828410156125db5783356125cc81612369565b825292840192908401906125b9565b979650505050505050565b6000602082840312156125f857600080fd5b5035919050565b6020808252825182820181905260009190848201906040850190845b8181101561264d57835173ffffffffffffffffffffffffffffffffffffffff168352928401929184019160010161261b565b50909695505050505050565b7f4e487b7100000000000000000000000000000000000000000000000000000000600052601160045260246000fd5b60007fffffffffffffffffffffffffffffffffffffffffffffffffffffffffffffffff8214156126ba576126ba612659565b5060010190565b6000816126d0576126d0612659565b507fffffffffffffffffffffffffffffffffffffffffffffffffffffffffffffffff0190565b60008282101561270857612708612659565b500390565b6000817fffffffffffffffffffffffffffffffffffffffffffffffffffffffffffffffff048311821515161561274557612745612659565b500290565b7f4e487b7100000000000000000000000000000000000000000000000000000000600052603260045260246000fd5b60006020828403121561278b57600080fd5b5051919050565b6000602082840312156127a457600080fd5b81516124ec81612369565b600082198211156127c2576127c2612659565b500190565b600060208083850312156127da57600080fd5b825167ffffffffffffffff8111156127f157600080fd5b8301601f8101851361280257600080fd5b805161281061259082612523565b81815260059190911b8201830190838101908783111561282f57600080fd5b928401925b828410156125db57835161284781612369565b82529284019290840190612834565b60006020828403121561286857600080fd5b815180151581146124ec57600080fd5b7f4e487b7100000000000000000000000000000000000000000000000000000000600052603160045260246000fdfea164736f6c6343000809000af86c915dad5894faca0dfa067c58fdf4307406d255ed0a65db394f82b77f53d4",
  "linkReferences": {},
  "deployedLinkReferences": {}
}